{
  "address": "0xe8f3EE0e96E6b4147b621872Be60Db44794E037e",
  "abi": [
    {
      "anonymous": false,
      "inputs": [
        {
          "indexed": false,
          "internalType": "uint256[]",
          "name": "tokenIds",
          "type": "uint256[]"
        },
        {
          "indexed": false,
          "internalType": "uint256",
          "name": "amount",
          "type": "uint256"
        }
      ],
      "name": "Claim",
      "type": "event"
    },
    {
      "anonymous": false,
      "inputs": [
        {
          "indexed": true,
          "internalType": "bytes32",
          "name": "role",
          "type": "bytes32"
        },
        {
          "indexed": true,
          "internalType": "bytes32",
          "name": "previousAdminRole",
          "type": "bytes32"
        },
        {
          "indexed": true,
          "internalType": "bytes32",
          "name": "newAdminRole",
          "type": "bytes32"
        }
      ],
      "name": "RoleAdminChanged",
      "type": "event"
    },
    {
      "anonymous": false,
      "inputs": [
        {
          "indexed": true,
          "internalType": "bytes32",
          "name": "role",
          "type": "bytes32"
        },
        {
          "indexed": true,
          "internalType": "address",
          "name": "account",
          "type": "address"
        },
        {
          "indexed": true,
          "internalType": "address",
          "name": "sender",
          "type": "address"
        }
      ],
      "name": "RoleGranted",
      "type": "event"
    },
    {
      "anonymous": false,
      "inputs": [
        {
          "indexed": true,
          "internalType": "bytes32",
          "name": "role",
          "type": "bytes32"
        },
        {
          "indexed": true,
          "internalType": "address",
          "name": "account",
          "type": "address"
        },
        {
          "indexed": true,
          "internalType": "address",
          "name": "sender",
          "type": "address"
        }
      ],
      "name": "RoleRevoked",
      "type": "event"
    },
    {
      "anonymous": false,
      "inputs": [
        {
          "indexed": false,
          "internalType": "bytes32",
          "name": "requestId",
          "type": "bytes32"
        },
        {
          "indexed": true,
          "internalType": "address",
          "name": "owner",
          "type": "address"
        },
        {
          "indexed": false,
          "internalType": "uint256[]",
          "name": "tokenIds",
          "type": "uint256[]"
        }
      ],
      "name": "SubmitRequest",
      "type": "event"
    },
    {
      "inputs": [],
      "name": "DEFAULT_ADMIN_ROLE",
      "outputs": [
        {
          "internalType": "bytes32",
          "name": "",
          "type": "bytes32"
        }
      ],
      "stateMutability": "view",
      "type": "function"
    },
    {
      "inputs": [],
      "name": "SHO",
      "outputs": [
        {
          "internalType": "contract IShogunToken",
          "name": "",
          "type": "address"
        }
      ],
      "stateMutability": "view",
      "type": "function"
    },
    {
      "inputs": [
        {
          "internalType": "address",
          "name": "_admin",
          "type": "address"
        },
        {
          "internalType": "address",
          "name": "_SHO",
          "type": "address"
        }
      ],
      "name": "__ShogunStakingPolygon_init",
      "outputs": [],
      "stateMutability": "nonpayable",
      "type": "function"
    },
    {
      "inputs": [
        {
          "internalType": "uint256",
          "name": "_tokenId",
          "type": "uint256"
        }
      ],
      "name": "calculateRewardByTokenId",
      "outputs": [
        {
          "internalType": "uint256",
          "name": "",
          "type": "uint256"
        }
      ],
      "stateMutability": "view",
      "type": "function"
    },
    {
      "inputs": [
        {
          "internalType": "uint256[]",
          "name": "tokenIds",
          "type": "uint256[]"
        }
      ],
      "name": "calculateRewards",
      "outputs": [
        {
          "internalType": "uint256",
          "name": "rewardAmount",
          "type": "uint256"
        }
      ],
      "stateMutability": "view",
      "type": "function"
    },
    {
      "inputs": [
        {
          "internalType": "uint256[]",
          "name": "_tokenIds",
          "type": "uint256[]"
        }
      ],
      "name": "claimRewards",
      "outputs": [],
      "stateMutability": "nonpayable",
      "type": "function"
    },
    {
      "inputs": [
        {
          "internalType": "uint256",
          "name": "",
          "type": "uint256"
        }
      ],
      "name": "claimedTimes",
      "outputs": [
        {
          "internalType": "uint256",
          "name": "",
          "type": "uint256"
        }
      ],
      "stateMutability": "view",
      "type": "function"
    },
    {
      "inputs": [
        {
          "internalType": "bytes32",
          "name": "_requestId",
          "type": "bytes32"
        }
      ],
      "name": "confirmRequest",
      "outputs": [],
      "stateMutability": "nonpayable",
      "type": "function"
    },
    {
      "inputs": [
        {
          "internalType": "bytes32",
          "name": "role",
          "type": "bytes32"
        }
      ],
      "name": "getRoleAdmin",
      "outputs": [
        {
          "internalType": "bytes32",
          "name": "",
          "type": "bytes32"
        }
      ],
      "stateMutability": "view",
      "type": "function"
    },
    {
      "inputs": [
        {
          "internalType": "bytes32",
          "name": "role",
          "type": "bytes32"
        },
        {
          "internalType": "address",
          "name": "account",
          "type": "address"
        }
      ],
      "name": "grantRole",
      "outputs": [],
      "stateMutability": "nonpayable",
      "type": "function"
    },
    {
      "inputs": [
        {
          "internalType": "bytes32",
          "name": "role",
          "type": "bytes32"
        },
        {
          "internalType": "address",
          "name": "account",
          "type": "address"
        }
      ],
      "name": "hasRole",
      "outputs": [
        {
          "internalType": "bool",
          "name": "",
          "type": "bool"
        }
      ],
      "stateMutability": "view",
      "type": "function"
    },
    {
      "inputs": [
        {
          "internalType": "address",
          "name": "",
          "type": "address"
        }
      ],
      "name": "nonces",
      "outputs": [
        {
          "internalType": "uint256",
          "name": "",
          "type": "uint256"
        }
      ],
      "stateMutability": "view",
      "type": "function"
    },
    {
      "inputs": [
        {
          "internalType": "bytes32",
          "name": "role",
          "type": "bytes32"
        },
        {
          "internalType": "address",
          "name": "account",
          "type": "address"
        }
      ],
      "name": "renounceRole",
      "outputs": [],
      "stateMutability": "nonpayable",
      "type": "function"
    },
    {
      "inputs": [
        {
          "internalType": "bytes32",
          "name": "",
          "type": "bytes32"
        }
      ],
      "name": "requests",
      "outputs": [
        {
          "internalType": "address",
          "name": "staker",
          "type": "address"
        }
      ],
      "stateMutability": "view",
      "type": "function"
    },
    {
      "inputs": [],
      "name": "returnTime",
      "outputs": [
        {
          "internalType": "uint256",
          "name": "",
          "type": "uint256"
        }
      ],
      "stateMutability": "view",
      "type": "function"
    },
    {
      "inputs": [
        {
          "internalType": "bytes32",
          "name": "role",
          "type": "bytes32"
        },
        {
          "internalType": "address",
          "name": "account",
          "type": "address"
        }
      ],
      "name": "revokeRole",
      "outputs": [],
      "stateMutability": "nonpayable",
      "type": "function"
    },
    {
      "inputs": [
        {
          "internalType": "address",
          "name": "_sho",
          "type": "address"
        }
      ],
      "name": "setSHOToken",
      "outputs": [],
      "stateMutability": "nonpayable",
      "type": "function"
    },
    {
      "inputs": [],
      "name": "startDate",
      "outputs": [
        {
          "internalType": "uint256",
          "name": "",
          "type": "uint256"
        }
      ],
      "stateMutability": "view",
      "type": "function"
    },
    {
      "inputs": [
        {
          "internalType": "bytes4",
          "name": "interfaceId",
          "type": "bytes4"
        }
      ],
      "name": "supportsInterface",
      "outputs": [
        {
          "internalType": "bool",
          "name": "",
          "type": "bool"
        }
      ],
      "stateMutability": "view",
      "type": "function"
    }
  ],
  "transactionHash": "0x1f306d40eb3f572d324553381c217b99c4fc4c3a43b151f8e88990887dbf15e6",
  "args": [],
  "numDeployments": 1,
  "solcInputHash": "aff7055051153d0f82c9e2253345440d",
  "bytecode": "0x608060405234801561001057600080fd5b50611411806100206000396000f3fe608060405234801561001057600080fd5b50600436106101215760003560e01c80637f04dd61116100ad5780639cb51136116100715780639cb51136146102805780639d86698514610293578063a217fddf146102bc578063bb47114f146102c4578063d547741f146102d757600080fd5b80637f04dd6114610209578063904bc92e1461021c57806391d1485414610247578063977232a01461025a578063985683661461027a57600080fd5b80632c074f4e116100f45780632c074f4e1461019d5780632f2ff15d146101b057806336568abe146101c35780635eac6239146101d65780637ecebe00146101e957600080fd5b806301ffc9a7146101265780630b97bc861461014e578063110ee63e14610165578063248a9ca31461017a575b600080fd5b6101396101343660046110e2565b6102ea565b60405190151581526020015b60405180910390f35b61015760ca5481565b604051908152602001610145565b6101786101733660046110a8565b610321565b005b6101576101883660046110a8565b60009081526065602052604090206001015490565b6101786101ab366004610f96565b6104a5565b6101786101be3660046110c0565b61059f565b6101786101d13660046110c0565b6105c5565b6101786101e4366004610fc8565b610643565b6101576101f7366004610f7c565b60cd6020526000908152604090205481565b610178610217366004610f7c565b61064d565b60c95461022f906001600160a01b031681565b6040516001600160a01b039091168152602001610145565b6101396102553660046110c0565b61067c565b6101576102683660046110a8565b60cb6020526000908152604090205481565b42610157565b61015761028e366004610fc8565b6106a7565b61022f6102a13660046110a8565b60cc602052600090815260409020546001600160a01b031681565b610157600081565b6101576102d23660046110a8565b610708565b6101786102e53660046110c0565b610762565b60006001600160e01b03198216637965db0b60e01b148061031b57506301ffc9a760e01b6001600160e01b03198316145b92915050565b600061032d8133610788565b600082815260cc602090815260408083208151808301835281546001600160a01b0316815260018201805484518187028101870190955280855291949293858401939092908301828280156103a157602002820191906000526020600020905b81548152602001906001019080831161038d575b50505091909252505050602081015190915060006103be826106a7565b835160c9549192506103da916001600160a01b031690836107ec565b60005b8251811015610438574260cb600085848151811061040b57634e487b7160e01b600052603260045260246000fd5b6020026020010151815260200190815260200160002081905550808061043090611394565b9150506103dd565b50600085815260cc6020526040812080546001600160a01b0319168155906104636001830182610edf565b50507fa16c2ba4743eff706b7adbcebb0fe17e3ff934ac5784fae3ff85921f6d2a70448282604051610496929190611226565b60405180910390a15050505050565b600054610100900460ff166104c05760005460ff16156104c4565b303b155b61052c5760405162461bcd60e51b815260206004820152602e60248201527f496e697469616c697a61626c653a20636f6e747261637420697320616c72656160448201526d191e481a5b9a5d1a585b1a5e995960921b60648201526084015b60405180910390fd5b600054610100900460ff1615801561054e576000805461ffff19166101011790555b61055661083e565b61055e610867565b610569600084610896565b60c980546001600160a01b0319166001600160a01b0384161790554260ca55801561059a576000805461ff00191690555b505050565b6000828152606560205260409020600101546105bb8133610788565b61059a838361089c565b6001600160a01b03811633146106355760405162461bcd60e51b815260206004820152602f60248201527f416363657373436f6e74726f6c3a2063616e206f6e6c792072656e6f756e636560448201526e103937b632b9903337b91039b2b63360891b6064820152608401610523565b61063f8282610922565b5050565b61063f8133610989565b60006106598133610788565b5060c980546001600160a01b0319166001600160a01b0392909216919091179055565b60009182526065602090815260408084206001600160a01b0393909316845291905290205460ff1690565b6000805b8251811015610702576106e48382815181106106d757634e487b7160e01b600052603260045260246000fd5b6020026020010151610708565b6106ee90836112df565b9150806106fa81611394565b9150506106ab565b50919050565b600081815260cb602052604081205460ca54811015610726575060ca545b6018610e106107358342611336565b61073f91906112f7565b61075190670de0b6b3a7640000611317565b61075b91906112f7565b9392505050565b60008281526065602052604090206001015461077e8133610788565b61059a8383610922565b610792828261067c565b61063f576107aa816001600160a01b03166014610a7c565b6107b5836020610a7c565b6040516020016107c69291906111b1565b60408051601f198184030181529082905262461bcd60e51b825261052391600401611261565b604080516001600160a01b038416602482015260448082018490528251808303909101815260649091019091526020810180516001600160e01b031663a9059cbb60e01b17905261059a908490610c5e565b600054610100900460ff166108655760405162461bcd60e51b815260040161052390611294565b565b600054610100900460ff1661088e5760405162461bcd60e51b815260040161052390611294565b610865610d30565b61063f82825b6108a6828261067c565b61063f5760008281526065602090815260408083206001600160a01b03851684529091529020805460ff191660011790556108de3390565b6001600160a01b0316816001600160a01b0316837f2f8788117e7eff1d82e926ec794901d17c78024a50270940304540a733656f0d60405160405180910390a45050565b61092c828261067c565b1561063f5760008281526065602090815260408083206001600160a01b0385168085529252808320805460ff1916905551339285917ff6391f5c32d9c69d2a47ea670b442974b53935d1edc7fd64eb21e047a839171b9190a45050565b33600090815260cd6020526040812080548291849186919084906109ac90611394565b91829055506040516109c393929190602001611144565b60408051808303601f19018152828252805160209182012083830183526001600160a01b038781168552828501898152600083815260cc855294909420855181546001600160a01b031916921691909117815592518051919550610a2e926001850192910190610f00565b50905050826001600160a01b03167fc0d7f4bc84af53e8d27f0f191fa8b5a77d3a70cbecf95163931f76d1dad1ecc78286604051610a6d929190611248565b60405180910390a29392505050565b60606000610a8b836002611317565b610a969060026112df565b67ffffffffffffffff811115610abc57634e487b7160e01b600052604160045260246000fd5b6040519080825280601f01601f191660200182016040528015610ae6576020820181803683370190505b509050600360fc1b81600081518110610b0f57634e487b7160e01b600052603260045260246000fd5b60200101906001600160f81b031916908160001a905350600f60fb1b81600181518110610b4c57634e487b7160e01b600052603260045260246000fd5b60200101906001600160f81b031916908160001a9053506000610b70846002611317565b610b7b9060016112df565b90505b6001811115610c0f576f181899199a1a9b1b9c1cb0b131b232b360811b85600f1660108110610bbd57634e487b7160e01b600052603260045260246000fd5b1a60f81b828281518110610be157634e487b7160e01b600052603260045260246000fd5b60200101906001600160f81b031916908160001a90535060049490941c93610c088161137d565b9050610b7e565b50831561075b5760405162461bcd60e51b815260206004820181905260248201527f537472696e67733a20686578206c656e67746820696e73756666696369656e746044820152606401610523565b6000610cb3826040518060400160405280602081526020017f5361666545524332303a206c6f772d6c6576656c2063616c6c206661696c6564815250856001600160a01b0316610d5e9092919063ffffffff16565b80519091501561059a5780806020019051810190610cd19190611088565b61059a5760405162461bcd60e51b815260206004820152602a60248201527f5361666545524332303a204552433230206f7065726174696f6e20646964206e6044820152691bdd081cdd58d8d9595960b21b6064820152608401610523565b600054610100900460ff16610d575760405162461bcd60e51b815260040161052390611294565b6001609755565b6060610d6d8484600085610d75565b949350505050565b606082471015610dd65760405162461bcd60e51b815260206004820152602660248201527f416464726573733a20696e73756666696369656e742062616c616e636520666f6044820152651c8818d85b1b60d21b6064820152608401610523565b6001600160a01b0385163b610e2d5760405162461bcd60e51b815260206004820152601d60248201527f416464726573733a2063616c6c20746f206e6f6e2d636f6e74726163740000006044820152606401610523565b600080866001600160a01b03168587604051610e499190611195565b60006040518083038185875af1925050503d8060008114610e86576040519150601f19603f3d011682016040523d82523d6000602084013e610e8b565b606091505b5091509150610e9b828286610ea6565b979650505050505050565b60608315610eb557508161075b565b825115610ec55782518084602001fd5b8160405162461bcd60e51b81526004016105239190611261565b5080546000825590600052602060002090810190610efd9190610f4b565b50565b828054828255906000526020600020908101928215610f3b579160200282015b82811115610f3b578251825591602001919060010190610f20565b50610f47929150610f4b565b5090565b5b80821115610f475760008155600101610f4c565b80356001600160a01b0381168114610f7757600080fd5b919050565b600060208284031215610f8d578081fd5b61075b82610f60565b60008060408385031215610fa8578081fd5b610fb183610f60565b9150610fbf60208401610f60565b90509250929050565b60006020808385031215610fda578182fd5b823567ffffffffffffffff80821115610ff1578384fd5b818501915085601f830112611004578384fd5b813581811115611016576110166113c5565b8060051b604051601f19603f8301168101818110858211171561103b5761103b6113c5565b604052828152858101935084860182860187018a1015611059578788fd5b8795505b8386101561107b57803585526001959095019493860193860161105d565b5098975050505050505050565b600060208284031215611099578081fd5b8151801515811461075b578182fd5b6000602082840312156110b9578081fd5b5035919050565b600080604083850312156110d2578182fd5b82359150610fbf60208401610f60565b6000602082840312156110f3578081fd5b81356001600160e01b03198116811461075b578182fd5b6000815180845260208085019450808401835b838110156111395781518752958201959082019060010161111d565b509495945050505050565b6bffffffffffffffffffffffff198460601b16815260006014820184516020808701845b8381101561118457815185529382019390820190600101611168565b505094825250909201949350505050565b600082516111a781846020870161134d565b9190910192915050565b7f416363657373436f6e74726f6c3a206163636f756e74200000000000000000008152600083516111e981601785016020880161134d565b7001034b99036b4b9b9b4b733903937b6329607d1b601791840191820152835161121a81602884016020880161134d565b01602801949350505050565b604081526000611239604083018561110a565b90508260208301529392505050565b828152604060208201526000610d6d604083018461110a565b602081526000825180602084015261128081604085016020870161134d565b601f01601f19169190910160400192915050565b6020808252602b908201527f496e697469616c697a61626c653a20636f6e7472616374206973206e6f74206960408201526a6e697469616c697a696e6760a81b606082015260800190565b600082198211156112f2576112f26113af565b500190565b60008261131257634e487b7160e01b81526012600452602481fd5b500490565b6000816000190483118215151615611331576113316113af565b500290565b600082821015611348576113486113af565b500390565b60005b83811015611368578181015183820152602001611350565b83811115611377576000848401525b50505050565b60008161138c5761138c6113af565b506000190190565b60006000198214156113a8576113a86113af565b5060010190565b634e487b7160e01b600052601160045260246000fd5b634e487b7160e01b600052604160045260246000fdfea26469706673582212209d2b8d979bdd2d15ca9c09a46bcc8ca4579db3c3203894f601b42804ee3beb5964736f6c63430008040033",
  "devdoc": {
    "kind": "dev",
    "methods": {
      "calculateRewards(uint256[])": {
        "details": "Caluclate rewards for given token Ids"
      },
      "confirmRequest(bytes32)": {
        "details": "Claim SHO reward for verified request"
      },
      "getRoleAdmin(bytes32)": {
        "details": "Returns the admin role that controls `role`. See {grantRole} and {revokeRole}. To change a role's admin, use {_setRoleAdmin}."
      },
      "grantRole(bytes32,address)": {
        "details": "Grants `role` to `account`. If `account` had not been already granted `role`, emits a {RoleGranted} event. Requirements: - the caller must have ``role``'s admin role."
      },
      "hasRole(bytes32,address)": {
        "details": "Returns `true` if `account` has been granted `role`."
      },
      "renounceRole(bytes32,address)": {
        "details": "Revokes `role` from the calling account. Roles are often managed via {grantRole} and {revokeRole}: this function's purpose is to provide a mechanism for accounts to lose their privileges if they are compromised (such as when a trusted device is misplaced). If the calling account had been revoked `role`, emits a {RoleRevoked} event. Requirements: - the caller must be `account`."
      },
      "revokeRole(bytes32,address)": {
        "details": "Revokes `role` from `account`. If `account` had been granted `role`, emits a {RoleRevoked} event. Requirements: - the caller must have ``role``'s admin role."
      },
      "supportsInterface(bytes4)": {
        "details": "See {IERC165-supportsInterface}."
      }
    },
    "version": 1
  },
  "userdoc": {
    "kind": "user",
    "methods": {},
    "version": 1
  },
  "storageLayout": {
    "storage": [
      {
        "astId": 408,
        "contract": "contracts/ShogunStakingPolygon.sol:ShogunStakingPolygon",
        "label": "_initialized",
        "offset": 0,
        "slot": "0",
        "type": "t_bool"
      },
      {
        "astId": 411,
        "contract": "contracts/ShogunStakingPolygon.sol:ShogunStakingPolygon",
        "label": "_initializing",
        "offset": 1,
        "slot": "0",
        "type": "t_bool"
      },
      {
        "astId": 883,
        "contract": "contracts/ShogunStakingPolygon.sol:ShogunStakingPolygon",
        "label": "__gap",
        "offset": 0,
        "slot": "1",
        "type": "t_array(t_uint256)50_storage"
      },
      {
        "astId": 1204,
        "contract": "contracts/ShogunStakingPolygon.sol:ShogunStakingPolygon",
        "label": "__gap",
        "offset": 0,
        "slot": "51",
        "type": "t_array(t_uint256)50_storage"
      },
      {
        "astId": 39,
        "contract": "contracts/ShogunStakingPolygon.sol:ShogunStakingPolygon",
        "label": "_roles",
        "offset": 0,
        "slot": "101",
        "type": "t_mapping(t_bytes32,t_struct(RoleData)34_storage)"
      },
      {
        "astId": 327,
        "contract": "contracts/ShogunStakingPolygon.sol:ShogunStakingPolygon",
        "label": "__gap",
        "offset": 0,
        "slot": "102",
        "type": "t_array(t_uint256)49_storage"
      },
      {
        "astId": 489,
        "contract": "contracts/ShogunStakingPolygon.sol:ShogunStakingPolygon",
        "label": "_status",
        "offset": 0,
        "slot": "151",
        "type": "t_uint256"
      },
      {
        "astId": 533,
        "contract": "contracts/ShogunStakingPolygon.sol:ShogunStakingPolygon",
        "label": "__gap",
        "offset": 0,
        "slot": "152",
        "type": "t_array(t_uint256)49_storage"
      },
      {
        "astId": 8220,
        "contract": "contracts/ShogunStakingPolygon.sol:ShogunStakingPolygon",
        "label": "SHO",
        "offset": 0,
        "slot": "201",
        "type": "t_contract(IShogunToken)10079"
      },
      {
        "astId": 8222,
        "contract": "contracts/ShogunStakingPolygon.sol:ShogunStakingPolygon",
        "label": "startDate",
        "offset": 0,
        "slot": "202",
        "type": "t_uint256"
      },
      {
        "astId": 8226,
        "contract": "contracts/ShogunStakingPolygon.sol:ShogunStakingPolygon",
        "label": "claimedTimes",
        "offset": 0,
        "slot": "203",
        "type": "t_mapping(t_uint256,t_uint256)"
      },
      {
        "astId": 8237,
        "contract": "contracts/ShogunStakingPolygon.sol:ShogunStakingPolygon",
        "label": "requests",
        "offset": 0,
        "slot": "204",
        "type": "t_mapping(t_bytes32,t_struct(ClaimRequest)8232_storage)"
      },
      {
        "astId": 8241,
        "contract": "contracts/ShogunStakingPolygon.sol:ShogunStakingPolygon",
        "label": "nonces",
        "offset": 0,
        "slot": "205",
        "type": "t_mapping(t_address,t_uint256)"
      }
    ],
    "types": {
      "t_address": {
        "encoding": "inplace",
        "label": "address",
        "numberOfBytes": "20"
      },
      "t_array(t_uint256)49_storage": {
        "base": "t_uint256",
        "encoding": "inplace",
        "label": "uint256[49]",
        "numberOfBytes": "1568"
      },
      "t_array(t_uint256)50_storage": {
        "base": "t_uint256",
        "encoding": "inplace",
        "label": "uint256[50]",
        "numberOfBytes": "1600"
      },
      "t_array(t_uint256)dyn_storage": {
        "base": "t_uint256",
        "encoding": "dynamic_array",
        "label": "uint256[]",
        "numberOfBytes": "32"
      },
      "t_bool": {
        "encoding": "inplace",
        "label": "bool",
        "numberOfBytes": "1"
      },
      "t_bytes32": {
        "encoding": "inplace",
        "label": "bytes32",
        "numberOfBytes": "32"
      },
      "t_contract(IShogunToken)10079": {
        "encoding": "inplace",
        "label": "contract IShogunToken",
        "numberOfBytes": "20"
      },
      "t_mapping(t_address,t_bool)": {
        "encoding": "mapping",
        "key": "t_address",
        "label": "mapping(address => bool)",
        "numberOfBytes": "32",
        "value": "t_bool"
      },
      "t_mapping(t_address,t_uint256)": {
        "encoding": "mapping",
        "key": "t_address",
        "label": "mapping(address => uint256)",
        "numberOfBytes": "32",
        "value": "t_uint256"
      },
      "t_mapping(t_bytes32,t_struct(ClaimRequest)8232_storage)": {
        "encoding": "mapping",
        "key": "t_bytes32",
        "label": "mapping(bytes32 => struct ShogunStakingPolygon.ClaimRequest)",
        "numberOfBytes": "32",
        "value": "t_struct(ClaimRequest)8232_storage"
      },
      "t_mapping(t_bytes32,t_struct(RoleData)34_storage)": {
        "encoding": "mapping",
        "key": "t_bytes32",
        "label": "mapping(bytes32 => struct AccessControlUpgradeable.RoleData)",
        "numberOfBytes": "32",
        "value": "t_struct(RoleData)34_storage"
      },
      "t_mapping(t_uint256,t_uint256)": {
        "encoding": "mapping",
        "key": "t_uint256",
        "label": "mapping(uint256 => uint256)",
        "numberOfBytes": "32",
        "value": "t_uint256"
      },
      "t_struct(ClaimRequest)8232_storage": {
        "encoding": "inplace",
        "label": "struct ShogunStakingPolygon.ClaimRequest",
        "members": [
          {
            "astId": 8228,
            "contract": "contracts/ShogunStakingPolygon.sol:ShogunStakingPolygon",
            "label": "staker",
            "offset": 0,
            "slot": "0",
            "type": "t_address"
          },
          {
            "astId": 8231,
            "contract": "contracts/ShogunStakingPolygon.sol:ShogunStakingPolygon",
            "label": "nftIds",
            "offset": 0,
            "slot": "1",
            "type": "t_array(t_uint256)dyn_storage"
          }
        ],
        "numberOfBytes": "64"
      },
      "t_struct(RoleData)34_storage": {
        "encoding": "inplace",
        "label": "struct AccessControlUpgradeable.RoleData",
        "members": [
          {
            "astId": 31,
            "contract": "contracts/ShogunStakingPolygon.sol:ShogunStakingPolygon",
            "label": "members",
            "offset": 0,
            "slot": "0",
            "type": "t_mapping(t_address,t_bool)"
          },
          {
            "astId": 33,
            "contract": "contracts/ShogunStakingPolygon.sol:ShogunStakingPolygon",
            "label": "adminRole",
            "offset": 0,
            "slot": "1",
            "type": "t_bytes32"
          }
        ],
        "numberOfBytes": "64"
      },
      "t_uint256": {
        "encoding": "inplace",
        "label": "uint256",
        "numberOfBytes": "32"
      }
    }
  }
}