{
  "address": "0xd4017A0369D80D62E1c665E2bfDD4f2FfeB9e64D",
  "abi": [
    {
      "anonymous": false,
      "inputs": [
        {
          "indexed": true,
          "internalType": "address",
          "name": "user",
          "type": "address"
        },
        {
          "indexed": false,
          "internalType": "uint256",
          "name": "amount",
          "type": "uint256"
        },
        {
          "indexed": false,
          "internalType": "uint256",
          "name": "claimTime",
          "type": "uint256"
        }
      ],
      "name": "BonusClaimed",
      "type": "event"
    },
    {
      "anonymous": false,
      "inputs": [
        {
          "indexed": true,
          "internalType": "address",
          "name": "user",
          "type": "address"
        },
        {
          "indexed": false,
          "internalType": "uint256",
          "name": "amount",
          "type": "uint256"
        },
        {
          "indexed": false,
          "internalType": "uint256",
          "name": "claimTime",
          "type": "uint256"
        }
      ],
      "name": "RewardClaimed",
      "type": "event"
    },
    {
      "anonymous": false,
      "inputs": [
        {
          "indexed": true,
          "internalType": "bytes32",
          "name": "role",
          "type": "bytes32"
        },
        {
          "indexed": true,
          "internalType": "bytes32",
          "name": "previousAdminRole",
          "type": "bytes32"
        },
        {
          "indexed": true,
          "internalType": "bytes32",
          "name": "newAdminRole",
          "type": "bytes32"
        }
      ],
      "name": "RoleAdminChanged",
      "type": "event"
    },
    {
      "anonymous": false,
      "inputs": [
        {
          "indexed": true,
          "internalType": "bytes32",
          "name": "role",
          "type": "bytes32"
        },
        {
          "indexed": true,
          "internalType": "address",
          "name": "account",
          "type": "address"
        },
        {
          "indexed": true,
          "internalType": "address",
          "name": "sender",
          "type": "address"
        }
      ],
      "name": "RoleGranted",
      "type": "event"
    },
    {
      "anonymous": false,
      "inputs": [
        {
          "indexed": true,
          "internalType": "bytes32",
          "name": "role",
          "type": "bytes32"
        },
        {
          "indexed": true,
          "internalType": "address",
          "name": "account",
          "type": "address"
        },
        {
          "indexed": true,
          "internalType": "address",
          "name": "sender",
          "type": "address"
        }
      ],
      "name": "RoleRevoked",
      "type": "event"
    },
    {
      "anonymous": false,
      "inputs": [
        {
          "indexed": true,
          "internalType": "address",
          "name": "user",
          "type": "address"
        },
        {
          "indexed": false,
          "internalType": "uint256",
          "name": "trainId",
          "type": "uint256"
        },
        {
          "indexed": false,
          "internalType": "uint256[]",
          "name": "shogunIds",
          "type": "uint256[]"
        },
        {
          "indexed": false,
          "internalType": "uint256",
          "name": "endTime",
          "type": "uint256"
        }
      ],
      "name": "TrainingEnded",
      "type": "event"
    },
    {
      "anonymous": false,
      "inputs": [
        {
          "indexed": true,
          "internalType": "address",
          "name": "user",
          "type": "address"
        },
        {
          "indexed": false,
          "internalType": "uint256",
          "name": "trainId",
          "type": "uint256"
        },
        {
          "indexed": false,
          "internalType": "uint256[]",
          "name": "shogunIds",
          "type": "uint256[]"
        },
        {
          "indexed": false,
          "internalType": "uint256",
          "name": "startTime",
          "type": "uint256"
        }
      ],
      "name": "TrainingStarted",
      "type": "event"
    },
    {
      "inputs": [],
      "name": "DEFAULT_ADMIN_ROLE",
      "outputs": [
        {
          "internalType": "bytes32",
          "name": "",
          "type": "bytes32"
        }
      ],
      "stateMutability": "view",
      "type": "function"
    },
    {
      "inputs": [],
      "name": "SHO",
      "outputs": [
        {
          "internalType": "contract IShogunToken",
          "name": "",
          "type": "address"
        }
      ],
      "stateMutability": "view",
      "type": "function"
    },
    {
      "inputs": [],
      "name": "SS",
      "outputs": [
        {
          "internalType": "contract IShogunNFT",
          "name": "",
          "type": "address"
        }
      ],
      "stateMutability": "view",
      "type": "function"
    },
    {
      "inputs": [
        {
          "internalType": "address",
          "name": "ss",
          "type": "address"
        },
        {
          "internalType": "uint256",
          "name": "_baseReward",
          "type": "uint256"
        },
        {
          "internalType": "address",
          "name": "admin",
          "type": "address"
        }
      ],
      "name": "__ShogunStaking_init",
      "outputs": [],
      "stateMutability": "nonpayable",
      "type": "function"
    },
    {
      "inputs": [
        {
          "internalType": "address[]",
          "name": "to",
          "type": "address[]"
        },
        {
          "internalType": "uint256[]",
          "name": "amount",
          "type": "uint256[]"
        }
      ],
      "name": "airdrop",
      "outputs": [],
      "stateMutability": "nonpayable",
      "type": "function"
    },
    {
      "inputs": [
        {
          "internalType": "uint256[]",
          "name": "tokenIds",
          "type": "uint256[]"
        }
      ],
      "name": "areAvailiable",
      "outputs": [
        {
          "internalType": "bool",
          "name": "out",
          "type": "bool"
        }
      ],
      "stateMutability": "view",
      "type": "function"
    },
    {
      "inputs": [
        {
          "internalType": "uint256[]",
          "name": "tokenIds",
          "type": "uint256[]"
        }
      ],
      "name": "areOwned",
      "outputs": [
        {
          "internalType": "bool",
          "name": "out",
          "type": "bool"
        }
      ],
      "stateMutability": "view",
      "type": "function"
    },
    {
      "inputs": [],
      "name": "baseReward",
      "outputs": [
        {
          "internalType": "uint256",
          "name": "",
          "type": "uint256"
        }
      ],
      "stateMutability": "view",
      "type": "function"
    },
    {
      "inputs": [
        {
          "internalType": "address",
          "name": "",
          "type": "address"
        }
      ],
      "name": "bonusSHO",
      "outputs": [
        {
          "internalType": "uint256",
          "name": "",
          "type": "uint256"
        }
      ],
      "stateMutability": "view",
      "type": "function"
    },
    {
      "inputs": [
        {
          "internalType": "uint256",
          "name": "tokenId",
          "type": "uint256"
        }
      ],
      "name": "calculateRewards",
      "outputs": [
        {
          "internalType": "uint256",
          "name": "rewardAmount",
          "type": "uint256"
        }
      ],
      "stateMutability": "view",
      "type": "function"
    },
    {
      "inputs": [
        {
          "internalType": "uint256[]",
          "name": "tokenIds",
          "type": "uint256[]"
        }
      ],
      "name": "calculateRewardsMulti",
      "outputs": [
        {
          "internalType": "uint256",
          "name": "rewardAmount",
          "type": "uint256"
        }
      ],
      "stateMutability": "view",
      "type": "function"
    },
    {
      "inputs": [],
      "name": "claimBonusSHO",
      "outputs": [],
      "stateMutability": "nonpayable",
      "type": "function"
    },
    {
      "inputs": [
        {
          "internalType": "uint256",
          "name": "tokenId",
          "type": "uint256"
        }
      ],
      "name": "claimRewards",
      "outputs": [],
      "stateMutability": "nonpayable",
      "type": "function"
    },
    {
      "inputs": [],
      "name": "claimRewardsMulti",
      "outputs": [],
      "stateMutability": "nonpayable",
      "type": "function"
    },
    {
      "inputs": [
        {
          "internalType": "uint256",
          "name": "",
          "type": "uint256"
        }
      ],
      "name": "countMultipliers",
      "outputs": [
        {
          "internalType": "uint256",
          "name": "",
          "type": "uint256"
        }
      ],
      "stateMutability": "view",
      "type": "function"
    },
    {
      "inputs": [
        {
          "internalType": "bool",
          "name": "training",
          "type": "bool"
        }
      ],
      "name": "enableTraining",
      "outputs": [],
      "stateMutability": "nonpayable",
      "type": "function"
    },
    {
      "inputs": [
        {
          "internalType": "uint256[]",
          "name": "trainIds",
          "type": "uint256[]"
        }
      ],
      "name": "endMultipleTraining",
      "outputs": [],
      "stateMutability": "nonpayable",
      "type": "function"
    },
    {
      "inputs": [
        {
          "internalType": "uint256",
          "name": "trainId",
          "type": "uint256"
        }
      ],
      "name": "endTraining",
      "outputs": [],
      "stateMutability": "nonpayable",
      "type": "function"
    },
    {
      "inputs": [
        {
          "internalType": "uint256",
          "name": "",
          "type": "uint256"
        }
      ],
      "name": "families",
      "outputs": [
        {
          "internalType": "address",
          "name": "familyOwner",
          "type": "address"
        },
        {
          "internalType": "uint256",
          "name": "lastClaim",
          "type": "uint256"
        },
        {
          "internalType": "uint256",
          "name": "guildMultiplier",
          "type": "uint256"
        },
        {
          "internalType": "uint256",
          "name": "medallionMultiplier",
          "type": "uint256"
        },
        {
          "internalType": "uint256",
          "name": "shogunBonus",
          "type": "uint256"
        },
        {
          "internalType": "enum ShogunStakingV2.TrainState",
          "name": "trainState",
          "type": "uint8"
        }
      ],
      "stateMutability": "view",
      "type": "function"
    },
    {
      "inputs": [
        {
          "internalType": "uint256",
          "name": "guildCount",
          "type": "uint256"
        },
        {
          "internalType": "bool",
          "name": "sameGuild",
          "type": "bool"
        }
      ],
      "name": "getCountMultiplier",
      "outputs": [
        {
          "internalType": "uint256",
          "name": "",
          "type": "uint256"
        }
      ],
      "stateMutability": "view",
      "type": "function"
    },
    {
      "inputs": [
        {
          "internalType": "uint256",
          "name": "trainId",
          "type": "uint256"
        }
      ],
      "name": "getFamily",
      "outputs": [
        {
          "components": [
            {
              "internalType": "address",
              "name": "familyOwner",
              "type": "address"
            },
            {
              "internalType": "uint256",
              "name": "lastClaim",
              "type": "uint256"
            },
            {
              "internalType": "uint256",
              "name": "guildMultiplier",
              "type": "uint256"
            },
            {
              "internalType": "uint256",
              "name": "medallionMultiplier",
              "type": "uint256"
            },
            {
              "internalType": "uint256",
              "name": "shogunBonus",
              "type": "uint256"
            },
            {
              "internalType": "uint256[]",
              "name": "shogunIds",
              "type": "uint256[]"
            },
            {
              "internalType": "enum ShogunStakingV2.TrainState",
              "name": "trainState",
              "type": "uint8"
            }
          ],
          "internalType": "struct ShogunStakingV2.Family",
          "name": "",
          "type": "tuple"
        }
      ],
      "stateMutability": "view",
      "type": "function"
    },
    {
      "inputs": [],
      "name": "getFamilyCount",
      "outputs": [
        {
          "internalType": "uint256",
          "name": "",
          "type": "uint256"
        }
      ],
      "stateMutability": "view",
      "type": "function"
    },
    {
      "inputs": [
        {
          "internalType": "uint256",
          "name": "familyId",
          "type": "uint256"
        }
      ],
      "name": "getFamilyStatus",
      "outputs": [
        {
          "internalType": "enum ShogunStakingV2.TrainState",
          "name": "",
          "type": "uint8"
        }
      ],
      "stateMutability": "view",
      "type": "function"
    },
    {
      "inputs": [
        {
          "internalType": "uint256",
          "name": "tokenId",
          "type": "uint256"
        }
      ],
      "name": "getGuild",
      "outputs": [
        {
          "internalType": "uint8",
          "name": "",
          "type": "uint8"
        }
      ],
      "stateMutability": "view",
      "type": "function"
    },
    {
      "inputs": [
        {
          "internalType": "uint256",
          "name": "familyId",
          "type": "uint256"
        }
      ],
      "name": "getOwnerOfFamily",
      "outputs": [
        {
          "internalType": "address",
          "name": "",
          "type": "address"
        }
      ],
      "stateMutability": "view",
      "type": "function"
    },
    {
      "inputs": [
        {
          "internalType": "bytes32",
          "name": "role",
          "type": "bytes32"
        }
      ],
      "name": "getRoleAdmin",
      "outputs": [
        {
          "internalType": "bytes32",
          "name": "",
          "type": "bytes32"
        }
      ],
      "stateMutability": "view",
      "type": "function"
    },
    {
      "inputs": [
        {
          "internalType": "uint256",
          "name": "familyId",
          "type": "uint256"
        }
      ],
      "name": "getShogunsOfFamily",
      "outputs": [
        {
          "internalType": "uint256[]",
          "name": "",
          "type": "uint256[]"
        }
      ],
      "stateMutability": "view",
      "type": "function"
    },
    {
      "inputs": [
        {
          "internalType": "address",
          "name": "user",
          "type": "address"
        }
      ],
      "name": "getTotalMedallionMultiplier",
      "outputs": [
        {
          "internalType": "uint256",
          "name": "",
          "type": "uint256"
        }
      ],
      "stateMutability": "view",
      "type": "function"
    },
    {
      "inputs": [
        {
          "internalType": "address",
          "name": "user",
          "type": "address"
        }
      ],
      "name": "getUserFamilies",
      "outputs": [
        {
          "internalType": "uint256[]",
          "name": "",
          "type": "uint256[]"
        }
      ],
      "stateMutability": "view",
      "type": "function"
    },
    {
      "inputs": [
        {
          "internalType": "bytes32",
          "name": "role",
          "type": "bytes32"
        },
        {
          "internalType": "address",
          "name": "account",
          "type": "address"
        }
      ],
      "name": "grantRole",
      "outputs": [],
      "stateMutability": "nonpayable",
      "type": "function"
    },
    {
      "inputs": [],
      "name": "guildMultiplier",
      "outputs": [
        {
          "internalType": "uint256",
          "name": "",
          "type": "uint256"
        }
      ],
      "stateMutability": "view",
      "type": "function"
    },
    {
      "inputs": [],
      "name": "guilds",
      "outputs": [
        {
          "internalType": "bytes",
          "name": "",
          "type": "bytes"
        }
      ],
      "stateMutability": "view",
      "type": "function"
    },
    {
      "inputs": [
        {
          "internalType": "bytes32",
          "name": "role",
          "type": "bytes32"
        },
        {
          "internalType": "address",
          "name": "account",
          "type": "address"
        }
      ],
      "name": "hasRole",
      "outputs": [
        {
          "internalType": "bool",
          "name": "",
          "type": "bool"
        }
      ],
      "stateMutability": "view",
      "type": "function"
    },
    {
      "inputs": [
        {
          "internalType": "uint256",
          "name": "",
          "type": "uint256"
        }
      ],
      "name": "isLegendarySamurai",
      "outputs": [
        {
          "internalType": "bool",
          "name": "",
          "type": "bool"
        }
      ],
      "stateMutability": "view",
      "type": "function"
    },
    {
      "inputs": [
        {
          "internalType": "uint256",
          "name": "",
          "type": "uint256"
        }
      ],
      "name": "lastClaim",
      "outputs": [
        {
          "internalType": "uint256",
          "name": "",
          "type": "uint256"
        }
      ],
      "stateMutability": "view",
      "type": "function"
    },
    {
      "inputs": [
        {
          "internalType": "address",
          "name": "",
          "type": "address"
        }
      ],
      "name": "medallionCount",
      "outputs": [
        {
          "internalType": "uint256",
          "name": "",
          "type": "uint256"
        }
      ],
      "stateMutability": "view",
      "type": "function"
    },
    {
      "inputs": [],
      "name": "medallionMultiplier",
      "outputs": [
        {
          "internalType": "uint256",
          "name": "",
          "type": "uint256"
        }
      ],
      "stateMutability": "view",
      "type": "function"
    },
    {
      "inputs": [
        {
          "internalType": "address",
          "name": "",
          "type": "address"
        },
        {
          "internalType": "address",
          "name": "",
          "type": "address"
        },
        {
          "internalType": "uint256",
          "name": "",
          "type": "uint256"
        },
        {
          "internalType": "bytes",
          "name": "",
          "type": "bytes"
        }
      ],
      "name": "onERC721Received",
      "outputs": [
        {
          "internalType": "bytes4",
          "name": "",
          "type": "bytes4"
        }
      ],
      "stateMutability": "nonpayable",
      "type": "function"
    },
    {
      "inputs": [
        {
          "internalType": "uint256",
          "name": "",
          "type": "uint256"
        }
      ],
      "name": "onTraining",
      "outputs": [
        {
          "internalType": "uint256",
          "name": "",
          "type": "uint256"
        }
      ],
      "stateMutability": "view",
      "type": "function"
    },
    {
      "inputs": [],
      "name": "removeUnstaker",
      "outputs": [],
      "stateMutability": "nonpayable",
      "type": "function"
    },
    {
      "inputs": [
        {
          "internalType": "bytes32",
          "name": "role",
          "type": "bytes32"
        },
        {
          "internalType": "address",
          "name": "account",
          "type": "address"
        }
      ],
      "name": "renounceRole",
      "outputs": [],
      "stateMutability": "nonpayable",
      "type": "function"
    },
    {
      "inputs": [
        {
          "internalType": "bytes32",
          "name": "role",
          "type": "bytes32"
        },
        {
          "internalType": "address",
          "name": "account",
          "type": "address"
        }
      ],
      "name": "revokeRole",
      "outputs": [],
      "stateMutability": "nonpayable",
      "type": "function"
    },
    {
      "inputs": [
        {
          "internalType": "uint256",
          "name": "_amount",
          "type": "uint256"
        }
      ],
      "name": "setBaseReward",
      "outputs": [],
      "stateMutability": "nonpayable",
      "type": "function"
    },
    {
      "inputs": [
        {
          "internalType": "address[]",
          "name": "addresses",
          "type": "address[]"
        },
        {
          "internalType": "uint256[]",
          "name": "amounts",
          "type": "uint256[]"
        }
      ],
      "name": "setBonusSHO",
      "outputs": [],
      "stateMutability": "nonpayable",
      "type": "function"
    },
    {
      "inputs": [
        {
          "internalType": "uint256[]",
          "name": "_countMultipliers",
          "type": "uint256[]"
        }
      ],
      "name": "setCountMultiplier",
      "outputs": [],
      "stateMutability": "nonpayable",
      "type": "function"
    },
    {
      "inputs": [
        {
          "internalType": "uint256",
          "name": "_guildMultiplier",
          "type": "uint256"
        }
      ],
      "name": "setGuildMultiplier",
      "outputs": [],
      "stateMutability": "nonpayable",
      "type": "function"
    },
    {
      "inputs": [
        {
          "internalType": "uint256[]",
          "name": "shogunIds",
          "type": "uint256[]"
        },
        {
          "internalType": "bool[]",
          "name": "flags",
          "type": "bool[]"
        }
      ],
      "name": "setLegendaryShoguns",
      "outputs": [],
      "stateMutability": "nonpayable",
      "type": "function"
    },
    {
      "inputs": [
        {
          "internalType": "address[]",
          "name": "users",
          "type": "address[]"
        },
        {
          "internalType": "uint256[]",
          "name": "quantities",
          "type": "uint256[]"
        }
      ],
      "name": "setMedallionCount",
      "outputs": [],
      "stateMutability": "nonpayable",
      "type": "function"
    },
    {
      "inputs": [
        {
          "internalType": "uint256",
          "name": "_medallionMultiplier",
          "type": "uint256"
        }
      ],
      "name": "setMedallionMultiplier",
      "outputs": [],
      "stateMutability": "nonpayable",
      "type": "function"
    },
    {
      "inputs": [
        {
          "internalType": "address",
          "name": "sho",
          "type": "address"
        }
      ],
      "name": "setSHOToken",
      "outputs": [],
      "stateMutability": "nonpayable",
      "type": "function"
    },
    {
      "inputs": [
        {
          "internalType": "uint256",
          "name": "_shogunBonus",
          "type": "uint256"
        }
      ],
      "name": "setShogunBonus",
      "outputs": [],
      "stateMutability": "nonpayable",
      "type": "function"
    },
    {
      "inputs": [
        {
          "internalType": "uint256",
          "name": "_newTimescale",
          "type": "uint256"
        }
      ],
      "name": "setTimeScale",
      "outputs": [],
      "stateMutability": "nonpayable",
      "type": "function"
    },
    {
      "inputs": [
        {
          "internalType": "address",
          "name": "_unstaker",
          "type": "address"
        }
      ],
      "name": "setUnstaker",
      "outputs": [],
      "stateMutability": "nonpayable",
      "type": "function"
    },
    {
      "inputs": [],
      "name": "shogunBonus",
      "outputs": [
        {
          "internalType": "uint256",
          "name": "",
          "type": "uint256"
        }
      ],
      "stateMutability": "view",
      "type": "function"
    },
    {
      "inputs": [],
      "name": "startDate",
      "outputs": [
        {
          "internalType": "uint256",
          "name": "",
          "type": "uint256"
        }
      ],
      "stateMutability": "view",
      "type": "function"
    },
    {
      "inputs": [
        {
          "internalType": "uint256[]",
          "name": "shogunIds",
          "type": "uint256[]"
        }
      ],
      "name": "startTraining",
      "outputs": [],
      "stateMutability": "nonpayable",
      "type": "function"
    },
    {
      "inputs": [
        {
          "internalType": "uint256[][]",
          "name": "shogunIdsArray",
          "type": "uint256[][]"
        }
      ],
      "name": "startTrainingMultiple",
      "outputs": [],
      "stateMutability": "nonpayable",
      "type": "function"
    },
    {
      "inputs": [
        {
          "internalType": "bytes4",
          "name": "interfaceId",
          "type": "bytes4"
        }
      ],
      "name": "supportsInterface",
      "outputs": [
        {
          "internalType": "bool",
          "name": "",
          "type": "bool"
        }
      ],
      "stateMutability": "view",
      "type": "function"
    },
    {
      "inputs": [],
      "name": "trainingEnabled",
      "outputs": [
        {
          "internalType": "bool",
          "name": "",
          "type": "bool"
        }
      ],
      "stateMutability": "view",
      "type": "function"
    },
    {
      "inputs": [
        {
          "internalType": "uint256[]",
          "name": "shogunIds",
          "type": "uint256[]"
        }
      ],
      "name": "unlockShogunNFTs",
      "outputs": [],
      "stateMutability": "nonpayable",
      "type": "function"
    },
    {
      "inputs": [],
      "name": "unstaker",
      "outputs": [
        {
          "internalType": "address",
          "name": "",
          "type": "address"
        }
      ],
      "stateMutability": "view",
      "type": "function"
    },
    {
      "inputs": [
        {
          "internalType": "bytes",
          "name": "_guilds",
          "type": "bytes"
        }
      ],
      "name": "updateGuilds",
      "outputs": [],
      "stateMutability": "nonpayable",
      "type": "function"
    },
    {
      "inputs": [
        {
          "internalType": "address",
          "name": "",
          "type": "address"
        },
        {
          "internalType": "uint256",
          "name": "",
          "type": "uint256"
        }
      ],
      "name": "userFamilies",
      "outputs": [
        {
          "internalType": "uint256",
          "name": "",
          "type": "uint256"
        }
      ],
      "stateMutability": "view",
      "type": "function"
    }
  ],
  "transactionHash": "0xf585b122dc327559d5a4a8306fb316fcc4458701e1421fd836991907b0bf5949",
  "args": [],
  "numDeployments": 2,
  "solcInputHash": "aff7055051153d0f82c9e2253345440d",
  "bytecode": "0x608060405234801561001057600080fd5b506138b5806100206000396000f3fe608060405234801561001057600080fd5b50600436106103c55760003560e01c80637f04dd61116101ff578063d0c383001161011a578063efe2dba3116100ad578063fa8c42e91161007c578063fa8c42e914610941578063ff92fcab14610955578063fff439051461096a578063fff5923e1461097257600080fd5b8063efe2dba314610909578063f182d79214610911578063f796d0301461091b578063f9f4d8031461092e57600080fd5b8063d3ea4350116100e9578063d3ea4350146108c6578063d547741f146108d9578063dec161d7146108ec578063e40cde48146108f657600080fd5b8063d0c3830014610868578063d146c1a61461087b578063d210e0161461088e578063d3e96693146108a157600080fd5b8063b44ca97711610192578063c3446ff711610161578063c3446ff71461081c578063c4c52d6d1461082f578063c966a70414610842578063cc8ca9ca1461085557600080fd5b8063b44ca977146107c3578063b46958d0146107e3578063b753ead7146107f6578063ba2f5a621461080957600080fd5b806391d14854116101ce57806391d148541461076357806399d37a0614610776578063a217fddf1461079a578063aaffff8a146107a257600080fd5b80637f04dd611461071757806386f5cb681461072a5780638cc60eca1461073d578063904bc92e1461075057600080fd5b806336568abe116102ef5780636432028a116102825780636e974378116102515780636e974378146106d557806375183ad0146106e857806376ad03bc146106fb5780637b495a051461070457600080fd5b80636432028a1461066857806366b3fe661461069c57806367243482146106af578063679ffd0a146106c257600080fd5b80634ba70563116102be5780634ba70563146105df5780635ad3bd3b146106005780635b12d7e2146106425780635fb1e33f1461065557600080fd5b806336568abe1461059b57806339395941146105ae5780633b9a5720146105b65780633d3728b5146105be57600080fd5b806310ace2cd116103675780632ea8545a116103365780632ea8545a146105415780632f2ff15d1461055457806332a4e01e1461056757806335a0a9801461057a57600080fd5b806310ace2cd146104b2578063150b7a02146104d25780631fe75f2414610509578063248a9ca31461051e57600080fd5b80630962ef79116103a35780630962ef791461046a5780630b287fc51461047d5780630b42cf55146104905780630b97bc86146104a857600080fd5b806301ffc9a7146103ca5780630373a23a146103f2578063078beae514610407575b600080fd5b6103dd6103d83660046131e8565b610985565b60405190151581526020015b60405180910390f35b6104056104003660046131a1565b6109bc565b005b6104586104153660046131a1565b610107602052600090815260409020805460018201546002830154600384015460048501546006909501546001600160a01b039094169492939192909160ff1686565b6040516103e9969594939291906133d0565b6104056104783660046131a1565b6109ce565b61040561048b366004612fd6565b610b2e565b61049a6101005481565b6040519081526020016103e9565b61049a6101055481565b6104c56104c0366004612d02565b610b80565b6040516103e99190613414565b6104f06104e0366004612d3a565b630a85bd0160e11b949350505050565b6040516001600160e01b031990911681526020016103e9565b61013e546103dd90600160a01b900460ff1681565b61049a61052c3660046131a1565b60009081526065602052604090206001015490565b61049a61054f36600461327d565b610bed565b6104056105623660046131b9565b610c7e565b61049a610575366004612df6565b610ca9565b61049a610588366004612d02565b6101046020526000908152604090205481565b6104056105a93660046131b9565b610cdb565b610405610d55565b610405610edc565b61049a6105cc3660046131a1565b61013f6020526000908152604090205481565b61049a6105ed3660046131a1565b6101096020526000908152604090205481565b61062a61060e3660046131a1565b600090815261010760205260409020546001600160a01b031690565b6040516001600160a01b0390911681526020016103e9565b610405610650366004612d02565b61112c565b6103dd610663366004612fd6565b61115c565b61068f6106763660046131a1565b6000908152610107602052604090206006015460ff1690565b6040516103e9919061344d565b6104056106aa3660046131a1565b6111cb565b6104056106bd366004612e62565b6111dd565b61049a6106d0366004612fd6565b6112f9565b6104056106e33660046130a4565b611347565b6104056106f6366004612fd6565b6113ec565b61049a60fd5481565b610405610712366004612e62565b61140b565b610405610725366004612d02565b611570565b610405610738366004612f25565b61159f565b60fb5461062a906001600160a01b031681565b60fc5461062a906001600160a01b031681565b6103dd6107713660046131b9565b6115ed565b6103dd6107843660046131a1565b6101036020526000908152604090205460ff1681565b61049a600081565b61049a6107b0366004612d02565b61010a6020526000908152604090205481565b6107d66107d13660046131a1565b611618565b6040516103e991906135ba565b6104056107f1366004612fd6565b61171a565b610405610804366004612e21565b61178c565b6104056108173660046131a1565b6118d1565b61040561082a366004612fd6565b6118e4565b61040561083d366004613169565b611d48565b610405610850366004612e62565b611d74565b61049a6108633660046131a1565b611e88565b6104056108763660046131a1565b611ea9565b610405610889366004613210565b611ebc565b61049a61089c366004612d02565b611ed5565b6108b46108af3660046131a1565b611efc565b60405160ff90911681526020016103e9565b61049a6108d43660046131a1565b611f65565b6104056108e73660046131b9565b612006565b61049a6101015481565b6104056109043660046131a1565b61202c565b61049a612326565b61049a6101025481565b6104056109293660046131a1565b612337565b6104c561093c3660046131a1565b61234a565b61013e5461062a906001600160a01b031681565b61095d6123ae565b6040516103e9919061343a565b61040561243d565b6103dd610980366004612fd6565b61245d565b60006001600160e01b03198216637965db0b60e01b14806109b657506301ffc9a760e01b6001600160e01b03198316145b92915050565b60006109c8813361253d565b5060fd55565b600260975414156109fa5760405162461bcd60e51b81526004016109f190613583565b60405180910390fd5b600260975560fb546040516331a9108f60e11b81526004810183905233916001600160a01b031690636352211e9060240160206040518083038186803b158015610a4357600080fd5b505afa158015610a57573d6000803e3d6000fd5b505050506040513d601f19601f82011682018060405250810190610a7b9190612d1e565b6001600160a01b031614610aa15760405162461bcd60e51b81526004016109f19061349f565b6000610aac82611f65565b600083815261013f60205260409081902042905560fc5490516340c10f1960e01b8152336004820152602481018390529192506001600160a01b0316906340c10f19906044015b600060405180830381600087803b158015610b0d57600080fd5b505af1158015610b21573d6000803e3d6000fd5b5050600160975550505050565b60005b8151811015610b7c57610b6a828281518110610b5d57634e487b7160e01b600052603260045260246000fd5b602002602001015161202c565b80610b74816137f2565b915050610b31565b5050565b6001600160a01b03811660009081526101086020908152604091829020805483518184028101840190945280845260609392830182828015610be157602002820191906000526020600020905b815481526020019060010190808311610bcd575b50505050509050919050565b60008115610c40576101005460ff610c06600186613740565b81548110610c2457634e487b7160e01b600052603260045260246000fd5b9060005260206000200154610c3991906136c4565b90506109b6565b60ff610c4d600185613740565b81548110610c6b57634e487b7160e01b600052603260045260246000fd5b9060005260206000200154905092915050565b600082815260656020526040902060010154610c9a813361253d565b610ca483836125a1565b505050565b6101086020528160005260406000208181548110610cc657600080fd5b90600052602060002001600091509150505481565b6001600160a01b0381163314610d4b5760405162461bcd60e51b815260206004820152602f60248201527f416363657373436f6e74726f6c3a2063616e206f6e6c792072656e6f756e636560448201526e103937b632b9903337b91039b2b63360891b60648201526084016109f1565b610b7c8282612627565b60026097541415610d785760405162461bcd60e51b81526004016109f190613583565b600260975533600090815261010a602052604090205480610e015760405162461bcd60e51b815260206004820152603b60248201527f53686f67756e5374616b696e673a205573657220646f6573206e6f742068617660448201527f6520426f6e75732053484f20546f6b656e7320746f20636c61696d000000000060648201526084016109f1565b33600081815261010a60205260408082209190915560fc54905163a9059cbb60e01b81526004810192909252602482018390526001600160a01b03169063a9059cbb90604401602060405180830381600087803b158015610e6157600080fd5b505af1158015610e75573d6000803e3d6000fd5b505050506040513d601f19601f82011682018060405250810190610e999190613185565b506040805182815242602082015233917f5ffd7ef804cd6362d3defa75e694e044ac287fcac1de8bbb9a21226d02397b83910160405180910390a2506001609755565b60026097541415610eff5760405162461bcd60e51b81526004016109f190613583565b600260975560fb5460405162438b6360e81b81523360048201526000916001600160a01b03169063438b63009060240160006040518083038186803b158015610f4757600080fd5b505afa158015610f5b573d6000803e3d6000fd5b505050506040513d6000823e601f3d908101601f19168201604052610f839190810190613011565b90506000805b82518110156110f45760fb54835133916001600160a01b031690636352211e90869085908110610fc957634e487b7160e01b600052603260045260246000fd5b60200260200101516040518263ffffffff1660e01b8152600401610fef91815260200190565b60206040518083038186803b15801561100757600080fd5b505afa15801561101b573d6000803e3d6000fd5b505050506040513d601f19601f8201168201806040525081019061103f9190612d1e565b6001600160a01b0316146110655760405162461bcd60e51b81526004016109f19061349f565b61109583828151811061108857634e487b7160e01b600052603260045260246000fd5b6020026020010151611f65565b61109f90836136c4565b91504261013f60008584815181106110c757634e487b7160e01b600052603260045260246000fd5b602002602001015181526020019081526020016000208190555080806110ec906137f2565b915050610f89565b5060fc546040516340c10f1960e01b8152336004820152602481018390526001600160a01b03909116906340c10f1990604401610af3565b6000611138813361253d565b5061013e80546001600160a01b0319166001600160a01b0392909216919091179055565b600160005b82518110156111c5576000610109600085848151811061119157634e487b7160e01b600052603260045260246000fd5b602002602001015181526020019081526020016000205411156111b357600091505b806111bd816137f2565b915050611161565b50919050565b60006111d7813361253d565b5060fe55565b60006111e9813361253d565b815183511461120a5760405162461bcd60e51b81526004016109f1906134e8565b60005b83518110156112f35760fc5484516001600160a01b03909116906340c10f199086908490811061124d57634e487b7160e01b600052603260045260246000fd5b602002602001015185848151811061127557634e487b7160e01b600052603260045260246000fd5b60200260200101516040518363ffffffff1660e01b81526004016112ae9291906001600160a01b03929092168252602082015260400190565b600060405180830381600087803b1580156112c857600080fd5b505af11580156112dc573d6000803e3d6000fd5b5050505080806112eb906137f2565b91505061120d565b50505050565b6000805b82518110156111c55761132983828151811061108857634e487b7160e01b600052603260045260246000fd5b61133390836136c4565b91508061133f816137f2565b9150506112fd565b6000611353813361253d565b60005b83518110156112f35782818151811061137f57634e487b7160e01b600052603260045260246000fd5b602002602001015161010360008684815181106113ac57634e487b7160e01b600052603260045260246000fd5b6020026020010151815260200190815260200160002060006101000a81548160ff02191690831515021790555080806113e4906137f2565b915050611356565b60006113f8813361253d565b8151610ca49060ff906020850190612b1a565b6000611417813361253d565b81518351146114385760405162461bcd60e51b81526004016109f1906134e8565b6000805b84518110156115055783818151811061146557634e487b7160e01b600052603260045260246000fd5b602002602001015161010a600087848151811061149257634e487b7160e01b600052603260045260246000fd5b60200260200101516001600160a01b03166001600160a01b03168152602001908152602001600020819055508381815181106114de57634e487b7160e01b600052603260045260246000fd5b6020026020010151826114f191906136c4565b9150806114fd816137f2565b91505061143c565b5060fc546040516340c10f1960e01b8152306004820152602481018390526001600160a01b03909116906340c10f1990604401600060405180830381600087803b15801561155257600080fd5b505af1158015611566573d6000803e3d6000fd5b5050505050505050565b600061157c813361253d565b5060fc80546001600160a01b0319166001600160a01b0392909216919091179055565b60005b8151811015610b7c576115db8282815181106115ce57634e487b7160e01b600052603260045260246000fd5b60200260200101516118e4565b806115e5816137f2565b9150506115a2565b60009182526065602090815260408084206001600160a01b0393909316845291905290205460ff1690565b611620612b65565b60008281526101076020908152604091829020825160e08101845281546001600160a01b0316815260018201548184015260028201548185015260038201546060820152600482015460808201526005820180548551818602810186019096528086529194929360a086019392908301828280156116bd57602002820191906000526020600020905b8154815260200190600101908083116116a9575b5050509183525050600682015460209091019060ff1660018111156116f257634e487b7160e01b600052602160045260246000fd5b600181111561171157634e487b7160e01b600052602160045260246000fd5b90525092915050565b6000611726813361253d565b60fb5460405163665adcfd60e01b81526001600160a01b039091169063665adcfd90611756908590600401613414565b600060405180830381600087803b15801561177057600080fd5b505af1158015611784573d6000803e3d6000fd5b505050505050565b600054610100900460ff166117a75760005460ff16156117ab565b303b155b61180e5760405162461bcd60e51b815260206004820152602e60248201527f496e697469616c697a61626c653a20636f6e747261637420697320616c72656160448201526d191e481a5b9a5d1a585b1a5e995960921b60648201526084016109f1565b600054610100900460ff16158015611830576000805461ffff19166101011790555b61183861268e565b6118406126b7565b61184b6000836126e6565b60fd83905560fb80546001600160a01b0319166001600160a01b038616179055604080516060810182526127108152612774602082015261283c9181019190915261189a9060ff906003612bc9565b5060c861010055600a61010155610320610102556201518060fe55426101055580156112f3576000805461ff001916905550505050565b60006118dd813361253d565b5061010155565b61013e54600160a01b900460ff1661190e5760405162461bcd60e51b81526004016109f19061345b565b6119178161115c565b6119895760405162461bcd60e51b815260206004820152603760248201527f53686f67756e5374616b696e673a204f6e65206f72204d6f72652073686f677560448201527f6e732061726520616c726561647920747261696e696e6700000000000000000060648201526084016109f1565b6119928161245d565b611a045760405162461bcd60e51b815260206004820152603860248201527f53686f67756e5374616b696e673a204f6e65206f72204d6f72652073686f677560448201527f6e7320617265206e6f74206f776e656420627920796f7521000000000000000060648201526084016109f1565b600381511115611a625760405162461bcd60e51b8152602060048201526024808201527f53686f67756e5374616b696e673a204d6178696d756d206f662033205353206f6044820152636e6c792160e01b60648201526084016109f1565b6000815111611ac25760405162461bcd60e51b815260206004820152602660248201527f53686f67756e5374616b696e673a204174206c6561737420312053532072657160448201526575697265642160d01b60648201526084016109f1565b611ad161010b80546001019055565b60fb546040516302b2de4960e21b81526001600160a01b0390911690630acb792490611b01908490600401613414565b600060405180830381600087803b158015611b1b57600080fd5b505af1158015611b2f573d6000803e3d6000fd5b5050505060005b8151811015611b955761010b546101096000848481518110611b6857634e487b7160e01b600052603260045260246000fd5b60200260200101518152602001908152602001600020819055508080611b8d906137f2565b915050611b36565b506000806000611ba4846126f0565b9093509150611bb284612881565b905060006040518060e00160405280336001600160a01b0316815260200142815260200185815260200184815260200183815260200186815260200160006001811115611c0f57634e487b7160e01b600052602160045260246000fd5b90529050806101076000611c2361010b5490565b81526020808201929092526040908101600020835181546001600160a01b0319166001600160a01b03909116178155838301516001820155908301516002820155606083015160038201556080830151600482015560a083015180519192611c9392600585019290910190612b1a565b5060c082015160068201805460ff191660018381811115611cc457634e487b7160e01b600052602160045260246000fd5b021790555050336000908152610108602052604090209050611ce661010b5490565b81546001810183556000928352602090922090910155337fba68dec919f1691408f54f9ad116b0c62f60dc6702ac8c6a67b166a8cd52d330611d2861010b5490565b8742604051611d399392919061362d565b60405180910390a25050505050565b6000611d54813361253d565b5061013e8054911515600160a01b0260ff60a01b19909216919091179055565b6000611d80813361253d565b8151835114611df05760405162461bcd60e51b815260206004820152603660248201527f53686f67756e5374616b696e673a2055736572206c656e67746820616e6420516044820152750eac2dce8d2e8f240c8decae640dcdee840dac2e8c6d60531b60648201526084016109f1565b60005b83518110156112f357828181518110611e1c57634e487b7160e01b600052603260045260246000fd5b60200260200101516101046000868481518110611e4957634e487b7160e01b600052603260045260246000fd5b60200260200101516001600160a01b03166001600160a01b03168152602001908152602001600020819055508080611e80906137f2565b915050611df3565b60ff8181548110611e9857600080fd5b600091825260209091200154905081565b6000611eb5813361253d565b5061010255565b6000611ec8813361253d565b6112f36101068484612c0a565b6001600160a01b03811660009081526101046020526040812054610101546109b6916128fe565b6000610106611f0c600184613740565b8154611f17906137bd565b8110611f3357634e487b7160e01b600052603260045260246000fd5b815460011615611f525790600052602060002090602091828204019190065b9054600160f81b911a0260f81c92915050565b600081815261013f602052604081205461010554811015611f865750610105545b6000838152610103602052604090205460ff16151560011415611fda5762015180611fb18242613740565b60fd54611fbf906002613721565b611fc99190613721565b611fd39190613701565b91506111c5565b62015180611fe88242613740565b60fd54611ff59190613721565b611fff9190613701565b9392505050565b600082815260656020526040902060010154612022813361253d565b610ca48383612627565b61013e54600160a01b900460ff166120565760405162461bcd60e51b81526004016109f19061345b565b600081815261010760205260409020546001600160a01b0316331480612087575061013e546001600160a01b031633145b6120e65760405162461bcd60e51b815260206004820152602a60248201527f53686f67756e5374616b696e673a204e6f7420746865206f776e6572206f66206044820152697468652066616d696c7960b01b60648201526084016109f1565b6000818152610107602052604081206006015460ff16600181111561211b57634e487b7160e01b600052602160045260246000fd5b146121765760405162461bcd60e51b815260206004820152602560248201527f53686f67756e5374616b696e673a20547261696e696e6720616c726561647920604482015264115b99195960da1b60648201526084016109f1565b61217f816109ce565b60fb546000828152610107602052604090819020905163665adcfd60e01b81526001600160a01b039092169163665adcfd916121c391600590910190600401613427565b600060405180830381600087803b1580156121dd57600080fd5b505af11580156121f1573d6000803e3d6000fd5b50505060008281526101076020908152604080832060068101805460ff1916600117905560050180548251818502810185019093528083529394509092909183018282801561225f57602002820191906000526020600020905b81548152602001906001019080831161224b575b5050505050905060005b81518110156122c6576000610109600084848151811061229957634e487b7160e01b600052603260045260246000fd5b602002602001015181526020019081526020016000208190555080806122be906137f2565b915050612269565b50336001600160a01b03167fe46c316e0026b6873715afa24fe53e01843fc6a22ecefc596077af4e9edd94cf8361010760008681526020019081526020016000206005014260405161231a93929190613656565b60405180910390a25050565b600061233261010b5490565b905090565b6000612343813361253d565b5061010055565b60008181526101076020908152604091829020600501805483518184028101840190945280845260609392830182828015610be15760200282019190600052602060002090815481526020019060010190808311610bcd5750505050509050919050565b61010680546123bc906137bd565b80601f01602080910402602001604051908101604052809291908181526020018280546123e8906137bd565b80156124355780601f1061240a57610100808354040283529160200191612435565b820191906000526020600020905b81548152906001019060200180831161241857829003601f168201915b505050505081565b6000612449813361253d565b5061013e80546001600160a01b0319169055565b600160005b82518110156111c55760fb54835133916001600160a01b031690636352211e908690859081106124a257634e487b7160e01b600052603260045260246000fd5b60200260200101516040518263ffffffff1660e01b81526004016124c891815260200190565b60206040518083038186803b1580156124e057600080fd5b505afa1580156124f4573d6000803e3d6000fd5b505050506040513d601f19601f820116820180604052508101906125189190612d1e565b6001600160a01b03161461252b57600091505b80612535816137f2565b915050612462565b61254782826115ed565b610b7c5761255f816001600160a01b0316601461290a565b61256a83602061290a565b60405160200161257b92919061335b565b60408051601f198184030181529082905262461bcd60e51b82526109f19160040161343a565b6125ab82826115ed565b610b7c5760008281526065602090815260408083206001600160a01b03851684529091529020805460ff191660011790556125e33390565b6001600160a01b0316816001600160a01b0316837f2f8788117e7eff1d82e926ec794901d17c78024a50270940304540a733656f0d60405160405180910390a45050565b61263182826115ed565b15610b7c5760008281526065602090815260408083206001600160a01b0385168085529252808320805460ff1916905551339285917ff6391f5c32d9c69d2a47ea670b442974b53935d1edc7fd64eb21e047a839171b9190a45050565b600054610100900460ff166126b55760405162461bcd60e51b81526004016109f190613538565b565b600054610100900460ff166126de5760405162461bcd60e51b81526004016109f190613538565b6126b5612aec565b610b7c82826125a1565b6040805161010081018252600080825260208201819052918101829052606081018290526080810182905260a0810182905260c0810182905260e0810182905281908180805b86518160ff1610156127ce57600184600161277a8a8560ff168151811061276d57634e487b7160e01b600052603260045260246000fd5b6020026020010151611efc565b6127849190613757565b60ff16600881106127a557634e487b7160e01b600052603260045260246000fd5b602002018181516127b691906136dc565b60ff16905250806127c68161380d565b915050612736565b5060005b60088160ff161015612850578260ff16848260ff166008811061280557634e487b7160e01b600052603260045260246000fd5b602002015160ff16111561283e57838160ff166008811061283657634e487b7160e01b600052603260045260246000fd5b602002015192505b806128488161380d565b9150506127d2565b508160ff1660031415612861575060015b61286c865182610bed565b945061287733611ed5565b9350505050915091565b6000805b82518110156111c55761010360008483815181106128b357634e487b7160e01b600052603260045260246000fd5b60209081029190910181015182528101919091526040016000205460ff161515600114156128ec57610102546128e990836136c4565b91505b806128f6816137f2565b915050612885565b6000611fff8284613721565b60606000612919836002613721565b6129249060026136c4565b67ffffffffffffffff81111561294a57634e487b7160e01b600052604160045260246000fd5b6040519080825280601f01601f191660200182016040528015612974576020820181803683370190505b509050600360fc1b8160008151811061299d57634e487b7160e01b600052603260045260246000fd5b60200101906001600160f81b031916908160001a905350600f60fb1b816001815181106129da57634e487b7160e01b600052603260045260246000fd5b60200101906001600160f81b031916908160001a90535060006129fe846002613721565b612a099060016136c4565b90505b6001811115612a9d576f181899199a1a9b1b9c1cb0b131b232b360811b85600f1660108110612a4b57634e487b7160e01b600052603260045260246000fd5b1a60f81b828281518110612a6f57634e487b7160e01b600052603260045260246000fd5b60200101906001600160f81b031916908160001a90535060049490941c93612a96816137a6565b9050612a0c565b508315611fff5760405162461bcd60e51b815260206004820181905260248201527f537472696e67733a20686578206c656e67746820696e73756666696369656e7460448201526064016109f1565b600054610100900460ff16612b135760405162461bcd60e51b81526004016109f190613538565b6001609755565b828054828255906000526020600020908101928215612b55579160200282015b82811115612b55578251825591602001919060010190612b3a565b50612b61929150612c7e565b5090565b6040518060e0016040528060006001600160a01b03168152602001600081526020016000815260200160008152602001600081526020016060815260200160006001811115612bc457634e487b7160e01b600052602160045260246000fd5b905290565b828054828255906000526020600020908101928215612b55579160200282015b82811115612b55578251829061ffff16905591602001919060010190612be9565b828054612c16906137bd565b90600052602060002090601f016020900481019282612c385760008555612b55565b82601f10612c515782800160ff19823516178555612b55565b82800160010185558215612b55579182015b82811115612b55578235825591602001919060010190612c63565b5b80821115612b615760008155600101612c7f565b600082601f830112612ca3578081fd5b81356020612cb8612cb3836136a0565b61366f565b80838252828201915082860187848660051b8901011115612cd7578586fd5b855b85811015612cf557813584529284019290840190600101612cd9565b5090979650505050505050565b600060208284031215612d13578081fd5b8135611fff81613859565b600060208284031215612d2f578081fd5b8151611fff81613859565b60008060008060808587031215612d4f578283fd5b8435612d5a81613859565b9350602085810135612d6b81613859565b935060408601359250606086013567ffffffffffffffff80821115612d8e578384fd5b818801915088601f830112612da1578384fd5b813581811115612db357612db3613843565b612dc5601f8201601f1916850161366f565b91508082528984828501011115612dda578485fd5b8084840185840137810190920192909252939692955090935050565b60008060408385031215612e08578182fd5b8235612e1381613859565b946020939093013593505050565b600080600060608486031215612e35578081fd5b8335612e4081613859565b9250602084013591506040840135612e5781613859565b809150509250925092565b60008060408385031215612e74578182fd5b823567ffffffffffffffff80821115612e8b578384fd5b818501915085601f830112612e9e578384fd5b81356020612eae612cb3836136a0565b8083825282820191508286018a848660051b8901011115612ecd578889fd5b8896505b84871015612ef8578035612ee481613859565b835260019690960195918301918301612ed1565b5096505086013592505080821115612f0e578283fd5b50612f1b85828601612c93565b9150509250929050565b60006020808385031215612f37578182fd5b823567ffffffffffffffff80821115612f4e578384fd5b818501915085601f830112612f61578384fd5b8135612f6f612cb3826136a0565b80828252858201915085850189878560051b8801011115612f8e578788fd5b875b84811015612fc757813586811115612fa657898afd5b612fb48c8a838b0101612c93565b8552509287019290870190600101612f90565b50909998505050505050505050565b600060208284031215612fe7578081fd5b813567ffffffffffffffff811115612ffd578182fd5b61300984828501612c93565b949350505050565b60006020808385031215613023578182fd5b825167ffffffffffffffff811115613039578283fd5b8301601f81018513613049578283fd5b8051613057612cb3826136a0565b80828252848201915084840188868560051b8701011115613076578687fd5b8694505b8385101561309857805183526001949094019391850191850161307a565b50979650505050505050565b600080604083850312156130b6578182fd5b823567ffffffffffffffff808211156130cd578384fd5b6130d986838701612c93565b93506020915081850135818111156130ef578384fd5b85019050601f81018613613101578283fd5b803561310f612cb3826136a0565b80828252848201915084840189868560051b870101111561312e578687fd5b8694505b8385101561315957803561314581613871565b835260019490940193918501918501613132565b5080955050505050509250929050565b60006020828403121561317a578081fd5b8135611fff81613871565b600060208284031215613196578081fd5b8151611fff81613871565b6000602082840312156131b2578081fd5b5035919050565b600080604083850312156131cb578182fd5b8235915060208301356131dd81613859565b809150509250929050565b6000602082840312156131f9578081fd5b81356001600160e01b031981168114611fff578182fd5b60008060208385031215613222578182fd5b823567ffffffffffffffff80821115613239578384fd5b818501915085601f83011261324c578384fd5b81358181111561325a578485fd5b86602082850101111561326b578485fd5b60209290920196919550909350505050565b6000806040838503121561328f578182fd5b8235915060208301356131dd81613871565b6000815180845260208085019450808401835b838110156132d0578151875295820195908201906001016132b4565b509495945050505050565b6000815480845260208085019450838352808320835b838110156132d0578154875295820195600191820191016132f1565b6000815180845261332581602086016020860161377a565b601f01601f19169290920160200192915050565b6002811061335757634e487b7160e01b600052602160045260246000fd5b9052565b7f416363657373436f6e74726f6c3a206163636f756e742000000000000000000081526000835161339381601785016020880161377a565b7001034b99036b4b9b9b4b733903937b6329607d1b60179184019182015283516133c481602884016020880161377a565b01602801949350505050565b6001600160a01b03871681526020810186905260408101859052606081018490526080810183905260c0810161340960a0830184613339565b979650505050505050565b602081526000611fff60208301846132a1565b602081526000611fff60208301846132db565b602081526000611fff602083018461330d565b602081016109b68284613339565b60208082526024908201527f53686f67756e5374616b696e673a20547261696e696e672069732064697361626040820152636c65642160e01b606082015260800190565b60208082526029908201527f53686f67756e5374616b696e673a20436c61696d616e74206973206e6f7420746040820152686865206f776e65722160b81b606082015260800190565b60208082526030908201527f53686f67756e5374616b696e673a20546f20616e6420616d6f756e74206c656e60408201526f677468206e6f74206d61746368696e6760801b606082015260800190565b6020808252602b908201527f496e697469616c697a61626c653a20636f6e7472616374206973206e6f74206960408201526a6e697469616c697a696e6760a81b606082015260800190565b6020808252601f908201527f5265656e7472616e637947756172643a207265656e7472616e742063616c6c00604082015260600190565b6020815260018060a01b038251166020820152602082015160408201526040820151606082015260608201516080820152608082015160a0820152600060a083015160e060c08401526136116101008401826132a1565b905060c084015161362560e0850182613339565b509392505050565b83815260606020820152600061364660608301856132a1565b9050826040830152949350505050565b83815260606020820152600061364660608301856132db565b604051601f8201601f1916810167ffffffffffffffff8111828210171561369857613698613843565b604052919050565b600067ffffffffffffffff8211156136ba576136ba613843565b5060051b60200190565b600082198211156136d7576136d761382d565b500190565b600060ff821660ff84168060ff038211156136f9576136f961382d565b019392505050565b60008261371c57634e487b7160e01b81526012600452602481fd5b500490565b600081600019048311821515161561373b5761373b61382d565b500290565b6000828210156137525761375261382d565b500390565b600060ff821660ff8416808210156137715761377161382d565b90039392505050565b60005b8381101561379557818101518382015260200161377d565b838111156112f35750506000910152565b6000816137b5576137b561382d565b506000190190565b600181811c908216806137d157607f821691505b602082108114156111c557634e487b7160e01b600052602260045260246000fd5b60006000198214156138065761380661382d565b5060010190565b600060ff821660ff8114156138245761382461382d565b60010192915050565b634e487b7160e01b600052601160045260246000fd5b634e487b7160e01b600052604160045260246000fd5b6001600160a01b038116811461386e57600080fd5b50565b801515811461386e57600080fdfea26469706673582212200076d0415b6db43b28258ff1b46437d7c8ad661e7aacb67fc44800d41b3e9bfa64736f6c63430008040033",
  "devdoc": {
    "kind": "dev",
    "methods": {
      "airdrop(address[],uint256[])": {
        "details": "Airdrop SHO Tokens out of contract"
      },
      "areAvailiable(uint256[])": {
        "details": "Determines if the tokenIds are availiable for training"
      },
      "areOwned(uint256[])": {
        "details": "Determines if the all tokenIds are owned by msg sneder"
      },
      "calculateRewards(uint256)": {
        "details": "Caluclate rewards for given Family Id"
      },
      "claimBonusSHO()": {
        "details": "Lets user claim bonus SHO"
      },
      "claimRewards(uint256)": {
        "details": "Claim SHO reward for given family Id"
      },
      "endMultipleTraining(uint256[])": {
        "details": "Claim tokens and leave train"
      },
      "endTraining(uint256)": {
        "details": "Claim tokens and leave train"
      },
      "getCountMultiplier(uint256,bool)": {
        "details": "Retrieves Count multiplier"
      },
      "getRoleAdmin(bytes32)": {
        "details": "Returns the admin role that controls `role`. See {grantRole} and {revokeRole}. To change a role's admin, use {_setRoleAdmin}."
      },
      "getTotalMedallionMultiplier(address)": {
        "details": "Retrieves Rare multiplier"
      },
      "grantRole(bytes32,address)": {
        "details": "Grants `role` to `account`. If `account` had not been already granted `role`, emits a {RoleGranted} event. Requirements: - the caller must have ``role``'s admin role."
      },
      "hasRole(bytes32,address)": {
        "details": "Returns `true` if `account` has been granted `role`."
      },
      "onERC721Received(address,address,uint256,bytes)": {
        "details": "See {IERC721Receiver-onERC721Received}. Always returns `IERC721Receiver.onERC721Received.selector`."
      },
      "renounceRole(bytes32,address)": {
        "details": "Revokes `role` from the calling account. Roles are often managed via {grantRole} and {revokeRole}: this function's purpose is to provide a mechanism for accounts to lose their privileges if they are compromised (such as when a trusted device is misplaced). If the calling account had been revoked `role`, emits a {RoleRevoked} event. Requirements: - the caller must be `account`."
      },
      "revokeRole(bytes32,address)": {
        "details": "Revokes `role` from `account`. If `account` had been granted `role`, emits a {RoleRevoked} event. Requirements: - the caller must have ``role``'s admin role."
      },
      "setBonusSHO(address[],uint256[])": {
        "details": "Set bonus SHO Tokens to be claimed"
      },
      "startTraining(uint256[])": {
        "details": "Start train"
      },
      "startTrainingMultiple(uint256[][])": {
        "details": "Start Multiple Training Sessions"
      },
      "supportsInterface(bytes4)": {
        "details": "See {IERC165-supportsInterface}."
      },
      "updateGuilds(bytes)": {
        "details": "Storing Guild Metadata as 1 byte hexes on a byte for gas optimization"
      }
    },
    "version": 1
  },
  "userdoc": {
    "kind": "user",
    "methods": {
      "endMultipleTraining(uint256[])": {
        "notice": "End train for SSs. You will stop acumulating SHO."
      },
      "endTraining(uint256)": {
        "notice": "End train for SSs. You will stop acumulating SHO."
      },
      "startTraining(uint256[])": {
        "notice": "Sends SSs (max. 5) on a train, SSs of the same Guild and if rare will get a bonus multiplier!"
      }
    },
    "version": 1
  },
  "storageLayout": {
    "storage": [
      {
        "astId": 408,
        "contract": "contracts/ShogunStakingV2.sol:ShogunStakingV2",
        "label": "_initialized",
        "offset": 0,
        "slot": "0",
        "type": "t_bool"
      },
      {
        "astId": 411,
        "contract": "contracts/ShogunStakingV2.sol:ShogunStakingV2",
        "label": "_initializing",
        "offset": 1,
        "slot": "0",
        "type": "t_bool"
      },
      {
        "astId": 883,
        "contract": "contracts/ShogunStakingV2.sol:ShogunStakingV2",
        "label": "__gap",
        "offset": 0,
        "slot": "1",
        "type": "t_array(t_uint256)50_storage"
      },
      {
        "astId": 1204,
        "contract": "contracts/ShogunStakingV2.sol:ShogunStakingV2",
        "label": "__gap",
        "offset": 0,
        "slot": "51",
        "type": "t_array(t_uint256)50_storage"
      },
      {
        "astId": 39,
        "contract": "contracts/ShogunStakingV2.sol:ShogunStakingV2",
        "label": "_roles",
        "offset": 0,
        "slot": "101",
        "type": "t_mapping(t_bytes32,t_struct(RoleData)34_storage)"
      },
      {
        "astId": 327,
        "contract": "contracts/ShogunStakingV2.sol:ShogunStakingV2",
        "label": "__gap",
        "offset": 0,
        "slot": "102",
        "type": "t_array(t_uint256)49_storage"
      },
      {
        "astId": 489,
        "contract": "contracts/ShogunStakingV2.sol:ShogunStakingV2",
        "label": "_status",
        "offset": 0,
        "slot": "151",
        "type": "t_uint256"
      },
      {
        "astId": 533,
        "contract": "contracts/ShogunStakingV2.sol:ShogunStakingV2",
        "label": "__gap",
        "offset": 0,
        "slot": "152",
        "type": "t_array(t_uint256)49_storage"
      },
      {
        "astId": 598,
        "contract": "contracts/ShogunStakingV2.sol:ShogunStakingV2",
        "label": "__gap",
        "offset": 0,
        "slot": "201",
        "type": "t_array(t_uint256)50_storage"
      },
      {
        "astId": 8570,
        "contract": "contracts/ShogunStakingV2.sol:ShogunStakingV2",
        "label": "SS",
        "offset": 0,
        "slot": "251",
        "type": "t_contract(IShogunNFT)10033"
      },
      {
        "astId": 8573,
        "contract": "contracts/ShogunStakingV2.sol:ShogunStakingV2",
        "label": "SHO",
        "offset": 0,
        "slot": "252",
        "type": "t_contract(IShogunToken)10079"
      },
      {
        "astId": 8575,
        "contract": "contracts/ShogunStakingV2.sol:ShogunStakingV2",
        "label": "baseReward",
        "offset": 0,
        "slot": "253",
        "type": "t_uint256"
      },
      {
        "astId": 8577,
        "contract": "contracts/ShogunStakingV2.sol:ShogunStakingV2",
        "label": "timescale",
        "offset": 0,
        "slot": "254",
        "type": "t_uint256"
      },
      {
        "astId": 8580,
        "contract": "contracts/ShogunStakingV2.sol:ShogunStakingV2",
        "label": "countMultipliers",
        "offset": 0,
        "slot": "255",
        "type": "t_array(t_uint256)dyn_storage"
      },
      {
        "astId": 8582,
        "contract": "contracts/ShogunStakingV2.sol:ShogunStakingV2",
        "label": "guildMultiplier",
        "offset": 0,
        "slot": "256",
        "type": "t_uint256"
      },
      {
        "astId": 8584,
        "contract": "contracts/ShogunStakingV2.sol:ShogunStakingV2",
        "label": "medallionMultiplier",
        "offset": 0,
        "slot": "257",
        "type": "t_uint256"
      },
      {
        "astId": 8586,
        "contract": "contracts/ShogunStakingV2.sol:ShogunStakingV2",
        "label": "shogunBonus",
        "offset": 0,
        "slot": "258",
        "type": "t_uint256"
      },
      {
        "astId": 8590,
        "contract": "contracts/ShogunStakingV2.sol:ShogunStakingV2",
        "label": "isLegendarySamurai",
        "offset": 0,
        "slot": "259",
        "type": "t_mapping(t_uint256,t_bool)"
      },
      {
        "astId": 8594,
        "contract": "contracts/ShogunStakingV2.sol:ShogunStakingV2",
        "label": "medallionCount",
        "offset": 0,
        "slot": "260",
        "type": "t_mapping(t_address,t_uint256)"
      },
      {
        "astId": 8596,
        "contract": "contracts/ShogunStakingV2.sol:ShogunStakingV2",
        "label": "startDate",
        "offset": 0,
        "slot": "261",
        "type": "t_uint256"
      },
      {
        "astId": 8598,
        "contract": "contracts/ShogunStakingV2.sol:ShogunStakingV2",
        "label": "guilds",
        "offset": 0,
        "slot": "262",
        "type": "t_bytes_storage"
      },
      {
        "astId": 8603,
        "contract": "contracts/ShogunStakingV2.sol:ShogunStakingV2",
        "label": "families",
        "offset": 0,
        "slot": "263",
        "type": "t_mapping(t_uint256,t_struct(Family)8547_storage)"
      },
      {
        "astId": 8608,
        "contract": "contracts/ShogunStakingV2.sol:ShogunStakingV2",
        "label": "userFamilies",
        "offset": 0,
        "slot": "264",
        "type": "t_mapping(t_address,t_array(t_uint256)dyn_storage)"
      },
      {
        "astId": 8612,
        "contract": "contracts/ShogunStakingV2.sol:ShogunStakingV2",
        "label": "onTraining",
        "offset": 0,
        "slot": "265",
        "type": "t_mapping(t_uint256,t_uint256)"
      },
      {
        "astId": 8616,
        "contract": "contracts/ShogunStakingV2.sol:ShogunStakingV2",
        "label": "bonusSHO",
        "offset": 0,
        "slot": "266",
        "type": "t_mapping(t_address,t_uint256)"
      },
      {
        "astId": 8619,
        "contract": "contracts/ShogunStakingV2.sol:ShogunStakingV2",
        "label": "_familyId",
        "offset": 0,
        "slot": "267",
        "type": "t_struct(Counter)890_storage"
      },
      {
        "astId": 8623,
        "contract": "contracts/ShogunStakingV2.sol:ShogunStakingV2",
        "label": "______gap",
        "offset": 0,
        "slot": "268",
        "type": "t_array(t_uint256)50_storage"
      },
      {
        "astId": 8625,
        "contract": "contracts/ShogunStakingV2.sol:ShogunStakingV2",
        "label": "unstaker",
        "offset": 0,
        "slot": "318",
        "type": "t_address"
      },
      {
        "astId": 8627,
        "contract": "contracts/ShogunStakingV2.sol:ShogunStakingV2",
        "label": "trainingEnabled",
        "offset": 20,
        "slot": "318",
        "type": "t_bool"
      },
      {
        "astId": 8631,
        "contract": "contracts/ShogunStakingV2.sol:ShogunStakingV2",
        "label": "lastClaim",
        "offset": 0,
        "slot": "319",
        "type": "t_mapping(t_uint256,t_uint256)"
      }
    ],
    "types": {
      "t_address": {
        "encoding": "inplace",
        "label": "address",
        "numberOfBytes": "20"
      },
      "t_array(t_uint256)49_storage": {
        "base": "t_uint256",
        "encoding": "inplace",
        "label": "uint256[49]",
        "numberOfBytes": "1568"
      },
      "t_array(t_uint256)50_storage": {
        "base": "t_uint256",
        "encoding": "inplace",
        "label": "uint256[50]",
        "numberOfBytes": "1600"
      },
      "t_array(t_uint256)dyn_storage": {
        "base": "t_uint256",
        "encoding": "dynamic_array",
        "label": "uint256[]",
        "numberOfBytes": "32"
      },
      "t_bool": {
        "encoding": "inplace",
        "label": "bool",
        "numberOfBytes": "1"
      },
      "t_bytes32": {
        "encoding": "inplace",
        "label": "bytes32",
        "numberOfBytes": "32"
      },
      "t_bytes_storage": {
        "encoding": "bytes",
        "label": "bytes",
        "numberOfBytes": "32"
      },
      "t_contract(IShogunNFT)10033": {
        "encoding": "inplace",
        "label": "contract IShogunNFT",
        "numberOfBytes": "20"
      },
      "t_contract(IShogunToken)10079": {
        "encoding": "inplace",
        "label": "contract IShogunToken",
        "numberOfBytes": "20"
      },
      "t_enum(TrainState)8567": {
        "encoding": "inplace",
        "label": "enum ShogunStakingV2.TrainState",
        "numberOfBytes": "1"
      },
      "t_mapping(t_address,t_array(t_uint256)dyn_storage)": {
        "encoding": "mapping",
        "key": "t_address",
        "label": "mapping(address => uint256[])",
        "numberOfBytes": "32",
        "value": "t_array(t_uint256)dyn_storage"
      },
      "t_mapping(t_address,t_bool)": {
        "encoding": "mapping",
        "key": "t_address",
        "label": "mapping(address => bool)",
        "numberOfBytes": "32",
        "value": "t_bool"
      },
      "t_mapping(t_address,t_uint256)": {
        "encoding": "mapping",
        "key": "t_address",
        "label": "mapping(address => uint256)",
        "numberOfBytes": "32",
        "value": "t_uint256"
      },
      "t_mapping(t_bytes32,t_struct(RoleData)34_storage)": {
        "encoding": "mapping",
        "key": "t_bytes32",
        "label": "mapping(bytes32 => struct AccessControlUpgradeable.RoleData)",
        "numberOfBytes": "32",
        "value": "t_struct(RoleData)34_storage"
      },
      "t_mapping(t_uint256,t_bool)": {
        "encoding": "mapping",
        "key": "t_uint256",
        "label": "mapping(uint256 => bool)",
        "numberOfBytes": "32",
        "value": "t_bool"
      },
      "t_mapping(t_uint256,t_struct(Family)8547_storage)": {
        "encoding": "mapping",
        "key": "t_uint256",
        "label": "mapping(uint256 => struct ShogunStakingV2.Family)",
        "numberOfBytes": "32",
        "value": "t_struct(Family)8547_storage"
      },
      "t_mapping(t_uint256,t_uint256)": {
        "encoding": "mapping",
        "key": "t_uint256",
        "label": "mapping(uint256 => uint256)",
        "numberOfBytes": "32",
        "value": "t_uint256"
      },
      "t_struct(Counter)890_storage": {
        "encoding": "inplace",
        "label": "struct CountersUpgradeable.Counter",
        "members": [
          {
            "astId": 889,
            "contract": "contracts/ShogunStakingV2.sol:ShogunStakingV2",
            "label": "_value",
            "offset": 0,
            "slot": "0",
            "type": "t_uint256"
          }
        ],
        "numberOfBytes": "32"
      },
      "t_struct(Family)8547_storage": {
        "encoding": "inplace",
        "label": "struct ShogunStakingV2.Family",
        "members": [
          {
            "astId": 8532,
            "contract": "contracts/ShogunStakingV2.sol:ShogunStakingV2",
            "label": "familyOwner",
            "offset": 0,
            "slot": "0",
            "type": "t_address"
          },
          {
            "astId": 8534,
            "contract": "contracts/ShogunStakingV2.sol:ShogunStakingV2",
            "label": "lastClaim",
            "offset": 0,
            "slot": "1",
            "type": "t_uint256"
          },
          {
            "astId": 8536,
            "contract": "contracts/ShogunStakingV2.sol:ShogunStakingV2",
            "label": "guildMultiplier",
            "offset": 0,
            "slot": "2",
            "type": "t_uint256"
          },
          {
            "astId": 8538,
            "contract": "contracts/ShogunStakingV2.sol:ShogunStakingV2",
            "label": "medallionMultiplier",
            "offset": 0,
            "slot": "3",
            "type": "t_uint256"
          },
          {
            "astId": 8540,
            "contract": "contracts/ShogunStakingV2.sol:ShogunStakingV2",
            "label": "shogunBonus",
            "offset": 0,
            "slot": "4",
            "type": "t_uint256"
          },
          {
            "astId": 8543,
            "contract": "contracts/ShogunStakingV2.sol:ShogunStakingV2",
            "label": "shogunIds",
            "offset": 0,
            "slot": "5",
            "type": "t_array(t_uint256)dyn_storage"
          },
          {
            "astId": 8546,
            "contract": "contracts/ShogunStakingV2.sol:ShogunStakingV2",
            "label": "trainState",
            "offset": 0,
            "slot": "6",
            "type": "t_enum(TrainState)8567"
          }
        ],
        "numberOfBytes": "224"
      },
      "t_struct(RoleData)34_storage": {
        "encoding": "inplace",
        "label": "struct AccessControlUpgradeable.RoleData",
        "members": [
          {
            "astId": 31,
            "contract": "contracts/ShogunStakingV2.sol:ShogunStakingV2",
            "label": "members",
            "offset": 0,
            "slot": "0",
            "type": "t_mapping(t_address,t_bool)"
          },
          {
            "astId": 33,
            "contract": "contracts/ShogunStakingV2.sol:ShogunStakingV2",
            "label": "adminRole",
            "offset": 0,
            "slot": "1",
            "type": "t_bytes32"
          }
        ],
        "numberOfBytes": "64"
      },
      "t_uint256": {
        "encoding": "inplace",
        "label": "uint256",
        "numberOfBytes": "32"
      }
    }
  }
}