{
  "address": "0x1B01bdb6038c020Da1ca5ea26362876662866441",
  "abi": [
    {
      "anonymous": false,
      "inputs": [
        {
          "indexed": false,
          "internalType": "uint256[]",
          "name": "tokenIds",
          "type": "uint256[]"
        },
        {
          "indexed": false,
          "internalType": "uint256",
          "name": "amount",
          "type": "uint256"
        }
      ],
      "name": "Claim",
      "type": "event"
    },
    {
      "anonymous": false,
      "inputs": [
        {
          "indexed": true,
          "internalType": "bytes32",
          "name": "role",
          "type": "bytes32"
        },
        {
          "indexed": true,
          "internalType": "bytes32",
          "name": "previousAdminRole",
          "type": "bytes32"
        },
        {
          "indexed": true,
          "internalType": "bytes32",
          "name": "newAdminRole",
          "type": "bytes32"
        }
      ],
      "name": "RoleAdminChanged",
      "type": "event"
    },
    {
      "anonymous": false,
      "inputs": [
        {
          "indexed": true,
          "internalType": "bytes32",
          "name": "role",
          "type": "bytes32"
        },
        {
          "indexed": true,
          "internalType": "address",
          "name": "account",
          "type": "address"
        },
        {
          "indexed": true,
          "internalType": "address",
          "name": "sender",
          "type": "address"
        }
      ],
      "name": "RoleGranted",
      "type": "event"
    },
    {
      "anonymous": false,
      "inputs": [
        {
          "indexed": true,
          "internalType": "bytes32",
          "name": "role",
          "type": "bytes32"
        },
        {
          "indexed": true,
          "internalType": "address",
          "name": "account",
          "type": "address"
        },
        {
          "indexed": true,
          "internalType": "address",
          "name": "sender",
          "type": "address"
        }
      ],
      "name": "RoleRevoked",
      "type": "event"
    },
    {
      "anonymous": false,
      "inputs": [
        {
          "indexed": false,
          "internalType": "bytes32",
          "name": "requestId",
          "type": "bytes32"
        },
        {
          "indexed": true,
          "internalType": "address",
          "name": "owner",
          "type": "address"
        },
        {
          "indexed": false,
          "internalType": "uint256[]",
          "name": "tokenIds",
          "type": "uint256[]"
        }
      ],
      "name": "SubmitRequest",
      "type": "event"
    },
    {
      "inputs": [],
      "name": "DEFAULT_ADMIN_ROLE",
      "outputs": [
        {
          "internalType": "bytes32",
          "name": "",
          "type": "bytes32"
        }
      ],
      "stateMutability": "view",
      "type": "function"
    },
    {
      "inputs": [],
      "name": "SHO",
      "outputs": [
        {
          "internalType": "contract IShogunToken",
          "name": "",
          "type": "address"
        }
      ],
      "stateMutability": "view",
      "type": "function"
    },
    {
      "inputs": [
        {
          "internalType": "address",
          "name": "_admin",
          "type": "address"
        },
        {
          "internalType": "address",
          "name": "_SHO",
          "type": "address"
        }
      ],
      "name": "__ShogunStakingPolygon_init",
      "outputs": [],
      "stateMutability": "nonpayable",
      "type": "function"
    },
    {
      "inputs": [
        {
          "internalType": "uint256[]",
          "name": "tokenIds",
          "type": "uint256[]"
        }
      ],
      "name": "calculateRewards",
      "outputs": [
        {
          "internalType": "uint256",
          "name": "rewardAmount",
          "type": "uint256"
        }
      ],
      "stateMutability": "view",
      "type": "function"
    },
    {
      "inputs": [
        {
          "internalType": "uint256[]",
          "name": "_tokenIds",
          "type": "uint256[]"
        }
      ],
      "name": "claimRewards",
      "outputs": [],
      "stateMutability": "nonpayable",
      "type": "function"
    },
    {
      "inputs": [
        {
          "internalType": "uint256",
          "name": "",
          "type": "uint256"
        }
      ],
      "name": "claimedTimes",
      "outputs": [
        {
          "internalType": "uint256",
          "name": "",
          "type": "uint256"
        }
      ],
      "stateMutability": "view",
      "type": "function"
    },
    {
      "inputs": [
        {
          "internalType": "bytes32",
          "name": "_requestId",
          "type": "bytes32"
        }
      ],
      "name": "confirmRequest",
      "outputs": [],
      "stateMutability": "nonpayable",
      "type": "function"
    },
    {
      "inputs": [
        {
          "internalType": "bytes32",
          "name": "role",
          "type": "bytes32"
        }
      ],
      "name": "getRoleAdmin",
      "outputs": [
        {
          "internalType": "bytes32",
          "name": "",
          "type": "bytes32"
        }
      ],
      "stateMutability": "view",
      "type": "function"
    },
    {
      "inputs": [
        {
          "internalType": "bytes32",
          "name": "role",
          "type": "bytes32"
        },
        {
          "internalType": "address",
          "name": "account",
          "type": "address"
        }
      ],
      "name": "grantRole",
      "outputs": [],
      "stateMutability": "nonpayable",
      "type": "function"
    },
    {
      "inputs": [
        {
          "internalType": "bytes32",
          "name": "role",
          "type": "bytes32"
        },
        {
          "internalType": "address",
          "name": "account",
          "type": "address"
        }
      ],
      "name": "hasRole",
      "outputs": [
        {
          "internalType": "bool",
          "name": "",
          "type": "bool"
        }
      ],
      "stateMutability": "view",
      "type": "function"
    },
    {
      "inputs": [
        {
          "internalType": "address",
          "name": "",
          "type": "address"
        }
      ],
      "name": "nonces",
      "outputs": [
        {
          "internalType": "uint256",
          "name": "",
          "type": "uint256"
        }
      ],
      "stateMutability": "view",
      "type": "function"
    },
    {
      "inputs": [
        {
          "internalType": "bytes32",
          "name": "role",
          "type": "bytes32"
        },
        {
          "internalType": "address",
          "name": "account",
          "type": "address"
        }
      ],
      "name": "renounceRole",
      "outputs": [],
      "stateMutability": "nonpayable",
      "type": "function"
    },
    {
      "inputs": [
        {
          "internalType": "bytes32",
          "name": "",
          "type": "bytes32"
        }
      ],
      "name": "requests",
      "outputs": [
        {
          "internalType": "address",
          "name": "staker",
          "type": "address"
        }
      ],
      "stateMutability": "view",
      "type": "function"
    },
    {
      "inputs": [
        {
          "internalType": "bytes32",
          "name": "role",
          "type": "bytes32"
        },
        {
          "internalType": "address",
          "name": "account",
          "type": "address"
        }
      ],
      "name": "revokeRole",
      "outputs": [],
      "stateMutability": "nonpayable",
      "type": "function"
    },
    {
      "inputs": [
        {
          "internalType": "address",
          "name": "_sho",
          "type": "address"
        }
      ],
      "name": "setSHOToken",
      "outputs": [],
      "stateMutability": "nonpayable",
      "type": "function"
    },
    {
      "inputs": [],
      "name": "startDate",
      "outputs": [
        {
          "internalType": "uint256",
          "name": "",
          "type": "uint256"
        }
      ],
      "stateMutability": "view",
      "type": "function"
    },
    {
      "inputs": [
        {
          "internalType": "bytes4",
          "name": "interfaceId",
          "type": "bytes4"
        }
      ],
      "name": "supportsInterface",
      "outputs": [
        {
          "internalType": "bool",
          "name": "",
          "type": "bool"
        }
      ],
      "stateMutability": "view",
      "type": "function"
    }
  ],
  "transactionHash": "0xc5eaa15495cc53e7ffadfba439463aca599960d00322eaa40e91e6a62b14d56a",
  "args": [],
  "numDeployments": 1,
  "solcInputHash": "1535d84a569ed602e4a174a24f01be01",
  "bytecode": "0x608060405234801561001057600080fd5b506114a0806100206000396000f3fe608060405234801561001057600080fd5b506004361061010b5760003560e01c80637ecebe00116100a2578063977232a011610071578063977232a0146102445780639cb51136146102645780639d86698514610277578063a217fddf146102a0578063d547741f146102a857600080fd5b80637ecebe00146101d35780637f04dd61146101f3578063904bc92e1461020657806391d148541461023157600080fd5b80632c074f4e116100de5780632c074f4e146101875780632f2ff15d1461019a57806336568abe146101ad5780635eac6239146101c057600080fd5b806301ffc9a7146101105780630b97bc8614610138578063110ee63e1461014f578063248a9ca314610164575b600080fd5b61012361011e366004611171565b6102bb565b60405190151581526020015b60405180910390f35b61014160ca5481565b60405190815260200161012f565b61016261015d366004611137565b6102f2565b005b610141610172366004611137565b60009081526065602052604090206001015490565b610162610195366004611025565b6104d8565b6101626101a836600461114f565b6105cd565b6101626101bb36600461114f565b6105f3565b6101626101ce366004611057565b610671565b6101416101e136600461100b565b60cd6020526000908152604090205481565b61016261020136600461100b565b6106dc565b60c954610219906001600160a01b031681565b6040516001600160a01b03909116815260200161012f565b61012361023f36600461114f565b61070b565b610141610252366004611137565b60cb6020526000908152604090205481565b610141610272366004611057565b610736565b610219610285366004611137565b60cc602052600090815260409020546001600160a01b031681565b610141600081565b6101626102b636600461114f565b610797565b60006001600160e01b03198216637965db0b60e01b14806102ec57506301ffc9a760e01b6001600160e01b03198316145b92915050565b60006102fe81336107bd565b600260975414156103565760405162461bcd60e51b815260206004820152601f60248201527f5265656e7472616e637947756172643a207265656e7472616e742063616c6c0060448201526064015b60405180910390fd5b6002609755600082815260cc602090815260408083208151808301835281546001600160a01b0316815260018201805484518187028101870190955280855291949293858401939092908301828280156103cf57602002820191906000526020600020905b8154815260200190600101908083116103bb575b50505091909252505050602081015190915060006103ec82610736565b835160c954919250610408916001600160a01b03169083610821565b60005b8251811015610466574260cb600085848151811061043957634e487b7160e01b600052603260045260246000fd5b6020026020010151815260200190815260200160002081905550808061045e90611423565b91505061040b565b50600085815260cc6020526040812080546001600160a01b0319168155906104916001830182610f6e565b50507fa16c2ba4743eff706b7adbcebb0fe17e3ff934ac5784fae3ff85921f6d2a704482826040516104c49291906112b5565b60405180910390a150506001609755505050565b600054610100900460ff166104f35760005460ff16156104f7565b303b155b61055a5760405162461bcd60e51b815260206004820152602e60248201527f496e697469616c697a61626c653a20636f6e747261637420697320616c72656160448201526d191e481a5b9a5d1a585b1a5e995960921b606482015260840161034d565b600054610100900460ff1615801561057c576000805461ffff19166101011790555b610584610873565b61058c61089c565b6105976000846108cb565b60c980546001600160a01b0319166001600160a01b0384161790554260ca5580156105c8576000805461ff00191690555b505050565b6000828152606560205260409020600101546105e981336107bd565b6105c883836108d1565b6001600160a01b03811633146106635760405162461bcd60e51b815260206004820152602f60248201527f416363657373436f6e74726f6c3a2063616e206f6e6c792072656e6f756e636560448201526e103937b632b9903337b91039b2b63360891b606482015260840161034d565b61066d8282610957565b5050565b600260975414156106c45760405162461bcd60e51b815260206004820152601f60248201527f5265656e7472616e637947756172643a207265656e7472616e742063616c6c00604482015260640161034d565b60026097556106d381336109be565b50506001609755565b60006106e881336107bd565b5060c980546001600160a01b0319166001600160a01b0392909216919091179055565b60009182526065602090815260408084206001600160a01b0393909316845291905290205460ff1690565b6000805b82518110156107915761077383828151811061076657634e487b7160e01b600052603260045260246000fd5b6020026020010151610ab1565b61077d908361136e565b91508061078981611423565b91505061073a565b50919050565b6000828152606560205260409020600101546107b381336107bd565b6105c88383610957565b6107c7828261070b565b61066d576107df816001600160a01b03166014610b0b565b6107ea836020610b0b565b6040516020016107fb929190611240565b60408051601f198184030181529082905262461bcd60e51b825261034d916004016112f0565b604080516001600160a01b038416602482015260448082018490528251808303909101815260649091019091526020810180516001600160e01b031663a9059cbb60e01b1790526105c8908490610ced565b600054610100900460ff1661089a5760405162461bcd60e51b815260040161034d90611323565b565b600054610100900460ff166108c35760405162461bcd60e51b815260040161034d90611323565b61089a610dbf565b61066d82825b6108db828261070b565b61066d5760008281526065602090815260408083206001600160a01b03851684529091529020805460ff191660011790556109133390565b6001600160a01b0316816001600160a01b0316837f2f8788117e7eff1d82e926ec794901d17c78024a50270940304540a733656f0d60405160405180910390a45050565b610961828261070b565b1561066d5760008281526065602090815260408083206001600160a01b0385168085529252808320805460ff1916905551339285917ff6391f5c32d9c69d2a47ea670b442974b53935d1edc7fd64eb21e047a839171b9190a45050565b33600090815260cd6020526040812080548291849186919084906109e190611423565b91829055506040516109f8939291906020016111d3565b60408051808303601f19018152828252805160209182012083830183526001600160a01b038781168552828501898152600083815260cc855294909420855181546001600160a01b031916921691909117815592518051919550610a63926001850192910190610f8f565b50905050826001600160a01b03167fc0d7f4bc84af53e8d27f0f191fa8b5a77d3a70cbecf95163931f76d1dad1ecc78286604051610aa29291906112d7565b60405180910390a29392505050565b600081815260cb602052604081205460ca54811015610acf575060ca545b6018610e10610ade83426113c5565b610ae89190611386565b610afa90670de0b6b3a76400006113a6565b610b049190611386565b9392505050565b60606000610b1a8360026113a6565b610b2590600261136e565b67ffffffffffffffff811115610b4b57634e487b7160e01b600052604160045260246000fd5b6040519080825280601f01601f191660200182016040528015610b75576020820181803683370190505b509050600360fc1b81600081518110610b9e57634e487b7160e01b600052603260045260246000fd5b60200101906001600160f81b031916908160001a905350600f60fb1b81600181518110610bdb57634e487b7160e01b600052603260045260246000fd5b60200101906001600160f81b031916908160001a9053506000610bff8460026113a6565b610c0a90600161136e565b90505b6001811115610c9e576f181899199a1a9b1b9c1cb0b131b232b360811b85600f1660108110610c4c57634e487b7160e01b600052603260045260246000fd5b1a60f81b828281518110610c7057634e487b7160e01b600052603260045260246000fd5b60200101906001600160f81b031916908160001a90535060049490941c93610c978161140c565b9050610c0d565b508315610b045760405162461bcd60e51b815260206004820181905260248201527f537472696e67733a20686578206c656e67746820696e73756666696369656e74604482015260640161034d565b6000610d42826040518060400160405280602081526020017f5361666545524332303a206c6f772d6c6576656c2063616c6c206661696c6564815250856001600160a01b0316610ded9092919063ffffffff16565b8051909150156105c85780806020019051810190610d609190611117565b6105c85760405162461bcd60e51b815260206004820152602a60248201527f5361666545524332303a204552433230206f7065726174696f6e20646964206e6044820152691bdd081cdd58d8d9595960b21b606482015260840161034d565b600054610100900460ff16610de65760405162461bcd60e51b815260040161034d90611323565b6001609755565b6060610dfc8484600085610e04565b949350505050565b606082471015610e655760405162461bcd60e51b815260206004820152602660248201527f416464726573733a20696e73756666696369656e742062616c616e636520666f6044820152651c8818d85b1b60d21b606482015260840161034d565b6001600160a01b0385163b610ebc5760405162461bcd60e51b815260206004820152601d60248201527f416464726573733a2063616c6c20746f206e6f6e2d636f6e7472616374000000604482015260640161034d565b600080866001600160a01b03168587604051610ed89190611224565b60006040518083038185875af1925050503d8060008114610f15576040519150601f19603f3d011682016040523d82523d6000602084013e610f1a565b606091505b5091509150610f2a828286610f35565b979650505050505050565b60608315610f44575081610b04565b825115610f545782518084602001fd5b8160405162461bcd60e51b815260040161034d91906112f0565b5080546000825590600052602060002090810190610f8c9190610fda565b50565b828054828255906000526020600020908101928215610fca579160200282015b82811115610fca578251825591602001919060010190610faf565b50610fd6929150610fda565b5090565b5b80821115610fd65760008155600101610fdb565b80356001600160a01b038116811461100657600080fd5b919050565b60006020828403121561101c578081fd5b610b0482610fef565b60008060408385031215611037578081fd5b61104083610fef565b915061104e60208401610fef565b90509250929050565b60006020808385031215611069578182fd5b823567ffffffffffffffff80821115611080578384fd5b818501915085601f830112611093578384fd5b8135818111156110a5576110a5611454565b8060051b604051601f19603f830116810181811085821117156110ca576110ca611454565b604052828152858101935084860182860187018a10156110e8578788fd5b8795505b8386101561110a5780358552600195909501949386019386016110ec565b5098975050505050505050565b600060208284031215611128578081fd5b81518015158114610b04578182fd5b600060208284031215611148578081fd5b5035919050565b60008060408385031215611161578182fd5b8235915061104e60208401610fef565b600060208284031215611182578081fd5b81356001600160e01b031981168114610b04578182fd5b6000815180845260208085019450808401835b838110156111c8578151875295820195908201906001016111ac565b509495945050505050565b6bffffffffffffffffffffffff198460601b16815260006014820184516020808701845b83811015611213578151855293820193908201906001016111f7565b505094825250909201949350505050565b600082516112368184602087016113dc565b9190910192915050565b7f416363657373436f6e74726f6c3a206163636f756e74200000000000000000008152600083516112788160178501602088016113dc565b7001034b99036b4b9b9b4b733903937b6329607d1b60179184019182015283516112a98160288401602088016113dc565b01602801949350505050565b6040815260006112c86040830185611199565b90508260208301529392505050565b828152604060208201526000610dfc6040830184611199565b602081526000825180602084015261130f8160408501602087016113dc565b601f01601f19169190910160400192915050565b6020808252602b908201527f496e697469616c697a61626c653a20636f6e7472616374206973206e6f74206960408201526a6e697469616c697a696e6760a81b606082015260800190565b600082198211156113815761138161143e565b500190565b6000826113a157634e487b7160e01b81526012600452602481fd5b500490565b60008160001904831182151516156113c0576113c061143e565b500290565b6000828210156113d7576113d761143e565b500390565b60005b838110156113f75781810151838201526020016113df565b83811115611406576000848401525b50505050565b60008161141b5761141b61143e565b506000190190565b60006000198214156114375761143761143e565b5060010190565b634e487b7160e01b600052601160045260246000fd5b634e487b7160e01b600052604160045260246000fdfea2646970667358221220cf678ca2b6f9a7f334b78a642c7cfc0e14b4c22a7bc764c0b22e37a5d32ec9bb64736f6c63430008040033",
  "devdoc": {
    "kind": "dev",
    "methods": {
      "calculateRewards(uint256[])": {
        "details": "Caluclate rewards for given token Ids"
      },
      "confirmRequest(bytes32)": {
        "details": "Claim SHO reward for verified request"
      },
      "getRoleAdmin(bytes32)": {
        "details": "Returns the admin role that controls `role`. See {grantRole} and {revokeRole}. To change a role's admin, use {_setRoleAdmin}."
      },
      "grantRole(bytes32,address)": {
        "details": "Grants `role` to `account`. If `account` had not been already granted `role`, emits a {RoleGranted} event. Requirements: - the caller must have ``role``'s admin role."
      },
      "hasRole(bytes32,address)": {
        "details": "Returns `true` if `account` has been granted `role`."
      },
      "renounceRole(bytes32,address)": {
        "details": "Revokes `role` from the calling account. Roles are often managed via {grantRole} and {revokeRole}: this function's purpose is to provide a mechanism for accounts to lose their privileges if they are compromised (such as when a trusted device is misplaced). If the calling account had been revoked `role`, emits a {RoleRevoked} event. Requirements: - the caller must be `account`."
      },
      "revokeRole(bytes32,address)": {
        "details": "Revokes `role` from `account`. If `account` had been granted `role`, emits a {RoleRevoked} event. Requirements: - the caller must have ``role``'s admin role."
      },
      "supportsInterface(bytes4)": {
        "details": "See {IERC165-supportsInterface}."
      }
    },
    "version": 1
  },
  "userdoc": {
    "kind": "user",
    "methods": {},
    "version": 1
  },
  "storageLayout": {
    "storage": [
      {
        "astId": 408,
        "contract": "contracts/ShogunStakingPolygon.sol:ShogunStakingPolygon",
        "label": "_initialized",
        "offset": 0,
        "slot": "0",
        "type": "t_bool"
      },
      {
        "astId": 411,
        "contract": "contracts/ShogunStakingPolygon.sol:ShogunStakingPolygon",
        "label": "_initializing",
        "offset": 1,
        "slot": "0",
        "type": "t_bool"
      },
      {
        "astId": 883,
        "contract": "contracts/ShogunStakingPolygon.sol:ShogunStakingPolygon",
        "label": "__gap",
        "offset": 0,
        "slot": "1",
        "type": "t_array(t_uint256)50_storage"
      },
      {
        "astId": 1204,
        "contract": "contracts/ShogunStakingPolygon.sol:ShogunStakingPolygon",
        "label": "__gap",
        "offset": 0,
        "slot": "51",
        "type": "t_array(t_uint256)50_storage"
      },
      {
        "astId": 39,
        "contract": "contracts/ShogunStakingPolygon.sol:ShogunStakingPolygon",
        "label": "_roles",
        "offset": 0,
        "slot": "101",
        "type": "t_mapping(t_bytes32,t_struct(RoleData)34_storage)"
      },
      {
        "astId": 327,
        "contract": "contracts/ShogunStakingPolygon.sol:ShogunStakingPolygon",
        "label": "__gap",
        "offset": 0,
        "slot": "102",
        "type": "t_array(t_uint256)49_storage"
      },
      {
        "astId": 489,
        "contract": "contracts/ShogunStakingPolygon.sol:ShogunStakingPolygon",
        "label": "_status",
        "offset": 0,
        "slot": "151",
        "type": "t_uint256"
      },
      {
        "astId": 533,
        "contract": "contracts/ShogunStakingPolygon.sol:ShogunStakingPolygon",
        "label": "__gap",
        "offset": 0,
        "slot": "152",
        "type": "t_array(t_uint256)49_storage"
      },
      {
        "astId": 8220,
        "contract": "contracts/ShogunStakingPolygon.sol:ShogunStakingPolygon",
        "label": "SHO",
        "offset": 0,
        "slot": "201",
        "type": "t_contract(IShogunToken)10074"
      },
      {
        "astId": 8222,
        "contract": "contracts/ShogunStakingPolygon.sol:ShogunStakingPolygon",
        "label": "startDate",
        "offset": 0,
        "slot": "202",
        "type": "t_uint256"
      },
      {
        "astId": 8226,
        "contract": "contracts/ShogunStakingPolygon.sol:ShogunStakingPolygon",
        "label": "claimedTimes",
        "offset": 0,
        "slot": "203",
        "type": "t_mapping(t_uint256,t_uint256)"
      },
      {
        "astId": 8237,
        "contract": "contracts/ShogunStakingPolygon.sol:ShogunStakingPolygon",
        "label": "requests",
        "offset": 0,
        "slot": "204",
        "type": "t_mapping(t_bytes32,t_struct(ClaimRequest)8232_storage)"
      },
      {
        "astId": 8241,
        "contract": "contracts/ShogunStakingPolygon.sol:ShogunStakingPolygon",
        "label": "nonces",
        "offset": 0,
        "slot": "205",
        "type": "t_mapping(t_address,t_uint256)"
      }
    ],
    "types": {
      "t_address": {
        "encoding": "inplace",
        "label": "address",
        "numberOfBytes": "20"
      },
      "t_array(t_uint256)49_storage": {
        "base": "t_uint256",
        "encoding": "inplace",
        "label": "uint256[49]",
        "numberOfBytes": "1568"
      },
      "t_array(t_uint256)50_storage": {
        "base": "t_uint256",
        "encoding": "inplace",
        "label": "uint256[50]",
        "numberOfBytes": "1600"
      },
      "t_array(t_uint256)dyn_storage": {
        "base": "t_uint256",
        "encoding": "dynamic_array",
        "label": "uint256[]",
        "numberOfBytes": "32"
      },
      "t_bool": {
        "encoding": "inplace",
        "label": "bool",
        "numberOfBytes": "1"
      },
      "t_bytes32": {
        "encoding": "inplace",
        "label": "bytes32",
        "numberOfBytes": "32"
      },
      "t_contract(IShogunToken)10074": {
        "encoding": "inplace",
        "label": "contract IShogunToken",
        "numberOfBytes": "20"
      },
      "t_mapping(t_address,t_bool)": {
        "encoding": "mapping",
        "key": "t_address",
        "label": "mapping(address => bool)",
        "numberOfBytes": "32",
        "value": "t_bool"
      },
      "t_mapping(t_address,t_uint256)": {
        "encoding": "mapping",
        "key": "t_address",
        "label": "mapping(address => uint256)",
        "numberOfBytes": "32",
        "value": "t_uint256"
      },
      "t_mapping(t_bytes32,t_struct(ClaimRequest)8232_storage)": {
        "encoding": "mapping",
        "key": "t_bytes32",
        "label": "mapping(bytes32 => struct ShogunStakingPolygon.ClaimRequest)",
        "numberOfBytes": "32",
        "value": "t_struct(ClaimRequest)8232_storage"
      },
      "t_mapping(t_bytes32,t_struct(RoleData)34_storage)": {
        "encoding": "mapping",
        "key": "t_bytes32",
        "label": "mapping(bytes32 => struct AccessControlUpgradeable.RoleData)",
        "numberOfBytes": "32",
        "value": "t_struct(RoleData)34_storage"
      },
      "t_mapping(t_uint256,t_uint256)": {
        "encoding": "mapping",
        "key": "t_uint256",
        "label": "mapping(uint256 => uint256)",
        "numberOfBytes": "32",
        "value": "t_uint256"
      },
      "t_struct(ClaimRequest)8232_storage": {
        "encoding": "inplace",
        "label": "struct ShogunStakingPolygon.ClaimRequest",
        "members": [
          {
            "astId": 8228,
            "contract": "contracts/ShogunStakingPolygon.sol:ShogunStakingPolygon",
            "label": "staker",
            "offset": 0,
            "slot": "0",
            "type": "t_address"
          },
          {
            "astId": 8231,
            "contract": "contracts/ShogunStakingPolygon.sol:ShogunStakingPolygon",
            "label": "nftIds",
            "offset": 0,
            "slot": "1",
            "type": "t_array(t_uint256)dyn_storage"
          }
        ],
        "numberOfBytes": "64"
      },
      "t_struct(RoleData)34_storage": {
        "encoding": "inplace",
        "label": "struct AccessControlUpgradeable.RoleData",
        "members": [
          {
            "astId": 31,
            "contract": "contracts/ShogunStakingPolygon.sol:ShogunStakingPolygon",
            "label": "members",
            "offset": 0,
            "slot": "0",
            "type": "t_mapping(t_address,t_bool)"
          },
          {
            "astId": 33,
            "contract": "contracts/ShogunStakingPolygon.sol:ShogunStakingPolygon",
            "label": "adminRole",
            "offset": 0,
            "slot": "1",
            "type": "t_bytes32"
          }
        ],
        "numberOfBytes": "64"
      },
      "t_uint256": {
        "encoding": "inplace",
        "label": "uint256",
        "numberOfBytes": "32"
      }
    }
  }
}