{
  "address": "0x28dA7CEF1cf52AE1edFB0343e86319352AC5E9b3",
  "abi": [
    {
      "anonymous": false,
      "inputs": [
        {
          "indexed": true,
          "internalType": "address",
          "name": "user",
          "type": "address"
        },
        {
          "indexed": false,
          "internalType": "uint256",
          "name": "amount",
          "type": "uint256"
        },
        {
          "indexed": false,
          "internalType": "uint256",
          "name": "claimTime",
          "type": "uint256"
        }
      ],
      "name": "BonusClaimed",
      "type": "event"
    },
    {
      "anonymous": false,
      "inputs": [
        {
          "indexed": true,
          "internalType": "address",
          "name": "user",
          "type": "address"
        },
        {
          "indexed": false,
          "internalType": "uint256",
          "name": "amount",
          "type": "uint256"
        },
        {
          "indexed": false,
          "internalType": "uint256",
          "name": "claimTime",
          "type": "uint256"
        }
      ],
      "name": "RewardClaimed",
      "type": "event"
    },
    {
      "anonymous": false,
      "inputs": [
        {
          "indexed": true,
          "internalType": "bytes32",
          "name": "role",
          "type": "bytes32"
        },
        {
          "indexed": true,
          "internalType": "bytes32",
          "name": "previousAdminRole",
          "type": "bytes32"
        },
        {
          "indexed": true,
          "internalType": "bytes32",
          "name": "newAdminRole",
          "type": "bytes32"
        }
      ],
      "name": "RoleAdminChanged",
      "type": "event"
    },
    {
      "anonymous": false,
      "inputs": [
        {
          "indexed": true,
          "internalType": "bytes32",
          "name": "role",
          "type": "bytes32"
        },
        {
          "indexed": true,
          "internalType": "address",
          "name": "account",
          "type": "address"
        },
        {
          "indexed": true,
          "internalType": "address",
          "name": "sender",
          "type": "address"
        }
      ],
      "name": "RoleGranted",
      "type": "event"
    },
    {
      "anonymous": false,
      "inputs": [
        {
          "indexed": true,
          "internalType": "bytes32",
          "name": "role",
          "type": "bytes32"
        },
        {
          "indexed": true,
          "internalType": "address",
          "name": "account",
          "type": "address"
        },
        {
          "indexed": true,
          "internalType": "address",
          "name": "sender",
          "type": "address"
        }
      ],
      "name": "RoleRevoked",
      "type": "event"
    },
    {
      "anonymous": false,
      "inputs": [
        {
          "indexed": true,
          "internalType": "address",
          "name": "user",
          "type": "address"
        },
        {
          "indexed": false,
          "internalType": "uint256",
          "name": "trainId",
          "type": "uint256"
        },
        {
          "indexed": false,
          "internalType": "uint256[]",
          "name": "shogunIds",
          "type": "uint256[]"
        },
        {
          "indexed": false,
          "internalType": "uint256",
          "name": "endTime",
          "type": "uint256"
        }
      ],
      "name": "TrainingEnded",
      "type": "event"
    },
    {
      "anonymous": false,
      "inputs": [
        {
          "indexed": true,
          "internalType": "address",
          "name": "user",
          "type": "address"
        },
        {
          "indexed": false,
          "internalType": "uint256",
          "name": "trainId",
          "type": "uint256"
        },
        {
          "indexed": false,
          "internalType": "uint256[]",
          "name": "shogunIds",
          "type": "uint256[]"
        },
        {
          "indexed": false,
          "internalType": "uint256",
          "name": "startTime",
          "type": "uint256"
        }
      ],
      "name": "TrainingStarted",
      "type": "event"
    },
    {
      "inputs": [],
      "name": "DEFAULT_ADMIN_ROLE",
      "outputs": [
        {
          "internalType": "bytes32",
          "name": "",
          "type": "bytes32"
        }
      ],
      "stateMutability": "view",
      "type": "function"
    },
    {
      "inputs": [],
      "name": "SHO",
      "outputs": [
        {
          "internalType": "contract IShogunToken",
          "name": "",
          "type": "address"
        }
      ],
      "stateMutability": "view",
      "type": "function"
    },
    {
      "inputs": [],
      "name": "SS",
      "outputs": [
        {
          "internalType": "contract IShogunNFT",
          "name": "",
          "type": "address"
        }
      ],
      "stateMutability": "view",
      "type": "function"
    },
    {
      "inputs": [
        {
          "internalType": "address",
          "name": "ss",
          "type": "address"
        },
        {
          "internalType": "uint256",
          "name": "_baseReward",
          "type": "uint256"
        },
        {
          "internalType": "address",
          "name": "admin",
          "type": "address"
        }
      ],
      "name": "__ShogunStaking_init",
      "outputs": [],
      "stateMutability": "nonpayable",
      "type": "function"
    },
    {
      "inputs": [
        {
          "internalType": "address[]",
          "name": "to",
          "type": "address[]"
        },
        {
          "internalType": "uint256[]",
          "name": "amount",
          "type": "uint256[]"
        }
      ],
      "name": "airdrop",
      "outputs": [],
      "stateMutability": "nonpayable",
      "type": "function"
    },
    {
      "inputs": [
        {
          "internalType": "uint256[]",
          "name": "tokenIds",
          "type": "uint256[]"
        }
      ],
      "name": "areAvailiable",
      "outputs": [
        {
          "internalType": "bool",
          "name": "out",
          "type": "bool"
        }
      ],
      "stateMutability": "view",
      "type": "function"
    },
    {
      "inputs": [
        {
          "internalType": "uint256[]",
          "name": "tokenIds",
          "type": "uint256[]"
        }
      ],
      "name": "areOwned",
      "outputs": [
        {
          "internalType": "bool",
          "name": "out",
          "type": "bool"
        }
      ],
      "stateMutability": "view",
      "type": "function"
    },
    {
      "inputs": [],
      "name": "baseReward",
      "outputs": [
        {
          "internalType": "uint256",
          "name": "",
          "type": "uint256"
        }
      ],
      "stateMutability": "view",
      "type": "function"
    },
    {
      "inputs": [
        {
          "internalType": "address",
          "name": "",
          "type": "address"
        }
      ],
      "name": "bonusSHO",
      "outputs": [
        {
          "internalType": "uint256",
          "name": "",
          "type": "uint256"
        }
      ],
      "stateMutability": "view",
      "type": "function"
    },
    {
      "inputs": [
        {
          "internalType": "uint256",
          "name": "trainId",
          "type": "uint256"
        }
      ],
      "name": "calculateRewards",
      "outputs": [
        {
          "internalType": "uint256",
          "name": "rewardAmount",
          "type": "uint256"
        }
      ],
      "stateMutability": "view",
      "type": "function"
    },
    {
      "inputs": [
        {
          "internalType": "uint256[]",
          "name": "tokenIds",
          "type": "uint256[]"
        }
      ],
      "name": "calculateRewardsMultiV2",
      "outputs": [
        {
          "internalType": "uint256",
          "name": "rewardAmount",
          "type": "uint256"
        }
      ],
      "stateMutability": "view",
      "type": "function"
    },
    {
      "inputs": [
        {
          "internalType": "uint256",
          "name": "tokenId",
          "type": "uint256"
        }
      ],
      "name": "calculateRewardsV2",
      "outputs": [
        {
          "internalType": "uint256",
          "name": "rewardAmount",
          "type": "uint256"
        }
      ],
      "stateMutability": "view",
      "type": "function"
    },
    {
      "inputs": [],
      "name": "claimAllRewards",
      "outputs": [],
      "stateMutability": "nonpayable",
      "type": "function"
    },
    {
      "inputs": [],
      "name": "claimBonusSHO",
      "outputs": [],
      "stateMutability": "nonpayable",
      "type": "function"
    },
    {
      "inputs": [
        {
          "internalType": "uint256",
          "name": "familyId",
          "type": "uint256"
        }
      ],
      "name": "claimRewards",
      "outputs": [],
      "stateMutability": "nonpayable",
      "type": "function"
    },
    {
      "inputs": [
        {
          "internalType": "uint256[]",
          "name": "tokenIds",
          "type": "uint256[]"
        }
      ],
      "name": "claimRewardsMultiV2",
      "outputs": [],
      "stateMutability": "nonpayable",
      "type": "function"
    },
    {
      "inputs": [
        {
          "internalType": "uint256",
          "name": "tokenId",
          "type": "uint256"
        }
      ],
      "name": "claimRewardsV2",
      "outputs": [],
      "stateMutability": "nonpayable",
      "type": "function"
    },
    {
      "inputs": [
        {
          "internalType": "uint256",
          "name": "",
          "type": "uint256"
        }
      ],
      "name": "countMultipliers",
      "outputs": [
        {
          "internalType": "uint256",
          "name": "",
          "type": "uint256"
        }
      ],
      "stateMutability": "view",
      "type": "function"
    },
    {
      "inputs": [
        {
          "internalType": "bool",
          "name": "training",
          "type": "bool"
        }
      ],
      "name": "enableTraining",
      "outputs": [],
      "stateMutability": "nonpayable",
      "type": "function"
    },
    {
      "inputs": [
        {
          "internalType": "uint256[]",
          "name": "trainIds",
          "type": "uint256[]"
        }
      ],
      "name": "endMultipleTraining",
      "outputs": [],
      "stateMutability": "nonpayable",
      "type": "function"
    },
    {
      "inputs": [
        {
          "internalType": "uint256",
          "name": "trainId",
          "type": "uint256"
        }
      ],
      "name": "endTraining",
      "outputs": [],
      "stateMutability": "nonpayable",
      "type": "function"
    },
    {
      "inputs": [
        {
          "internalType": "uint256",
          "name": "",
          "type": "uint256"
        }
      ],
      "name": "families",
      "outputs": [
        {
          "internalType": "address",
          "name": "familyOwner",
          "type": "address"
        },
        {
          "internalType": "uint256",
          "name": "lastClaim",
          "type": "uint256"
        },
        {
          "internalType": "uint256",
          "name": "guildMultiplier",
          "type": "uint256"
        },
        {
          "internalType": "uint256",
          "name": "medallionMultiplier",
          "type": "uint256"
        },
        {
          "internalType": "uint256",
          "name": "shogunBonus",
          "type": "uint256"
        },
        {
          "internalType": "enum ShogunStakingV2.TrainState",
          "name": "trainState",
          "type": "uint8"
        }
      ],
      "stateMutability": "view",
      "type": "function"
    },
    {
      "inputs": [
        {
          "internalType": "uint256",
          "name": "guildCount",
          "type": "uint256"
        },
        {
          "internalType": "bool",
          "name": "sameGuild",
          "type": "bool"
        }
      ],
      "name": "getCountMultiplier",
      "outputs": [
        {
          "internalType": "uint256",
          "name": "",
          "type": "uint256"
        }
      ],
      "stateMutability": "view",
      "type": "function"
    },
    {
      "inputs": [
        {
          "internalType": "uint256",
          "name": "trainId",
          "type": "uint256"
        }
      ],
      "name": "getFamily",
      "outputs": [
        {
          "components": [
            {
              "internalType": "address",
              "name": "familyOwner",
              "type": "address"
            },
            {
              "internalType": "uint256",
              "name": "lastClaim",
              "type": "uint256"
            },
            {
              "internalType": "uint256",
              "name": "guildMultiplier",
              "type": "uint256"
            },
            {
              "internalType": "uint256",
              "name": "medallionMultiplier",
              "type": "uint256"
            },
            {
              "internalType": "uint256",
              "name": "shogunBonus",
              "type": "uint256"
            },
            {
              "internalType": "uint256[]",
              "name": "shogunIds",
              "type": "uint256[]"
            },
            {
              "internalType": "enum ShogunStakingV2.TrainState",
              "name": "trainState",
              "type": "uint8"
            }
          ],
          "internalType": "struct ShogunStakingV2.Family",
          "name": "",
          "type": "tuple"
        }
      ],
      "stateMutability": "view",
      "type": "function"
    },
    {
      "inputs": [],
      "name": "getFamilyCount",
      "outputs": [
        {
          "internalType": "uint256",
          "name": "",
          "type": "uint256"
        }
      ],
      "stateMutability": "view",
      "type": "function"
    },
    {
      "inputs": [
        {
          "internalType": "uint256",
          "name": "familyId",
          "type": "uint256"
        }
      ],
      "name": "getFamilyStatus",
      "outputs": [
        {
          "internalType": "enum ShogunStakingV2.TrainState",
          "name": "",
          "type": "uint8"
        }
      ],
      "stateMutability": "view",
      "type": "function"
    },
    {
      "inputs": [
        {
          "internalType": "uint256",
          "name": "tokenId",
          "type": "uint256"
        }
      ],
      "name": "getGuild",
      "outputs": [
        {
          "internalType": "uint8",
          "name": "",
          "type": "uint8"
        }
      ],
      "stateMutability": "view",
      "type": "function"
    },
    {
      "inputs": [
        {
          "internalType": "uint256",
          "name": "familyId",
          "type": "uint256"
        }
      ],
      "name": "getOwnerOfFamily",
      "outputs": [
        {
          "internalType": "address",
          "name": "",
          "type": "address"
        }
      ],
      "stateMutability": "view",
      "type": "function"
    },
    {
      "inputs": [
        {
          "internalType": "bytes32",
          "name": "role",
          "type": "bytes32"
        }
      ],
      "name": "getRoleAdmin",
      "outputs": [
        {
          "internalType": "bytes32",
          "name": "",
          "type": "bytes32"
        }
      ],
      "stateMutability": "view",
      "type": "function"
    },
    {
      "inputs": [
        {
          "internalType": "uint256",
          "name": "familyId",
          "type": "uint256"
        }
      ],
      "name": "getShogunsOfFamily",
      "outputs": [
        {
          "internalType": "uint256[]",
          "name": "",
          "type": "uint256[]"
        }
      ],
      "stateMutability": "view",
      "type": "function"
    },
    {
      "inputs": [
        {
          "internalType": "address",
          "name": "user",
          "type": "address"
        }
      ],
      "name": "getTotalMedallionMultiplier",
      "outputs": [
        {
          "internalType": "uint256",
          "name": "",
          "type": "uint256"
        }
      ],
      "stateMutability": "view",
      "type": "function"
    },
    {
      "inputs": [
        {
          "internalType": "address",
          "name": "user",
          "type": "address"
        }
      ],
      "name": "getUserFamilies",
      "outputs": [
        {
          "internalType": "uint256[]",
          "name": "",
          "type": "uint256[]"
        }
      ],
      "stateMutability": "view",
      "type": "function"
    },
    {
      "inputs": [
        {
          "internalType": "bytes32",
          "name": "role",
          "type": "bytes32"
        },
        {
          "internalType": "address",
          "name": "account",
          "type": "address"
        }
      ],
      "name": "grantRole",
      "outputs": [],
      "stateMutability": "nonpayable",
      "type": "function"
    },
    {
      "inputs": [],
      "name": "guildMultiplier",
      "outputs": [
        {
          "internalType": "uint256",
          "name": "",
          "type": "uint256"
        }
      ],
      "stateMutability": "view",
      "type": "function"
    },
    {
      "inputs": [],
      "name": "guilds",
      "outputs": [
        {
          "internalType": "bytes",
          "name": "",
          "type": "bytes"
        }
      ],
      "stateMutability": "view",
      "type": "function"
    },
    {
      "inputs": [
        {
          "internalType": "bytes32",
          "name": "role",
          "type": "bytes32"
        },
        {
          "internalType": "address",
          "name": "account",
          "type": "address"
        }
      ],
      "name": "hasRole",
      "outputs": [
        {
          "internalType": "bool",
          "name": "",
          "type": "bool"
        }
      ],
      "stateMutability": "view",
      "type": "function"
    },
    {
      "inputs": [
        {
          "internalType": "uint256",
          "name": "",
          "type": "uint256"
        }
      ],
      "name": "isLegendarySamurai",
      "outputs": [
        {
          "internalType": "bool",
          "name": "",
          "type": "bool"
        }
      ],
      "stateMutability": "view",
      "type": "function"
    },
    {
      "inputs": [
        {
          "internalType": "uint256",
          "name": "",
          "type": "uint256"
        }
      ],
      "name": "lastClaim",
      "outputs": [
        {
          "internalType": "uint256",
          "name": "",
          "type": "uint256"
        }
      ],
      "stateMutability": "view",
      "type": "function"
    },
    {
      "inputs": [
        {
          "internalType": "address",
          "name": "",
          "type": "address"
        }
      ],
      "name": "medallionCount",
      "outputs": [
        {
          "internalType": "uint256",
          "name": "",
          "type": "uint256"
        }
      ],
      "stateMutability": "view",
      "type": "function"
    },
    {
      "inputs": [],
      "name": "medallionMultiplier",
      "outputs": [
        {
          "internalType": "uint256",
          "name": "",
          "type": "uint256"
        }
      ],
      "stateMutability": "view",
      "type": "function"
    },
    {
      "inputs": [
        {
          "internalType": "address",
          "name": "",
          "type": "address"
        },
        {
          "internalType": "address",
          "name": "",
          "type": "address"
        },
        {
          "internalType": "uint256",
          "name": "",
          "type": "uint256"
        },
        {
          "internalType": "bytes",
          "name": "",
          "type": "bytes"
        }
      ],
      "name": "onERC721Received",
      "outputs": [
        {
          "internalType": "bytes4",
          "name": "",
          "type": "bytes4"
        }
      ],
      "stateMutability": "nonpayable",
      "type": "function"
    },
    {
      "inputs": [
        {
          "internalType": "uint256",
          "name": "",
          "type": "uint256"
        }
      ],
      "name": "onTraining",
      "outputs": [
        {
          "internalType": "uint256",
          "name": "",
          "type": "uint256"
        }
      ],
      "stateMutability": "view",
      "type": "function"
    },
    {
      "inputs": [],
      "name": "removeUnstaker",
      "outputs": [],
      "stateMutability": "nonpayable",
      "type": "function"
    },
    {
      "inputs": [
        {
          "internalType": "bytes32",
          "name": "role",
          "type": "bytes32"
        },
        {
          "internalType": "address",
          "name": "account",
          "type": "address"
        }
      ],
      "name": "renounceRole",
      "outputs": [],
      "stateMutability": "nonpayable",
      "type": "function"
    },
    {
      "inputs": [
        {
          "internalType": "bytes32",
          "name": "role",
          "type": "bytes32"
        },
        {
          "internalType": "address",
          "name": "account",
          "type": "address"
        }
      ],
      "name": "revokeRole",
      "outputs": [],
      "stateMutability": "nonpayable",
      "type": "function"
    },
    {
      "inputs": [
        {
          "internalType": "uint256",
          "name": "_amount",
          "type": "uint256"
        }
      ],
      "name": "setBaseReward",
      "outputs": [],
      "stateMutability": "nonpayable",
      "type": "function"
    },
    {
      "inputs": [
        {
          "internalType": "address[]",
          "name": "addresses",
          "type": "address[]"
        },
        {
          "internalType": "uint256[]",
          "name": "amounts",
          "type": "uint256[]"
        }
      ],
      "name": "setBonusSHO",
      "outputs": [],
      "stateMutability": "nonpayable",
      "type": "function"
    },
    {
      "inputs": [
        {
          "internalType": "uint256[]",
          "name": "_countMultipliers",
          "type": "uint256[]"
        }
      ],
      "name": "setCountMultiplier",
      "outputs": [],
      "stateMutability": "nonpayable",
      "type": "function"
    },
    {
      "inputs": [
        {
          "internalType": "uint256",
          "name": "_guildMultiplier",
          "type": "uint256"
        }
      ],
      "name": "setGuildMultiplier",
      "outputs": [],
      "stateMutability": "nonpayable",
      "type": "function"
    },
    {
      "inputs": [
        {
          "internalType": "uint256[]",
          "name": "shogunIds",
          "type": "uint256[]"
        },
        {
          "internalType": "bool[]",
          "name": "flags",
          "type": "bool[]"
        }
      ],
      "name": "setLegendaryShoguns",
      "outputs": [],
      "stateMutability": "nonpayable",
      "type": "function"
    },
    {
      "inputs": [
        {
          "internalType": "address[]",
          "name": "users",
          "type": "address[]"
        },
        {
          "internalType": "uint256[]",
          "name": "quantities",
          "type": "uint256[]"
        }
      ],
      "name": "setMedallionCount",
      "outputs": [],
      "stateMutability": "nonpayable",
      "type": "function"
    },
    {
      "inputs": [
        {
          "internalType": "uint256",
          "name": "_medallionMultiplier",
          "type": "uint256"
        }
      ],
      "name": "setMedallionMultiplier",
      "outputs": [],
      "stateMutability": "nonpayable",
      "type": "function"
    },
    {
      "inputs": [
        {
          "internalType": "address",
          "name": "sho",
          "type": "address"
        }
      ],
      "name": "setSHOToken",
      "outputs": [],
      "stateMutability": "nonpayable",
      "type": "function"
    },
    {
      "inputs": [
        {
          "internalType": "uint256",
          "name": "_shogunBonus",
          "type": "uint256"
        }
      ],
      "name": "setShogunBonus",
      "outputs": [],
      "stateMutability": "nonpayable",
      "type": "function"
    },
    {
      "inputs": [
        {
          "internalType": "uint256",
          "name": "_newTimescale",
          "type": "uint256"
        }
      ],
      "name": "setTimeScale",
      "outputs": [],
      "stateMutability": "nonpayable",
      "type": "function"
    },
    {
      "inputs": [
        {
          "internalType": "address",
          "name": "_unstaker",
          "type": "address"
        }
      ],
      "name": "setUnstaker",
      "outputs": [],
      "stateMutability": "nonpayable",
      "type": "function"
    },
    {
      "inputs": [],
      "name": "shogunBonus",
      "outputs": [
        {
          "internalType": "uint256",
          "name": "",
          "type": "uint256"
        }
      ],
      "stateMutability": "view",
      "type": "function"
    },
    {
      "inputs": [
        {
          "internalType": "uint256[]",
          "name": "shogunIds",
          "type": "uint256[]"
        }
      ],
      "name": "startTraining",
      "outputs": [],
      "stateMutability": "nonpayable",
      "type": "function"
    },
    {
      "inputs": [
        {
          "internalType": "uint256[][]",
          "name": "shogunIdsArray",
          "type": "uint256[][]"
        }
      ],
      "name": "startTrainingMultiple",
      "outputs": [],
      "stateMutability": "nonpayable",
      "type": "function"
    },
    {
      "inputs": [
        {
          "internalType": "bytes4",
          "name": "interfaceId",
          "type": "bytes4"
        }
      ],
      "name": "supportsInterface",
      "outputs": [
        {
          "internalType": "bool",
          "name": "",
          "type": "bool"
        }
      ],
      "stateMutability": "view",
      "type": "function"
    },
    {
      "inputs": [],
      "name": "trainingEnabled",
      "outputs": [
        {
          "internalType": "bool",
          "name": "",
          "type": "bool"
        }
      ],
      "stateMutability": "view",
      "type": "function"
    },
    {
      "inputs": [
        {
          "internalType": "uint256[]",
          "name": "shogunIds",
          "type": "uint256[]"
        }
      ],
      "name": "unlockShogunNFTs",
      "outputs": [],
      "stateMutability": "nonpayable",
      "type": "function"
    },
    {
      "inputs": [],
      "name": "unstaker",
      "outputs": [
        {
          "internalType": "address",
          "name": "",
          "type": "address"
        }
      ],
      "stateMutability": "view",
      "type": "function"
    },
    {
      "inputs": [
        {
          "internalType": "bytes",
          "name": "_guilds",
          "type": "bytes"
        }
      ],
      "name": "updateGuilds",
      "outputs": [],
      "stateMutability": "nonpayable",
      "type": "function"
    },
    {
      "inputs": [
        {
          "internalType": "address",
          "name": "",
          "type": "address"
        },
        {
          "internalType": "uint256",
          "name": "",
          "type": "uint256"
        }
      ],
      "name": "userFamilies",
      "outputs": [
        {
          "internalType": "uint256",
          "name": "",
          "type": "uint256"
        }
      ],
      "stateMutability": "view",
      "type": "function"
    }
  ],
  "transactionHash": "0x0d06ed91503648e4c5cd94eb0617edbe827fdeb3cf5806e379f9ffd904985370",
  "args": [],
  "numDeployments": 2,
  "solcInputHash": "5bc149067617cc234842f1b64624a3f5",
  "bytecode": "0x608060405234801561001057600080fd5b50613d28806100206000396000f3fe608060405234801561001057600080fd5b50600436106103db5760003560e01c80638cc60eca1161020a578063d0c3830011610125578063e40cde48116100b8578063f9f4d80311610087578063f9f4d80314610973578063fa8c42e914610986578063ff92fcab1461099a578063fff43905146109af578063fff5923e146109b757600080fd5b8063e40cde481461093b578063efe2dba31461094e578063f182d79214610956578063f796d0301461096057600080fd5b8063d3e96693116100f4578063d3e96693146108e6578063d3ea43501461090b578063d547741f1461091e578063dec161d71461093157600080fd5b8063d0c383001461089a578063d146c1a6146108ad578063d210e016146108c0578063d371f9fe146108d357600080fd5b8063b44ca9771161019d578063c3446ff71161016c578063c3446ff71461084e578063c4c52d6d14610861578063c966a70414610874578063cc8ca9ca1461088757600080fd5b8063b44ca977146107f5578063b46958d014610815578063b753ead714610828578063ba2f5a621461083b57600080fd5b806399d37a06116101d957806399d37a0614610795578063a217fddf146107b9578063a64a6495146107c1578063aaffff8a146107d457600080fd5b80638cc60eca146107495780638da62afe1461075c578063904bc92e1461076f57806391d148541461078257600080fd5b806339395941116102fa57806366b3fe661161028d57806376ad03bc1161025c57806376ad03bc146107075780637b495a05146107105780637f04dd611461072357806386f5cb681461073657600080fd5b806366b3fe66146106bb57806367243482146106ce5780636e974378146106e157806375183ad0146106f457600080fd5b80635b12d7e2116102c95780635b12d7e21461064e5780635fb1e33f146106615780636432028a1461067457806366784845146106a857600080fd5b806339395941146105c25780633d3728b5146105ca5780634ba70563146105eb5780635ad3bd3b1461060c57600080fd5b8063150b7a02116103725780632f2ff15d116103415780632f2ff15d1461056857806332a4e01e1461057b57806335a0a9801461058e57806336568abe146105af57600080fd5b8063150b7a02146104e65780631fe75f241461051d578063248a9ca3146105325780632ea8545a1461055557600080fd5b80630b287fc5116103ae5780630b287fc5146104935780630b42cf55146104a65780630b83a727146104be57806310ace2cd146104c657600080fd5b806301ffc9a7146103e05780630373a23a14610408578063078beae51461041d5780630962ef7914610480575b600080fd5b6103f36103ee36600461365b565b6109ca565b60405190151581526020015b60405180910390f35b61041b610416366004613614565b610a01565b005b61046e61042b366004613614565b610106602052600090815260409020805460018201546002830154600384015460048501546006909501546001600160a01b039094169492939192909160ff1686565b6040516103ff96959493929190613843565b61041b61048e366004613614565b610a13565b61041b6104a13660046134dc565b610c54565b6104b06101005481565b6040519081526020016103ff565b61041b610ca6565b6104d96104d4366004613208565b610e27565b6040516103ff9190613887565b6105046104f4366004613240565b630a85bd0160e11b949350505050565b6040516001600160e01b031990911681526020016103ff565b61013d546103f390600160a01b900460ff1681565b6104b0610540366004613614565b60009081526065602052604090206001015490565b6104b06105633660046136f0565b610e94565b61041b61057636600461362c565b610f25565b6104b06105893660046132fc565b610f50565b6104b061059c366004613208565b6101046020526000908152604090205481565b61041b6105bd36600461362c565b610f82565b61041b610ffc565b6104b06105d8366004613614565b61013e6020526000908152604090205481565b6104b06105f9366004613614565b6101086020526000908152604090205481565b61063661061a366004613614565b600090815261010660205260409020546001600160a01b031690565b6040516001600160a01b0390911681526020016103ff565b61041b61065c366004613208565b611183565b6103f361066f3660046134dc565b6111b3565b61069b610682366004613614565b6000908152610106602052604090206006015460ff1690565b6040516103ff91906138c0565b61041b6106b6366004613614565b611222565b61041b6106c9366004613614565b611379565b61041b6106dc366004613368565b61138b565b61041b6106ef366004613517565b6114a7565b61041b6107023660046134dc565b61154c565b6104b060fd5481565b61041b61071e366004613368565b61156b565b61041b610731366004613208565b6116d0565b61041b61074436600461342b565b6116ff565b60fb54610636906001600160a01b031681565b6104b061076a3660046134dc565b61174d565b60fc54610636906001600160a01b031681565b6103f361079036600461362c565b6117a8565b6103f36107a3366004613614565b6101036020526000908152604090205460ff1681565b6104b0600081565b6104b06107cf366004613614565b6117d3565b6104b06107e2366004613208565b6101096020526000908152604090205481565b610808610803366004613614565b611876565b6040516103ff9190613a2d565b61041b6108233660046134dc565b611978565b61041b610836366004613327565b6119ea565b61041b610849366004613614565b611b2a565b61041b61085c3660046134dc565b611b3d565b61041b61086f3660046135dc565b611fa1565b61041b610882366004613368565b611fcd565b6104b0610895366004613614565b6120e1565b61041b6108a8366004613614565b612102565b61041b6108bb366004613683565b612115565b6104b06108ce366004613208565b61212e565b61041b6108e13660046134dc565b612155565b6108f96108f4366004613614565b612317565b60405160ff90911681526020016103ff565b6104b0610919366004613614565b612380565b61041b61092c36600461362c565b6124e8565b6104b06101015481565b61041b610949366004613614565b61250e565b6104b0612808565b6104b06101025481565b61041b61096e366004613614565b612819565b6104d9610981366004613614565b61282c565b61013d54610636906001600160a01b031681565b6109a2612890565b6040516103ff91906138ad565b61041b61291f565b6103f36109c53660046134dc565b61293f565b60006001600160e01b03198216637965db0b60e01b14806109fb57506301ffc9a760e01b6001600160e01b03198316145b92915050565b6000610a0d8133612a1f565b5060fd55565b60026097541415610a3f5760405162461bcd60e51b8152600401610a36906139f6565b60405180910390fd5b600260975561013d54600160a01b900460ff16610a6e5760405162461bcd60e51b8152600401610a36906138ce565b60008181526101066020526040902080546001600160a01b031633811480610aa1575061013d546001600160a01b031633145b610b045760405162461bcd60e51b815260206004820152602e60248201527f53686f67756e5374616b696e673a204f6e6c792066616d696c79206f776e657260448201526d2063616e20636c61696d2053484f60901b6064820152608401610a36565b6000600683015460ff166001811115610b2d57634e487b7160e01b600052602160045260246000fd5b14610b8d5760405162461bcd60e51b815260206004820152602a60248201527f53686f67756e5374616b696e673a20547261696e696e672068617320616c726560448201526961647920656e6465642160b01b6064820152608401610a36565b6000610b9884612380565b60fc546040516340c10f1960e01b81526001600160a01b038581166004830152602482018490529293509116906340c10f1990604401600060405180830381600087803b158015610be857600080fd5b505af1158015610bfc573d6000803e3d6000fd5b505042600186018190556040513393507ff01da32686223933d8a18a391060918c7f11a3648639edd87ae013e2e27317439250610c4191858252602082015260400190565b60405180910390a2505060016097555050565b60005b8151811015610ca257610c90828281518110610c8357634e487b7160e01b600052603260045260246000fd5b602002602001015161250e565b80610c9a81613c65565b915050610c57565b5050565b60026097541415610cc95760405162461bcd60e51b8152600401610a36906139f6565b60026097556000610cd933610e27565b9050600080805b8351811015610d7e57610d23610d1c858381518110610d0f57634e487b7160e01b600052603260045260246000fd5b6020026020010151612380565b8490612a83565b92506101066000858381518110610d4a57634e487b7160e01b600052603260045260246000fd5b6020026020010151815260200190815260200160002091504282600101819055508080610d7690613c65565b915050610ce0565b5060fc546040516340c10f1960e01b8152336004820152602481018490526001600160a01b03909116906340c10f1990604401600060405180830381600087803b158015610dcb57600080fd5b505af1158015610ddf573d6000803e3d6000fd5b5050604080518581524260208201523393507ff01da32686223933d8a18a391060918c7f11a3648639edd87ae013e2e273174392500160405180910390a25050600160975550565b6001600160a01b03811660009081526101076020908152604091829020805483518184028101840190945280845260609392830182828015610e8857602002820191906000526020600020905b815481526020019060010190808311610e74575b50505050509050919050565b60008115610ee7576101005460ff610ead600186613bb3565b81548110610ecb57634e487b7160e01b600052603260045260246000fd5b9060005260206000200154610ee09190613b37565b90506109fb565b60ff610ef4600185613bb3565b81548110610f1257634e487b7160e01b600052603260045260246000fd5b9060005260206000200154905092915050565b600082815260656020526040902060010154610f418133612a1f565b610f4b8383612a8f565b505050565b6101076020528160005260406000208181548110610f6d57600080fd5b90600052602060002001600091509150505481565b6001600160a01b0381163314610ff25760405162461bcd60e51b815260206004820152602f60248201527f416363657373436f6e74726f6c3a2063616e206f6e6c792072656e6f756e636560448201526e103937b632b9903337b91039b2b63360891b6064820152608401610a36565b610ca28282612b15565b6002609754141561101f5760405162461bcd60e51b8152600401610a36906139f6565b60026097553360009081526101096020526040902054806110a85760405162461bcd60e51b815260206004820152603b60248201527f53686f67756e5374616b696e673a205573657220646f6573206e6f742068617660448201527f6520426f6e75732053484f20546f6b656e7320746f20636c61696d00000000006064820152608401610a36565b33600081815261010960205260408082209190915560fc54905163a9059cbb60e01b81526004810192909252602482018390526001600160a01b03169063a9059cbb90604401602060405180830381600087803b15801561110857600080fd5b505af115801561111c573d6000803e3d6000fd5b505050506040513d601f19601f8201168201806040525081019061114091906135f8565b506040805182815242602082015233917f5ffd7ef804cd6362d3defa75e694e044ac287fcac1de8bbb9a21226d02397b83910160405180910390a2506001609755565b600061118f8133612a1f565b5061013d80546001600160a01b0319166001600160a01b0392909216919091179055565b600160005b825181101561121c57600061010860008584815181106111e857634e487b7160e01b600052603260045260246000fd5b6020026020010151815260200190815260200160002054111561120a57600091505b8061121481613c65565b9150506111b8565b50919050565b600260975414156112455760405162461bcd60e51b8152600401610a36906139f6565b600260975560fb546040516331a9108f60e11b81526004810183905233916001600160a01b031690636352211e9060240160206040518083038186803b15801561128e57600080fd5b505afa1580156112a2573d6000803e3d6000fd5b505050506040513d601f19601f820116820180604052508101906112c69190613224565b6001600160a01b0316146112ec5760405162461bcd60e51b8152600401610a3690613912565b60006112f7826117d3565b600083815261013e60205260409081902042905560fc5490516340c10f1960e01b8152336004820152602481018390529192506001600160a01b0316906340c10f19906044015b600060405180830381600087803b15801561135857600080fd5b505af115801561136c573d6000803e3d6000fd5b5050600160975550505050565b60006113858133612a1f565b5060fe55565b60006113978133612a1f565b81518351146113b85760405162461bcd60e51b8152600401610a369061395b565b60005b83518110156114a15760fc5484516001600160a01b03909116906340c10f19908690849081106113fb57634e487b7160e01b600052603260045260246000fd5b602002602001015185848151811061142357634e487b7160e01b600052603260045260246000fd5b60200260200101516040518363ffffffff1660e01b815260040161145c9291906001600160a01b03929092168252602082015260400190565b600060405180830381600087803b15801561147657600080fd5b505af115801561148a573d6000803e3d6000fd5b50505050808061149990613c65565b9150506113bb565b50505050565b60006114b38133612a1f565b60005b83518110156114a1578281815181106114df57634e487b7160e01b600052603260045260246000fd5b6020026020010151610103600086848151811061150c57634e487b7160e01b600052603260045260246000fd5b6020026020010151815260200190815260200160002060006101000a81548160ff021916908315150217905550808061154490613c65565b9150506114b6565b60006115588133612a1f565b8151610f4b9060ff906020850190613020565b60006115778133612a1f565b81518351146115985760405162461bcd60e51b8152600401610a369061395b565b6000805b8451811015611665578381815181106115c557634e487b7160e01b600052603260045260246000fd5b602002602001015161010960008784815181106115f257634e487b7160e01b600052603260045260246000fd5b60200260200101516001600160a01b03166001600160a01b031681526020019081526020016000208190555083818151811061163e57634e487b7160e01b600052603260045260246000fd5b6020026020010151826116519190613b37565b91508061165d81613c65565b91505061159c565b5060fc546040516340c10f1960e01b8152306004820152602481018390526001600160a01b03909116906340c10f1990604401600060405180830381600087803b1580156116b257600080fd5b505af11580156116c6573d6000803e3d6000fd5b5050505050505050565b60006116dc8133612a1f565b5060fc80546001600160a01b0319166001600160a01b0392909216919091179055565b60005b8151811015610ca25761173b82828151811061172e57634e487b7160e01b600052603260045260246000fd5b6020026020010151611b3d565b8061174581613c65565b915050611702565b6000805b825181101561121c5761178a83828151811061177d57634e487b7160e01b600052603260045260246000fd5b60200260200101516117d3565b6117949083613b37565b9150806117a081613c65565b915050611751565b60009182526065602090815260408084206001600160a01b0393909316845291905290205460ff1690565b600081815261013e6020526040812054636218e0e08110156117f65750636218e0e05b6000838152610103602052604090205460ff1615156001141561184a57620151806118218242613bb3565b60fd5461182f906002613b94565b6118399190613b94565b6118439190613b74565b915061121c565b620151806118588242613bb3565b60fd546118659190613b94565b61186f9190613b74565b9392505050565b61187e61306b565b60008281526101066020908152604091829020825160e08101845281546001600160a01b0316815260018201548184015260028201548185015260038201546060820152600482015460808201526005820180548551818602810186019096528086529194929360a0860193929083018282801561191b57602002820191906000526020600020905b815481526020019060010190808311611907575b5050509183525050600682015460209091019060ff16600181111561195057634e487b7160e01b600052602160045260246000fd5b600181111561196f57634e487b7160e01b600052602160045260246000fd5b90525092915050565b60006119848133612a1f565b60fb5460405163665adcfd60e01b81526001600160a01b039091169063665adcfd906119b4908590600401613887565b600060405180830381600087803b1580156119ce57600080fd5b505af11580156119e2573d6000803e3d6000fd5b505050505050565b600054610100900460ff16611a055760005460ff1615611a09565b303b155b611a6c5760405162461bcd60e51b815260206004820152602e60248201527f496e697469616c697a61626c653a20636f6e747261637420697320616c72656160448201526d191e481a5b9a5d1a585b1a5e995960921b6064820152608401610a36565b600054610100900460ff16158015611a8e576000805461ffff19166101011790555b611a96612b7c565b611a9e612ba5565b611aa9600083612bd4565b60fd83905560fb80546001600160a01b0319166001600160a01b038616179055604080516060810182526127108152612774602082015261283c91810191909152611af89060ff9060036130cf565b5060c861010055600a61010155610320610102556201518060fe5580156114a1576000805461ff001916905550505050565b6000611b368133612a1f565b5061010155565b61013d54600160a01b900460ff16611b675760405162461bcd60e51b8152600401610a36906138ce565b611b70816111b3565b611be25760405162461bcd60e51b815260206004820152603760248201527f53686f67756e5374616b696e673a204f6e65206f72204d6f72652073686f677560448201527f6e732061726520616c726561647920747261696e696e670000000000000000006064820152608401610a36565b611beb8161293f565b611c5d5760405162461bcd60e51b815260206004820152603860248201527f53686f67756e5374616b696e673a204f6e65206f72204d6f72652073686f677560448201527f6e7320617265206e6f74206f776e656420627920796f752100000000000000006064820152608401610a36565b600381511115611cbb5760405162461bcd60e51b8152602060048201526024808201527f53686f67756e5374616b696e673a204d6178696d756d206f662033205353206f6044820152636e6c792160e01b6064820152608401610a36565b6000815111611d1b5760405162461bcd60e51b815260206004820152602660248201527f53686f67756e5374616b696e673a204174206c6561737420312053532072657160448201526575697265642160d01b6064820152608401610a36565b611d2a61010a80546001019055565b60fb546040516302b2de4960e21b81526001600160a01b0390911690630acb792490611d5a908490600401613887565b600060405180830381600087803b158015611d7457600080fd5b505af1158015611d88573d6000803e3d6000fd5b5050505060005b8151811015611dee5761010a546101086000848481518110611dc157634e487b7160e01b600052603260045260246000fd5b60200260200101518152602001908152602001600020819055508080611de690613c65565b915050611d8f565b506000806000611dfd84612bde565b9093509150611e0b84612d6f565b905060006040518060e00160405280336001600160a01b0316815260200142815260200185815260200184815260200183815260200186815260200160006001811115611e6857634e487b7160e01b600052602160045260246000fd5b90529050806101066000611e7c61010a5490565b81526020808201929092526040908101600020835181546001600160a01b0319166001600160a01b03909116178155838301516001820155908301516002820155606083015160038201556080830151600482015560a083015180519192611eec92600585019290910190613020565b5060c082015160068201805460ff191660018381811115611f1d57634e487b7160e01b600052602160045260246000fd5b021790555050336000908152610107602052604090209050611f3f61010a5490565b81546001810183556000928352602090922090910155337fba68dec919f1691408f54f9ad116b0c62f60dc6702ac8c6a67b166a8cd52d330611f8161010a5490565b8742604051611f9293929190613aa0565b60405180910390a25050505050565b6000611fad8133612a1f565b5061013d8054911515600160a01b0260ff60a01b19909216919091179055565b6000611fd98133612a1f565b81518351146120495760405162461bcd60e51b815260206004820152603660248201527f53686f67756e5374616b696e673a2055736572206c656e67746820616e6420516044820152750eac2dce8d2e8f240c8decae640dcdee840dac2e8c6d60531b6064820152608401610a36565b60005b83518110156114a15782818151811061207557634e487b7160e01b600052603260045260246000fd5b602002602001015161010460008684815181106120a257634e487b7160e01b600052603260045260246000fd5b60200260200101516001600160a01b03166001600160a01b031681526020019081526020016000208190555080806120d990613c65565b91505061204c565b60ff81815481106120f157600080fd5b600091825260209091200154905081565b600061210e8133612a1f565b5061010255565b60006121218133612a1f565b6114a16101058484613110565b6001600160a01b03811660009081526101046020526040812054610101546109fb91612dec565b600260975414156121785760405162461bcd60e51b8152600401610a36906139f6565b60026097556000805b82518110156122df5760fb54835133916001600160a01b031690636352211e908690859081106121c157634e487b7160e01b600052603260045260246000fd5b60200260200101516040518263ffffffff1660e01b81526004016121e791815260200190565b60206040518083038186803b1580156121ff57600080fd5b505afa158015612213573d6000803e3d6000fd5b505050506040513d601f19601f820116820180604052508101906122379190613224565b6001600160a01b03161461225d5760405162461bcd60e51b8152600401610a3690613912565b61228083828151811061177d57634e487b7160e01b600052603260045260246000fd5b61228a9083613b37565b91504261013e60008584815181106122b257634e487b7160e01b600052603260045260246000fd5b602002602001015181526020019081526020016000208190555080806122d790613c65565b915050612181565b5060fc546040516340c10f1960e01b8152336004820152602481018390526001600160a01b03909116906340c10f199060440161133e565b6000610105612327600184613bb3565b815461233290613c30565b811061234e57634e487b7160e01b600052603260045260246000fd5b81546001161561236d5790600052602060002090602091828204019190065b9054600160f81b911a0260f81c92915050565b600081815261010660209081526040808320815160e08101835281546001600160a01b0316815260018201548185015260028201548184015260038201546060820152600482015460808201526005820180548451818702810187019095528085528695929460a08601939092919083018282801561241e57602002820191906000526020600020905b81548152602001906001019080831161240a575b5050509183525050600682015460209091019060ff16600181111561245357634e487b7160e01b600052602160045260246000fd5b600181111561247257634e487b7160e01b600052602160045260246000fd5b81525050905061186f6127106124e260fe546124e26124b086608001516124aa88606001518960400151612a8390919063ffffffff16565b90612a83565b6124dc8760a00151516124dc6124d38a6020015142612df890919063ffffffff16565b60fd5490612dec565b90612dec565b90612e04565b6000828152606560205260409020600101546125048133612a1f565b610f4b8383612b15565b61013d54600160a01b900460ff166125385760405162461bcd60e51b8152600401610a36906138ce565b600081815261010660205260409020546001600160a01b0316331480612569575061013d546001600160a01b031633145b6125c85760405162461bcd60e51b815260206004820152602a60248201527f53686f67756e5374616b696e673a204e6f7420746865206f776e6572206f66206044820152697468652066616d696c7960b01b6064820152608401610a36565b6000818152610106602052604081206006015460ff1660018111156125fd57634e487b7160e01b600052602160045260246000fd5b146126585760405162461bcd60e51b815260206004820152602560248201527f53686f67756e5374616b696e673a20547261696e696e6720616c726561647920604482015264115b99195960da1b6064820152608401610a36565b61266181610a13565b60fb546000828152610106602052604090819020905163665adcfd60e01b81526001600160a01b039092169163665adcfd916126a59160059091019060040161389a565b600060405180830381600087803b1580156126bf57600080fd5b505af11580156126d3573d6000803e3d6000fd5b50505060008281526101066020908152604080832060068101805460ff1916600117905560050180548251818502810185019093528083529394509092909183018282801561274157602002820191906000526020600020905b81548152602001906001019080831161272d575b5050505050905060005b81518110156127a8576000610108600084848151811061277b57634e487b7160e01b600052603260045260246000fd5b602002602001015181526020019081526020016000208190555080806127a090613c65565b91505061274b565b50336001600160a01b03167fe46c316e0026b6873715afa24fe53e01843fc6a22ecefc596077af4e9edd94cf836101066000868152602001908152602001600020600501426040516127fc93929190613ac9565b60405180910390a25050565b600061281461010a5490565b905090565b60006128258133612a1f565b5061010055565b60008181526101066020908152604091829020600501805483518184028101840190945280845260609392830182828015610e885760200282019190600052602060002090815481526020019060010190808311610e745750505050509050919050565b610105805461289e90613c30565b80601f01602080910402602001604051908101604052809291908181526020018280546128ca90613c30565b80156129175780601f106128ec57610100808354040283529160200191612917565b820191906000526020600020905b8154815290600101906020018083116128fa57829003601f168201915b505050505081565b600061292b8133612a1f565b5061013d80546001600160a01b0319169055565b600160005b825181101561121c5760fb54835133916001600160a01b031690636352211e9086908590811061298457634e487b7160e01b600052603260045260246000fd5b60200260200101516040518263ffffffff1660e01b81526004016129aa91815260200190565b60206040518083038186803b1580156129c257600080fd5b505afa1580156129d6573d6000803e3d6000fd5b505050506040513d601f19601f820116820180604052508101906129fa9190613224565b6001600160a01b031614612a0d57600091505b80612a1781613c65565b915050612944565b612a2982826117a8565b610ca257612a41816001600160a01b03166014612e10565b612a4c836020612e10565b604051602001612a5d9291906137ce565b60408051601f198184030181529082905262461bcd60e51b8252610a36916004016138ad565b600061186f8284613b37565b612a9982826117a8565b610ca25760008281526065602090815260408083206001600160a01b03851684529091529020805460ff19166001179055612ad13390565b6001600160a01b0316816001600160a01b0316837f2f8788117e7eff1d82e926ec794901d17c78024a50270940304540a733656f0d60405160405180910390a45050565b612b1f82826117a8565b15610ca25760008281526065602090815260408083206001600160a01b0385168085529252808320805460ff1916905551339285917ff6391f5c32d9c69d2a47ea670b442974b53935d1edc7fd64eb21e047a839171b9190a45050565b600054610100900460ff16612ba35760405162461bcd60e51b8152600401610a36906139ab565b565b600054610100900460ff16612bcc5760405162461bcd60e51b8152600401610a36906139ab565b612ba3612ff2565b610ca28282612a8f565b6040805161010081018252600080825260208201819052918101829052606081018290526080810182905260a0810182905260c0810182905260e0810182905281908180805b86518160ff161015612cbc576001846001612c688a8560ff1681518110612c5b57634e487b7160e01b600052603260045260246000fd5b6020026020010151612317565b612c729190613bca565b60ff1660088110612c9357634e487b7160e01b600052603260045260246000fd5b60200201818151612ca49190613b4f565b60ff1690525080612cb481613c80565b915050612c24565b5060005b60088160ff161015612d3e578260ff16848260ff1660088110612cf357634e487b7160e01b600052603260045260246000fd5b602002015160ff161115612d2c57838160ff1660088110612d2457634e487b7160e01b600052603260045260246000fd5b602002015192505b80612d3681613c80565b915050612cc0565b508160ff1660031415612d4f575060015b612d5a865182610e94565b9450612d653361212e565b9350505050915091565b6000805b825181101561121c576101036000848381518110612da157634e487b7160e01b600052603260045260246000fd5b60209081029190910181015182528101919091526040016000205460ff16151560011415612dda5761010254612dd79083613b37565b91505b80612de481613c65565b915050612d73565b600061186f8284613b94565b600061186f8284613bb3565b600061186f8284613b74565b60606000612e1f836002613b94565b612e2a906002613b37565b67ffffffffffffffff811115612e5057634e487b7160e01b600052604160045260246000fd5b6040519080825280601f01601f191660200182016040528015612e7a576020820181803683370190505b509050600360fc1b81600081518110612ea357634e487b7160e01b600052603260045260246000fd5b60200101906001600160f81b031916908160001a905350600f60fb1b81600181518110612ee057634e487b7160e01b600052603260045260246000fd5b60200101906001600160f81b031916908160001a9053506000612f04846002613b94565b612f0f906001613b37565b90505b6001811115612fa3576f181899199a1a9b1b9c1cb0b131b232b360811b85600f1660108110612f5157634e487b7160e01b600052603260045260246000fd5b1a60f81b828281518110612f7557634e487b7160e01b600052603260045260246000fd5b60200101906001600160f81b031916908160001a90535060049490941c93612f9c81613c19565b9050612f12565b50831561186f5760405162461bcd60e51b815260206004820181905260248201527f537472696e67733a20686578206c656e67746820696e73756666696369656e746044820152606401610a36565b600054610100900460ff166130195760405162461bcd60e51b8152600401610a36906139ab565b6001609755565b82805482825590600052602060002090810192821561305b579160200282015b8281111561305b578251825591602001919060010190613040565b50613067929150613184565b5090565b6040518060e0016040528060006001600160a01b031681526020016000815260200160008152602001600081526020016000815260200160608152602001600060018111156130ca57634e487b7160e01b600052602160045260246000fd5b905290565b82805482825590600052602060002090810192821561305b579160200282015b8281111561305b578251829061ffff169055916020019190600101906130ef565b82805461311c90613c30565b90600052602060002090601f01602090048101928261313e576000855561305b565b82601f106131575782800160ff1982351617855561305b565b8280016001018555821561305b579182015b8281111561305b578235825591602001919060010190613169565b5b808211156130675760008155600101613185565b600082601f8301126131a9578081fd5b813560206131be6131b983613b13565b613ae2565b80838252828201915082860187848660051b89010111156131dd578586fd5b855b858110156131fb578135845292840192908401906001016131df565b5090979650505050505050565b600060208284031215613219578081fd5b813561186f81613ccc565b600060208284031215613235578081fd5b815161186f81613ccc565b60008060008060808587031215613255578283fd5b843561326081613ccc565b935060208581013561327181613ccc565b935060408601359250606086013567ffffffffffffffff80821115613294578384fd5b818801915088601f8301126132a7578384fd5b8135818111156132b9576132b9613cb6565b6132cb601f8201601f19168501613ae2565b915080825289848285010111156132e0578485fd5b8084840185840137810190920192909252939692955090935050565b6000806040838503121561330e578182fd5b823561331981613ccc565b946020939093013593505050565b60008060006060848603121561333b578283fd5b833561334681613ccc565b925060208401359150604084013561335d81613ccc565b809150509250925092565b6000806040838503121561337a578182fd5b823567ffffffffffffffff80821115613391578384fd5b818501915085601f8301126133a4578384fd5b813560206133b46131b983613b13565b8083825282820191508286018a848660051b89010111156133d3578889fd5b8896505b848710156133fe5780356133ea81613ccc565b8352600196909601959183019183016133d7565b5096505086013592505080821115613414578283fd5b5061342185828601613199565b9150509250929050565b6000602080838503121561343d578182fd5b823567ffffffffffffffff80821115613454578384fd5b818501915085601f830112613467578384fd5b81356134756131b982613b13565b80828252858201915085850189878560051b8801011115613494578788fd5b875b848110156134cd578135868111156134ac57898afd5b6134ba8c8a838b0101613199565b8552509287019290870190600101613496565b50909998505050505050505050565b6000602082840312156134ed578081fd5b813567ffffffffffffffff811115613503578182fd5b61350f84828501613199565b949350505050565b60008060408385031215613529578182fd5b823567ffffffffffffffff80821115613540578384fd5b61354c86838701613199565b9350602091508185013581811115613562578384fd5b85019050601f81018613613574578283fd5b80356135826131b982613b13565b80828252848201915084840189868560051b87010111156135a1578687fd5b8694505b838510156135cc5780356135b881613ce4565b8352600194909401939185019185016135a5565b5080955050505050509250929050565b6000602082840312156135ed578081fd5b813561186f81613ce4565b600060208284031215613609578081fd5b815161186f81613ce4565b600060208284031215613625578081fd5b5035919050565b6000806040838503121561363e578182fd5b82359150602083013561365081613ccc565b809150509250929050565b60006020828403121561366c578081fd5b81356001600160e01b03198116811461186f578182fd5b60008060208385031215613695578182fd5b823567ffffffffffffffff808211156136ac578384fd5b818501915085601f8301126136bf578384fd5b8135818111156136cd578485fd5b8660208285010111156136de578485fd5b60209290920196919550909350505050565b60008060408385031215613702578182fd5b82359150602083013561365081613ce4565b6000815180845260208085019450808401835b8381101561374357815187529582019590820190600101613727565b509495945050505050565b6000815480845260208085019450838352808320835b8381101561374357815487529582019560019182019101613764565b60008151808452613798816020860160208601613bed565b601f01601f19169290920160200192915050565b600281106137ca57634e487b7160e01b600052602160045260246000fd5b9052565b7f416363657373436f6e74726f6c3a206163636f756e7420000000000000000000815260008351613806816017850160208801613bed565b7001034b99036b4b9b9b4b733903937b6329607d1b6017918401918201528351613837816028840160208801613bed565b01602801949350505050565b6001600160a01b03871681526020810186905260408101859052606081018490526080810183905260c0810161387c60a08301846137ac565b979650505050505050565b60208152600061186f6020830184613714565b60208152600061186f602083018461374e565b60208152600061186f6020830184613780565b602081016109fb82846137ac565b60208082526024908201527f53686f67756e5374616b696e673a20547261696e696e672069732064697361626040820152636c65642160e01b606082015260800190565b60208082526029908201527f53686f67756e5374616b696e673a20436c61696d616e74206973206e6f7420746040820152686865206f776e65722160b81b606082015260800190565b60208082526030908201527f53686f67756e5374616b696e673a20546f20616e6420616d6f756e74206c656e60408201526f677468206e6f74206d61746368696e6760801b606082015260800190565b6020808252602b908201527f496e697469616c697a61626c653a20636f6e7472616374206973206e6f74206960408201526a6e697469616c697a696e6760a81b606082015260800190565b6020808252601f908201527f5265656e7472616e637947756172643a207265656e7472616e742063616c6c00604082015260600190565b6020815260018060a01b038251166020820152602082015160408201526040820151606082015260608201516080820152608082015160a0820152600060a083015160e060c0840152613a84610100840182613714565b905060c0840151613a9860e08501826137ac565b509392505050565b838152606060208201526000613ab96060830185613714565b9050826040830152949350505050565b838152606060208201526000613ab9606083018561374e565b604051601f8201601f1916810167ffffffffffffffff81118282101715613b0b57613b0b613cb6565b604052919050565b600067ffffffffffffffff821115613b2d57613b2d613cb6565b5060051b60200190565b60008219821115613b4a57613b4a613ca0565b500190565b600060ff821660ff84168060ff03821115613b6c57613b6c613ca0565b019392505050565b600082613b8f57634e487b7160e01b81526012600452602481fd5b500490565b6000816000190483118215151615613bae57613bae613ca0565b500290565b600082821015613bc557613bc5613ca0565b500390565b600060ff821660ff841680821015613be457613be4613ca0565b90039392505050565b60005b83811015613c08578181015183820152602001613bf0565b838111156114a15750506000910152565b600081613c2857613c28613ca0565b506000190190565b600181811c90821680613c4457607f821691505b6020821081141561121c57634e487b7160e01b600052602260045260246000fd5b6000600019821415613c7957613c79613ca0565b5060010190565b600060ff821660ff811415613c9757613c97613ca0565b60010192915050565b634e487b7160e01b600052601160045260246000fd5b634e487b7160e01b600052604160045260246000fd5b6001600160a01b0381168114613ce157600080fd5b50565b8015158114613ce157600080fdfea2646970667358221220d25285c1f39023458b3eb3a97ba63065f2d436f2667e89f23fa1d90dbf42321864736f6c63430008040033",
  "devdoc": {
    "kind": "dev",
    "methods": {
      "airdrop(address[],uint256[])": {
        "details": "Airdrop SHO Tokens out of contract"
      },
      "areAvailiable(uint256[])": {
        "details": "Determines if the tokenIds are availiable for training"
      },
      "areOwned(uint256[])": {
        "details": "Determines if the all tokenIds are owned by msg sneder"
      },
      "calculateRewards(uint256)": {
        "details": "Caluclate rewards for given Family Id"
      },
      "claimAllRewards()": {
        "details": "QOL to claim all rewards"
      },
      "claimBonusSHO()": {
        "details": "Lets user claim bonus SHO"
      },
      "claimRewards(uint256)": {
        "details": "Claim SHO reward for given family Id"
      },
      "endMultipleTraining(uint256[])": {
        "details": "Claim tokens and leave train"
      },
      "endTraining(uint256)": {
        "details": "Claim tokens and leave train"
      },
      "getCountMultiplier(uint256,bool)": {
        "details": "Retrieves Count multiplier"
      },
      "getRoleAdmin(bytes32)": {
        "details": "Returns the admin role that controls `role`. See {grantRole} and {revokeRole}. To change a role's admin, use {_setRoleAdmin}."
      },
      "getTotalMedallionMultiplier(address)": {
        "details": "Retrieves Rare multiplier"
      },
      "grantRole(bytes32,address)": {
        "details": "Grants `role` to `account`. If `account` had not been already granted `role`, emits a {RoleGranted} event. Requirements: - the caller must have ``role``'s admin role."
      },
      "hasRole(bytes32,address)": {
        "details": "Returns `true` if `account` has been granted `role`."
      },
      "onERC721Received(address,address,uint256,bytes)": {
        "details": "See {IERC721Receiver-onERC721Received}. Always returns `IERC721Receiver.onERC721Received.selector`."
      },
      "renounceRole(bytes32,address)": {
        "details": "Revokes `role` from the calling account. Roles are often managed via {grantRole} and {revokeRole}: this function's purpose is to provide a mechanism for accounts to lose their privileges if they are compromised (such as when a trusted device is misplaced). If the calling account had been revoked `role`, emits a {RoleRevoked} event. Requirements: - the caller must be `account`."
      },
      "revokeRole(bytes32,address)": {
        "details": "Revokes `role` from `account`. If `account` had been granted `role`, emits a {RoleRevoked} event. Requirements: - the caller must have ``role``'s admin role."
      },
      "setBonusSHO(address[],uint256[])": {
        "details": "Set bonus SHO Tokens to be claimed"
      },
      "startTraining(uint256[])": {
        "details": "Start train"
      },
      "startTrainingMultiple(uint256[][])": {
        "details": "Start Multiple Training Sessions"
      },
      "supportsInterface(bytes4)": {
        "details": "See {IERC165-supportsInterface}."
      },
      "updateGuilds(bytes)": {
        "details": "Storing Guild Metadata as 1 byte hexes on a byte for gas optimization"
      }
    },
    "version": 1
  },
  "userdoc": {
    "kind": "user",
    "methods": {
      "endMultipleTraining(uint256[])": {
        "notice": "End train for SSs. You will stop acumulating SHO."
      },
      "endTraining(uint256)": {
        "notice": "End train for SSs. You will stop acumulating SHO."
      },
      "startTraining(uint256[])": {
        "notice": "Sends SSs (max. 5) on a train, SSs of the same Guild and if rare will get a bonus multiplier!"
      }
    },
    "version": 1
  },
  "storageLayout": {
    "storage": [
      {
        "astId": 408,
        "contract": "contracts/ShogunStakingV2.sol:ShogunStakingV2",
        "label": "_initialized",
        "offset": 0,
        "slot": "0",
        "type": "t_bool"
      },
      {
        "astId": 411,
        "contract": "contracts/ShogunStakingV2.sol:ShogunStakingV2",
        "label": "_initializing",
        "offset": 1,
        "slot": "0",
        "type": "t_bool"
      },
      {
        "astId": 883,
        "contract": "contracts/ShogunStakingV2.sol:ShogunStakingV2",
        "label": "__gap",
        "offset": 0,
        "slot": "1",
        "type": "t_array(t_uint256)50_storage"
      },
      {
        "astId": 1204,
        "contract": "contracts/ShogunStakingV2.sol:ShogunStakingV2",
        "label": "__gap",
        "offset": 0,
        "slot": "51",
        "type": "t_array(t_uint256)50_storage"
      },
      {
        "astId": 39,
        "contract": "contracts/ShogunStakingV2.sol:ShogunStakingV2",
        "label": "_roles",
        "offset": 0,
        "slot": "101",
        "type": "t_mapping(t_bytes32,t_struct(RoleData)34_storage)"
      },
      {
        "astId": 327,
        "contract": "contracts/ShogunStakingV2.sol:ShogunStakingV2",
        "label": "__gap",
        "offset": 0,
        "slot": "102",
        "type": "t_array(t_uint256)49_storage"
      },
      {
        "astId": 489,
        "contract": "contracts/ShogunStakingV2.sol:ShogunStakingV2",
        "label": "_status",
        "offset": 0,
        "slot": "151",
        "type": "t_uint256"
      },
      {
        "astId": 533,
        "contract": "contracts/ShogunStakingV2.sol:ShogunStakingV2",
        "label": "__gap",
        "offset": 0,
        "slot": "152",
        "type": "t_array(t_uint256)49_storage"
      },
      {
        "astId": 598,
        "contract": "contracts/ShogunStakingV2.sol:ShogunStakingV2",
        "label": "__gap",
        "offset": 0,
        "slot": "201",
        "type": "t_array(t_uint256)50_storage"
      },
      {
        "astId": 8041,
        "contract": "contracts/ShogunStakingV2.sol:ShogunStakingV2",
        "label": "SS",
        "offset": 0,
        "slot": "251",
        "type": "t_contract(IShogunNFT)9687"
      },
      {
        "astId": 8044,
        "contract": "contracts/ShogunStakingV2.sol:ShogunStakingV2",
        "label": "SHO",
        "offset": 0,
        "slot": "252",
        "type": "t_contract(IShogunToken)9733"
      },
      {
        "astId": 8046,
        "contract": "contracts/ShogunStakingV2.sol:ShogunStakingV2",
        "label": "baseReward",
        "offset": 0,
        "slot": "253",
        "type": "t_uint256"
      },
      {
        "astId": 8048,
        "contract": "contracts/ShogunStakingV2.sol:ShogunStakingV2",
        "label": "timescale",
        "offset": 0,
        "slot": "254",
        "type": "t_uint256"
      },
      {
        "astId": 8051,
        "contract": "contracts/ShogunStakingV2.sol:ShogunStakingV2",
        "label": "countMultipliers",
        "offset": 0,
        "slot": "255",
        "type": "t_array(t_uint256)dyn_storage"
      },
      {
        "astId": 8053,
        "contract": "contracts/ShogunStakingV2.sol:ShogunStakingV2",
        "label": "guildMultiplier",
        "offset": 0,
        "slot": "256",
        "type": "t_uint256"
      },
      {
        "astId": 8055,
        "contract": "contracts/ShogunStakingV2.sol:ShogunStakingV2",
        "label": "medallionMultiplier",
        "offset": 0,
        "slot": "257",
        "type": "t_uint256"
      },
      {
        "astId": 8057,
        "contract": "contracts/ShogunStakingV2.sol:ShogunStakingV2",
        "label": "shogunBonus",
        "offset": 0,
        "slot": "258",
        "type": "t_uint256"
      },
      {
        "astId": 8061,
        "contract": "contracts/ShogunStakingV2.sol:ShogunStakingV2",
        "label": "isLegendarySamurai",
        "offset": 0,
        "slot": "259",
        "type": "t_mapping(t_uint256,t_bool)"
      },
      {
        "astId": 8065,
        "contract": "contracts/ShogunStakingV2.sol:ShogunStakingV2",
        "label": "medallionCount",
        "offset": 0,
        "slot": "260",
        "type": "t_mapping(t_address,t_uint256)"
      },
      {
        "astId": 8067,
        "contract": "contracts/ShogunStakingV2.sol:ShogunStakingV2",
        "label": "guilds",
        "offset": 0,
        "slot": "261",
        "type": "t_bytes_storage"
      },
      {
        "astId": 8072,
        "contract": "contracts/ShogunStakingV2.sol:ShogunStakingV2",
        "label": "families",
        "offset": 0,
        "slot": "262",
        "type": "t_mapping(t_uint256,t_struct(Family)8018_storage)"
      },
      {
        "astId": 8077,
        "contract": "contracts/ShogunStakingV2.sol:ShogunStakingV2",
        "label": "userFamilies",
        "offset": 0,
        "slot": "263",
        "type": "t_mapping(t_address,t_array(t_uint256)dyn_storage)"
      },
      {
        "astId": 8081,
        "contract": "contracts/ShogunStakingV2.sol:ShogunStakingV2",
        "label": "onTraining",
        "offset": 0,
        "slot": "264",
        "type": "t_mapping(t_uint256,t_uint256)"
      },
      {
        "astId": 8085,
        "contract": "contracts/ShogunStakingV2.sol:ShogunStakingV2",
        "label": "bonusSHO",
        "offset": 0,
        "slot": "265",
        "type": "t_mapping(t_address,t_uint256)"
      },
      {
        "astId": 8088,
        "contract": "contracts/ShogunStakingV2.sol:ShogunStakingV2",
        "label": "_familyId",
        "offset": 0,
        "slot": "266",
        "type": "t_struct(Counter)890_storage"
      },
      {
        "astId": 8092,
        "contract": "contracts/ShogunStakingV2.sol:ShogunStakingV2",
        "label": "______gap",
        "offset": 0,
        "slot": "267",
        "type": "t_array(t_uint256)50_storage"
      },
      {
        "astId": 8094,
        "contract": "contracts/ShogunStakingV2.sol:ShogunStakingV2",
        "label": "unstaker",
        "offset": 0,
        "slot": "317",
        "type": "t_address"
      },
      {
        "astId": 8096,
        "contract": "contracts/ShogunStakingV2.sol:ShogunStakingV2",
        "label": "trainingEnabled",
        "offset": 20,
        "slot": "317",
        "type": "t_bool"
      },
      {
        "astId": 8100,
        "contract": "contracts/ShogunStakingV2.sol:ShogunStakingV2",
        "label": "lastClaim",
        "offset": 0,
        "slot": "318",
        "type": "t_mapping(t_uint256,t_uint256)"
      }
    ],
    "types": {
      "t_address": {
        "encoding": "inplace",
        "label": "address",
        "numberOfBytes": "20"
      },
      "t_array(t_uint256)49_storage": {
        "base": "t_uint256",
        "encoding": "inplace",
        "label": "uint256[49]",
        "numberOfBytes": "1568"
      },
      "t_array(t_uint256)50_storage": {
        "base": "t_uint256",
        "encoding": "inplace",
        "label": "uint256[50]",
        "numberOfBytes": "1600"
      },
      "t_array(t_uint256)dyn_storage": {
        "base": "t_uint256",
        "encoding": "dynamic_array",
        "label": "uint256[]",
        "numberOfBytes": "32"
      },
      "t_bool": {
        "encoding": "inplace",
        "label": "bool",
        "numberOfBytes": "1"
      },
      "t_bytes32": {
        "encoding": "inplace",
        "label": "bytes32",
        "numberOfBytes": "32"
      },
      "t_bytes_storage": {
        "encoding": "bytes",
        "label": "bytes",
        "numberOfBytes": "32"
      },
      "t_contract(IShogunNFT)9687": {
        "encoding": "inplace",
        "label": "contract IShogunNFT",
        "numberOfBytes": "20"
      },
      "t_contract(IShogunToken)9733": {
        "encoding": "inplace",
        "label": "contract IShogunToken",
        "numberOfBytes": "20"
      },
      "t_enum(TrainState)8038": {
        "encoding": "inplace",
        "label": "enum ShogunStakingV2.TrainState",
        "numberOfBytes": "1"
      },
      "t_mapping(t_address,t_array(t_uint256)dyn_storage)": {
        "encoding": "mapping",
        "key": "t_address",
        "label": "mapping(address => uint256[])",
        "numberOfBytes": "32",
        "value": "t_array(t_uint256)dyn_storage"
      },
      "t_mapping(t_address,t_bool)": {
        "encoding": "mapping",
        "key": "t_address",
        "label": "mapping(address => bool)",
        "numberOfBytes": "32",
        "value": "t_bool"
      },
      "t_mapping(t_address,t_uint256)": {
        "encoding": "mapping",
        "key": "t_address",
        "label": "mapping(address => uint256)",
        "numberOfBytes": "32",
        "value": "t_uint256"
      },
      "t_mapping(t_bytes32,t_struct(RoleData)34_storage)": {
        "encoding": "mapping",
        "key": "t_bytes32",
        "label": "mapping(bytes32 => struct AccessControlUpgradeable.RoleData)",
        "numberOfBytes": "32",
        "value": "t_struct(RoleData)34_storage"
      },
      "t_mapping(t_uint256,t_bool)": {
        "encoding": "mapping",
        "key": "t_uint256",
        "label": "mapping(uint256 => bool)",
        "numberOfBytes": "32",
        "value": "t_bool"
      },
      "t_mapping(t_uint256,t_struct(Family)8018_storage)": {
        "encoding": "mapping",
        "key": "t_uint256",
        "label": "mapping(uint256 => struct ShogunStakingV2.Family)",
        "numberOfBytes": "32",
        "value": "t_struct(Family)8018_storage"
      },
      "t_mapping(t_uint256,t_uint256)": {
        "encoding": "mapping",
        "key": "t_uint256",
        "label": "mapping(uint256 => uint256)",
        "numberOfBytes": "32",
        "value": "t_uint256"
      },
      "t_struct(Counter)890_storage": {
        "encoding": "inplace",
        "label": "struct CountersUpgradeable.Counter",
        "members": [
          {
            "astId": 889,
            "contract": "contracts/ShogunStakingV2.sol:ShogunStakingV2",
            "label": "_value",
            "offset": 0,
            "slot": "0",
            "type": "t_uint256"
          }
        ],
        "numberOfBytes": "32"
      },
      "t_struct(Family)8018_storage": {
        "encoding": "inplace",
        "label": "struct ShogunStakingV2.Family",
        "members": [
          {
            "astId": 8003,
            "contract": "contracts/ShogunStakingV2.sol:ShogunStakingV2",
            "label": "familyOwner",
            "offset": 0,
            "slot": "0",
            "type": "t_address"
          },
          {
            "astId": 8005,
            "contract": "contracts/ShogunStakingV2.sol:ShogunStakingV2",
            "label": "lastClaim",
            "offset": 0,
            "slot": "1",
            "type": "t_uint256"
          },
          {
            "astId": 8007,
            "contract": "contracts/ShogunStakingV2.sol:ShogunStakingV2",
            "label": "guildMultiplier",
            "offset": 0,
            "slot": "2",
            "type": "t_uint256"
          },
          {
            "astId": 8009,
            "contract": "contracts/ShogunStakingV2.sol:ShogunStakingV2",
            "label": "medallionMultiplier",
            "offset": 0,
            "slot": "3",
            "type": "t_uint256"
          },
          {
            "astId": 8011,
            "contract": "contracts/ShogunStakingV2.sol:ShogunStakingV2",
            "label": "shogunBonus",
            "offset": 0,
            "slot": "4",
            "type": "t_uint256"
          },
          {
            "astId": 8014,
            "contract": "contracts/ShogunStakingV2.sol:ShogunStakingV2",
            "label": "shogunIds",
            "offset": 0,
            "slot": "5",
            "type": "t_array(t_uint256)dyn_storage"
          },
          {
            "astId": 8017,
            "contract": "contracts/ShogunStakingV2.sol:ShogunStakingV2",
            "label": "trainState",
            "offset": 0,
            "slot": "6",
            "type": "t_enum(TrainState)8038"
          }
        ],
        "numberOfBytes": "224"
      },
      "t_struct(RoleData)34_storage": {
        "encoding": "inplace",
        "label": "struct AccessControlUpgradeable.RoleData",
        "members": [
          {
            "astId": 31,
            "contract": "contracts/ShogunStakingV2.sol:ShogunStakingV2",
            "label": "members",
            "offset": 0,
            "slot": "0",
            "type": "t_mapping(t_address,t_bool)"
          },
          {
            "astId": 33,
            "contract": "contracts/ShogunStakingV2.sol:ShogunStakingV2",
            "label": "adminRole",
            "offset": 0,
            "slot": "1",
            "type": "t_bytes32"
          }
        ],
        "numberOfBytes": "64"
      },
      "t_uint256": {
        "encoding": "inplace",
        "label": "uint256",
        "numberOfBytes": "32"
      }
    }
  }
}