{
  "address": "0x8949dAD04f5f78425df67720849668c5A10fB10F",
  "abi": [
    {
      "anonymous": false,
      "inputs": [
        {
          "indexed": true,
          "internalType": "address",
          "name": "owner",
          "type": "address"
        },
        {
          "indexed": true,
          "internalType": "address",
          "name": "spender",
          "type": "address"
        },
        {
          "indexed": false,
          "internalType": "uint256",
          "name": "value",
          "type": "uint256"
        }
      ],
      "name": "Approval",
      "type": "event"
    },
    {
      "anonymous": false,
      "inputs": [
        {
          "indexed": true,
          "internalType": "address",
          "name": "delegator",
          "type": "address"
        },
        {
          "indexed": true,
          "internalType": "address",
          "name": "fromDelegate",
          "type": "address"
        },
        {
          "indexed": true,
          "internalType": "address",
          "name": "toDelegate",
          "type": "address"
        }
      ],
      "name": "DelegateChanged",
      "type": "event"
    },
    {
      "anonymous": false,
      "inputs": [
        {
          "indexed": true,
          "internalType": "address",
          "name": "delegate",
          "type": "address"
        },
        {
          "indexed": false,
          "internalType": "uint256",
          "name": "previousBalance",
          "type": "uint256"
        },
        {
          "indexed": false,
          "internalType": "uint256",
          "name": "newBalance",
          "type": "uint256"
        }
      ],
      "name": "DelegateVotesChanged",
      "type": "event"
    },
    {
      "anonymous": false,
      "inputs": [
        {
          "indexed": true,
          "internalType": "address",
          "name": "user",
          "type": "address"
        },
        {
          "indexed": false,
          "internalType": "uint256",
          "name": "reward",
          "type": "uint256"
        }
      ],
      "name": "Minted",
      "type": "event"
    },
    {
      "anonymous": false,
      "inputs": [
        {
          "indexed": false,
          "internalType": "address",
          "name": "account",
          "type": "address"
        }
      ],
      "name": "Paused",
      "type": "event"
    },
    {
      "anonymous": false,
      "inputs": [
        {
          "indexed": true,
          "internalType": "bytes32",
          "name": "role",
          "type": "bytes32"
        },
        {
          "indexed": true,
          "internalType": "bytes32",
          "name": "previousAdminRole",
          "type": "bytes32"
        },
        {
          "indexed": true,
          "internalType": "bytes32",
          "name": "newAdminRole",
          "type": "bytes32"
        }
      ],
      "name": "RoleAdminChanged",
      "type": "event"
    },
    {
      "anonymous": false,
      "inputs": [
        {
          "indexed": true,
          "internalType": "bytes32",
          "name": "role",
          "type": "bytes32"
        },
        {
          "indexed": true,
          "internalType": "address",
          "name": "account",
          "type": "address"
        },
        {
          "indexed": true,
          "internalType": "address",
          "name": "sender",
          "type": "address"
        }
      ],
      "name": "RoleGranted",
      "type": "event"
    },
    {
      "anonymous": false,
      "inputs": [
        {
          "indexed": true,
          "internalType": "bytes32",
          "name": "role",
          "type": "bytes32"
        },
        {
          "indexed": true,
          "internalType": "address",
          "name": "account",
          "type": "address"
        },
        {
          "indexed": true,
          "internalType": "address",
          "name": "sender",
          "type": "address"
        }
      ],
      "name": "RoleRevoked",
      "type": "event"
    },
    {
      "anonymous": false,
      "inputs": [
        {
          "indexed": false,
          "internalType": "uint256",
          "name": "id",
          "type": "uint256"
        }
      ],
      "name": "Snapshot",
      "type": "event"
    },
    {
      "anonymous": false,
      "inputs": [
        {
          "indexed": true,
          "internalType": "address",
          "name": "from",
          "type": "address"
        },
        {
          "indexed": true,
          "internalType": "address",
          "name": "to",
          "type": "address"
        },
        {
          "indexed": false,
          "internalType": "uint256",
          "name": "value",
          "type": "uint256"
        }
      ],
      "name": "Transfer",
      "type": "event"
    },
    {
      "anonymous": false,
      "inputs": [
        {
          "indexed": false,
          "internalType": "address",
          "name": "account",
          "type": "address"
        }
      ],
      "name": "Unpaused",
      "type": "event"
    },
    {
      "inputs": [],
      "name": "DEFAULT_ADMIN_ROLE",
      "outputs": [
        {
          "internalType": "bytes32",
          "name": "",
          "type": "bytes32"
        }
      ],
      "stateMutability": "view",
      "type": "function"
    },
    {
      "inputs": [],
      "name": "DOMAIN_SEPARATOR",
      "outputs": [
        {
          "internalType": "bytes32",
          "name": "",
          "type": "bytes32"
        }
      ],
      "stateMutability": "view",
      "type": "function"
    },
    {
      "inputs": [],
      "name": "MAX_SUPPLY",
      "outputs": [
        {
          "internalType": "uint256",
          "name": "",
          "type": "uint256"
        }
      ],
      "stateMutability": "view",
      "type": "function"
    },
    {
      "inputs": [],
      "name": "MINTER_ROLE",
      "outputs": [
        {
          "internalType": "bytes32",
          "name": "",
          "type": "bytes32"
        }
      ],
      "stateMutability": "view",
      "type": "function"
    },
    {
      "inputs": [],
      "name": "PAUSER_ROLE",
      "outputs": [
        {
          "internalType": "bytes32",
          "name": "",
          "type": "bytes32"
        }
      ],
      "stateMutability": "view",
      "type": "function"
    },
    {
      "inputs": [],
      "name": "SNAPSHOT_ROLE",
      "outputs": [
        {
          "internalType": "bytes32",
          "name": "",
          "type": "bytes32"
        }
      ],
      "stateMutability": "view",
      "type": "function"
    },
    {
      "inputs": [
        {
          "internalType": "uint256",
          "name": "maxSupply",
          "type": "uint256"
        },
        {
          "internalType": "address",
          "name": "admin",
          "type": "address"
        },
        {
          "internalType": "address",
          "name": "treasury",
          "type": "address"
        }
      ],
      "name": "__ShogunToken_init",
      "outputs": [],
      "stateMutability": "nonpayable",
      "type": "function"
    },
    {
      "inputs": [
        {
          "internalType": "address",
          "name": "owner",
          "type": "address"
        },
        {
          "internalType": "address",
          "name": "spender",
          "type": "address"
        }
      ],
      "name": "allowance",
      "outputs": [
        {
          "internalType": "uint256",
          "name": "",
          "type": "uint256"
        }
      ],
      "stateMutability": "view",
      "type": "function"
    },
    {
      "inputs": [
        {
          "internalType": "address",
          "name": "spender",
          "type": "address"
        },
        {
          "internalType": "uint256",
          "name": "amount",
          "type": "uint256"
        }
      ],
      "name": "approve",
      "outputs": [
        {
          "internalType": "bool",
          "name": "",
          "type": "bool"
        }
      ],
      "stateMutability": "nonpayable",
      "type": "function"
    },
    {
      "inputs": [
        {
          "internalType": "address",
          "name": "account",
          "type": "address"
        }
      ],
      "name": "balanceOf",
      "outputs": [
        {
          "internalType": "uint256",
          "name": "",
          "type": "uint256"
        }
      ],
      "stateMutability": "view",
      "type": "function"
    },
    {
      "inputs": [
        {
          "internalType": "address",
          "name": "account",
          "type": "address"
        },
        {
          "internalType": "uint256",
          "name": "snapshotId",
          "type": "uint256"
        }
      ],
      "name": "balanceOfAt",
      "outputs": [
        {
          "internalType": "uint256",
          "name": "",
          "type": "uint256"
        }
      ],
      "stateMutability": "view",
      "type": "function"
    },
    {
      "inputs": [
        {
          "internalType": "uint256",
          "name": "amount",
          "type": "uint256"
        }
      ],
      "name": "burn",
      "outputs": [],
      "stateMutability": "nonpayable",
      "type": "function"
    },
    {
      "inputs": [
        {
          "internalType": "address",
          "name": "account",
          "type": "address"
        },
        {
          "internalType": "uint256",
          "name": "amount",
          "type": "uint256"
        }
      ],
      "name": "burnFrom",
      "outputs": [],
      "stateMutability": "nonpayable",
      "type": "function"
    },
    {
      "inputs": [
        {
          "internalType": "address",
          "name": "account",
          "type": "address"
        },
        {
          "internalType": "uint32",
          "name": "pos",
          "type": "uint32"
        }
      ],
      "name": "checkpoints",
      "outputs": [
        {
          "components": [
            {
              "internalType": "uint32",
              "name": "fromBlock",
              "type": "uint32"
            },
            {
              "internalType": "uint224",
              "name": "votes",
              "type": "uint224"
            }
          ],
          "internalType": "struct ERC20VotesUpgradeable.Checkpoint",
          "name": "",
          "type": "tuple"
        }
      ],
      "stateMutability": "view",
      "type": "function"
    },
    {
      "inputs": [],
      "name": "decimals",
      "outputs": [
        {
          "internalType": "uint8",
          "name": "",
          "type": "uint8"
        }
      ],
      "stateMutability": "view",
      "type": "function"
    },
    {
      "inputs": [
        {
          "internalType": "address",
          "name": "spender",
          "type": "address"
        },
        {
          "internalType": "uint256",
          "name": "subtractedValue",
          "type": "uint256"
        }
      ],
      "name": "decreaseAllowance",
      "outputs": [
        {
          "internalType": "bool",
          "name": "",
          "type": "bool"
        }
      ],
      "stateMutability": "nonpayable",
      "type": "function"
    },
    {
      "inputs": [
        {
          "internalType": "address",
          "name": "delegatee",
          "type": "address"
        }
      ],
      "name": "delegate",
      "outputs": [],
      "stateMutability": "nonpayable",
      "type": "function"
    },
    {
      "inputs": [
        {
          "internalType": "address",
          "name": "delegatee",
          "type": "address"
        },
        {
          "internalType": "uint256",
          "name": "nonce",
          "type": "uint256"
        },
        {
          "internalType": "uint256",
          "name": "expiry",
          "type": "uint256"
        },
        {
          "internalType": "uint8",
          "name": "v",
          "type": "uint8"
        },
        {
          "internalType": "bytes32",
          "name": "r",
          "type": "bytes32"
        },
        {
          "internalType": "bytes32",
          "name": "s",
          "type": "bytes32"
        }
      ],
      "name": "delegateBySig",
      "outputs": [],
      "stateMutability": "nonpayable",
      "type": "function"
    },
    {
      "inputs": [
        {
          "internalType": "address",
          "name": "account",
          "type": "address"
        }
      ],
      "name": "delegates",
      "outputs": [
        {
          "internalType": "address",
          "name": "",
          "type": "address"
        }
      ],
      "stateMutability": "view",
      "type": "function"
    },
    {
      "inputs": [
        {
          "internalType": "uint256",
          "name": "blockNumber",
          "type": "uint256"
        }
      ],
      "name": "getPastTotalSupply",
      "outputs": [
        {
          "internalType": "uint256",
          "name": "",
          "type": "uint256"
        }
      ],
      "stateMutability": "view",
      "type": "function"
    },
    {
      "inputs": [
        {
          "internalType": "address",
          "name": "account",
          "type": "address"
        },
        {
          "internalType": "uint256",
          "name": "blockNumber",
          "type": "uint256"
        }
      ],
      "name": "getPastVotes",
      "outputs": [
        {
          "internalType": "uint256",
          "name": "",
          "type": "uint256"
        }
      ],
      "stateMutability": "view",
      "type": "function"
    },
    {
      "inputs": [
        {
          "internalType": "bytes32",
          "name": "role",
          "type": "bytes32"
        }
      ],
      "name": "getRoleAdmin",
      "outputs": [
        {
          "internalType": "bytes32",
          "name": "",
          "type": "bytes32"
        }
      ],
      "stateMutability": "view",
      "type": "function"
    },
    {
      "inputs": [
        {
          "internalType": "address",
          "name": "account",
          "type": "address"
        }
      ],
      "name": "getVotes",
      "outputs": [
        {
          "internalType": "uint256",
          "name": "",
          "type": "uint256"
        }
      ],
      "stateMutability": "view",
      "type": "function"
    },
    {
      "inputs": [
        {
          "internalType": "bytes32",
          "name": "role",
          "type": "bytes32"
        },
        {
          "internalType": "address",
          "name": "account",
          "type": "address"
        }
      ],
      "name": "grantRole",
      "outputs": [],
      "stateMutability": "nonpayable",
      "type": "function"
    },
    {
      "inputs": [
        {
          "internalType": "bytes32",
          "name": "role",
          "type": "bytes32"
        },
        {
          "internalType": "address",
          "name": "account",
          "type": "address"
        }
      ],
      "name": "hasRole",
      "outputs": [
        {
          "internalType": "bool",
          "name": "",
          "type": "bool"
        }
      ],
      "stateMutability": "view",
      "type": "function"
    },
    {
      "inputs": [
        {
          "internalType": "address",
          "name": "spender",
          "type": "address"
        },
        {
          "internalType": "uint256",
          "name": "addedValue",
          "type": "uint256"
        }
      ],
      "name": "increaseAllowance",
      "outputs": [
        {
          "internalType": "bool",
          "name": "",
          "type": "bool"
        }
      ],
      "stateMutability": "nonpayable",
      "type": "function"
    },
    {
      "inputs": [
        {
          "internalType": "address",
          "name": "to",
          "type": "address"
        },
        {
          "internalType": "uint256",
          "name": "amount",
          "type": "uint256"
        }
      ],
      "name": "mint",
      "outputs": [],
      "stateMutability": "nonpayable",
      "type": "function"
    },
    {
      "inputs": [],
      "name": "name",
      "outputs": [
        {
          "internalType": "string",
          "name": "",
          "type": "string"
        }
      ],
      "stateMutability": "view",
      "type": "function"
    },
    {
      "inputs": [
        {
          "internalType": "address",
          "name": "owner",
          "type": "address"
        }
      ],
      "name": "nonces",
      "outputs": [
        {
          "internalType": "uint256",
          "name": "",
          "type": "uint256"
        }
      ],
      "stateMutability": "view",
      "type": "function"
    },
    {
      "inputs": [
        {
          "internalType": "address",
          "name": "account",
          "type": "address"
        }
      ],
      "name": "numCheckpoints",
      "outputs": [
        {
          "internalType": "uint32",
          "name": "",
          "type": "uint32"
        }
      ],
      "stateMutability": "view",
      "type": "function"
    },
    {
      "inputs": [],
      "name": "pause",
      "outputs": [],
      "stateMutability": "nonpayable",
      "type": "function"
    },
    {
      "inputs": [],
      "name": "paused",
      "outputs": [
        {
          "internalType": "bool",
          "name": "",
          "type": "bool"
        }
      ],
      "stateMutability": "view",
      "type": "function"
    },
    {
      "inputs": [
        {
          "internalType": "address",
          "name": "owner",
          "type": "address"
        },
        {
          "internalType": "address",
          "name": "spender",
          "type": "address"
        },
        {
          "internalType": "uint256",
          "name": "value",
          "type": "uint256"
        },
        {
          "internalType": "uint256",
          "name": "deadline",
          "type": "uint256"
        },
        {
          "internalType": "uint8",
          "name": "v",
          "type": "uint8"
        },
        {
          "internalType": "bytes32",
          "name": "r",
          "type": "bytes32"
        },
        {
          "internalType": "bytes32",
          "name": "s",
          "type": "bytes32"
        }
      ],
      "name": "permit",
      "outputs": [],
      "stateMutability": "nonpayable",
      "type": "function"
    },
    {
      "inputs": [
        {
          "internalType": "bytes32",
          "name": "role",
          "type": "bytes32"
        },
        {
          "internalType": "address",
          "name": "account",
          "type": "address"
        }
      ],
      "name": "renounceRole",
      "outputs": [],
      "stateMutability": "nonpayable",
      "type": "function"
    },
    {
      "inputs": [
        {
          "internalType": "bytes32",
          "name": "role",
          "type": "bytes32"
        },
        {
          "internalType": "address",
          "name": "account",
          "type": "address"
        }
      ],
      "name": "revokeRole",
      "outputs": [],
      "stateMutability": "nonpayable",
      "type": "function"
    },
    {
      "inputs": [],
      "name": "snapshot",
      "outputs": [],
      "stateMutability": "nonpayable",
      "type": "function"
    },
    {
      "inputs": [
        {
          "internalType": "bytes4",
          "name": "interfaceId",
          "type": "bytes4"
        }
      ],
      "name": "supportsInterface",
      "outputs": [
        {
          "internalType": "bool",
          "name": "",
          "type": "bool"
        }
      ],
      "stateMutability": "view",
      "type": "function"
    },
    {
      "inputs": [],
      "name": "symbol",
      "outputs": [
        {
          "internalType": "string",
          "name": "",
          "type": "string"
        }
      ],
      "stateMutability": "view",
      "type": "function"
    },
    {
      "inputs": [],
      "name": "totalSupply",
      "outputs": [
        {
          "internalType": "uint256",
          "name": "",
          "type": "uint256"
        }
      ],
      "stateMutability": "view",
      "type": "function"
    },
    {
      "inputs": [
        {
          "internalType": "uint256",
          "name": "snapshotId",
          "type": "uint256"
        }
      ],
      "name": "totalSupplyAt",
      "outputs": [
        {
          "internalType": "uint256",
          "name": "",
          "type": "uint256"
        }
      ],
      "stateMutability": "view",
      "type": "function"
    },
    {
      "inputs": [
        {
          "internalType": "address",
          "name": "recipient",
          "type": "address"
        },
        {
          "internalType": "uint256",
          "name": "amount",
          "type": "uint256"
        }
      ],
      "name": "transfer",
      "outputs": [
        {
          "internalType": "bool",
          "name": "",
          "type": "bool"
        }
      ],
      "stateMutability": "nonpayable",
      "type": "function"
    },
    {
      "inputs": [
        {
          "internalType": "address",
          "name": "sender",
          "type": "address"
        },
        {
          "internalType": "address",
          "name": "recipient",
          "type": "address"
        },
        {
          "internalType": "uint256",
          "name": "amount",
          "type": "uint256"
        }
      ],
      "name": "transferFrom",
      "outputs": [
        {
          "internalType": "bool",
          "name": "",
          "type": "bool"
        }
      ],
      "stateMutability": "nonpayable",
      "type": "function"
    },
    {
      "inputs": [],
      "name": "unpause",
      "outputs": [],
      "stateMutability": "nonpayable",
      "type": "function"
    }
  ],
  "transactionHash": "0xa55939896dec1763d395c2b44b47d5b3f8b5b5972983f404e8a3aa3cb1679e20",
  "args": [],
  "solcInputHash": "34fcfe5376f8788a1869e39f17ac1c8d",
  "bytecode": "0x608060405234801561001057600080fd5b50613761806100206000396000f3fe608060405234801561001057600080fd5b50600436106102695760003560e01c80636fcfff45116101515780639ab24eb0116100c3578063d505accf11610087578063d505accf14610502578063d539139314610515578063d547741f1461051d578063dd62ed3e14610530578063e63ab1e914610543578063f1127ed81461054b57610269565b80639ab24eb0146104ae578063a217fddf146104c1578063a457c2d7146104c9578063a9059cbb146104dc578063c3cda520146104ef57610269565b80638456cb59116101155780638456cb591461045d5780638e539e8c1461046557806391d148541461047857806395d89b411461048b5780639711715a14610493578063981b24d01461049b57610269565b80636fcfff45146103fc5780637028e2cd1461041c57806370a082311461042457806379cc6790146104375780637ecebe001461044a57610269565b806336568abe116101ea57806342966c68116101ae57806342966c681461038857806347bf421e1461039b5780634ee2cd7e146103ae578063587cde1e146103c15780635c19a95c146103e15780635c975abb146103f457610269565b806336568abe1461033457806339509351146103475780633a46b1a81461035a5780633f4ba83a1461036d57806340c10f191461037557610269565b8063248a9ca311610231578063248a9ca3146102e75780632f2ff15d146102fa578063313ce5671461030f57806332cb6b0c146103245780633644e5151461032c57610269565b806301ffc9a71461026e57806306fdde0314610297578063095ea7b3146102ac57806318160ddd146102bf57806323b872dd146102d4575b600080fd5b61028161027c366004612c43565b61056b565b60405161028e9190612d4a565b60405180910390f35b61029f610598565b60405161028e9190612e00565b6102816102ba366004612b4b565b61062a565b6102c7610648565b60405161028e9190612d55565b6102816102e2366004612aa7565b61064e565b6102c76102f5366004612c09565b6106e7565b61030d610308366004612c21565b6106fc565b005b610317610725565b60405161028e9190613601565b6102c761072a565b6102c7610731565b61030d610342366004612c21565b610740565b610281610355366004612b4b565b610786565b6102c7610368366004612b4b565b6107da565b61030d610825565b61030d610383366004612b4b565b61084b565b61030d610396366004612c09565b6108c8565b61030d6103a9366004612c6b565b6108d9565b6102c76103bc366004612b4b565b610a73565b6103d46103cf366004612a5b565b610abc565b60405161028e9190612d36565b61030d6103ef366004612a5b565b610adb565b610281610aec565b61040f61040a366004612a5b565b610af6565b60405161028e91906135f0565b6102c7610b19565b6102c7610432366004612a5b565b610b3d565b61030d610445366004612b4b565b610b58565b6102c7610458366004612a5b565b610ba6565b61030d610bc8565b6102c7610473366004612c09565b610beb565b610281610486366004612c21565b610c18565b61029f610c43565b61030d610c52565b6102c76104a9366004612c09565b610c87565b6102c76104bc366004612a5b565b610cb7565b6102c7610d4e565b6102816104d7366004612b4b565b610d53565b6102816104ea366004612b4b565b610dcc565b61030d6104fd366004612b74565b610de0565b61030d610510366004612ae2565b610e9e565b6102c7610f63565b61030d61052b366004612c21565b610f87565b6102c761053e366004612a75565b610fa6565b6102c7610fd1565b61055e610559366004612bcb565b610fe3565b60405161028e91906135bc565b60006001600160e01b03198216637965db0b60e01b148061059057506105908261106a565b90505b919050565b6060603680546105a7906136c0565b80601f01602080910402602001604051908101604052809291908181526020018280546105d3906136c0565b80156106205780601f106105f557610100808354040283529160200191610620565b820191906000526020600020905b81548152906001019060200180831161060357829003601f168201915b5050505050905090565b600061063e610637611083565b8484611087565b5060015b92915050565b60355490565b600061065b84848461113b565b6001600160a01b03841660009081526034602052604081208161067c611083565b6001600160a01b03166001600160a01b03168152602001908152602001600020549050828110156106c85760405162461bcd60e51b81526004016106bf90613257565b60405180910390fd5b6106dc856106d4611083565b858403611087565b506001949350505050565b600090815260fb602052604090206001015490565b610705826106e7565b61071681610711611083565b61125f565b61072083836112c3565b505050565b601290565b6101f85481565b600061073b61134a565b905090565b610748611083565b6001600160a01b0316816001600160a01b0316146107785760405162461bcd60e51b81526004016106bf90613536565b6107828282611385565b5050565b600061063e610793611083565b8484603460006107a1611083565b6001600160a01b03908116825260208083019390935260409182016000908120918b16815292529020546107d5919061360f565b611087565b60004382106107fb5760405162461bcd60e51b81526004016106bf90612f19565b6001600160a01b03831660009081526101c76020526040902061081e908361140a565b9392505050565b60008051602061370c83398151915261084081610711611083565b6108486114e3565b50565b7f9f2df0fed2c77648de5860a4cc508cd0818c85b8b8a1ab4ceeef8d981c8956a661087881610711611083565b6108828383611552565b826001600160a01b03167f30385c845b448a36257a6a1716e6ad2e1bc2cbe333cde1e69fe849ad6511adfe836040516108bb9190612d55565b60405180910390a2505050565b6108486108d3611083565b82611591565b600054610100900460ff16806108f2575060005460ff16155b61090e5760405162461bcd60e51b81526004016106bf90613190565b600054610100900460ff16158015610939576000805460ff1961ff0019909116610100171660011790555b61097f6040518060400160405280600981526020016829a427902a37b5b2b760b91b8152506040518060400160405280600381526020016253484f60e81b81525061159b565b610987611623565b61098f611623565b6109976116a7565b61099f61170f565b6109c96040518060400160405280600981526020016829a427902a37b5b2b760b91b81525061177f565b6109d4600084611828565b6109fe7f5fdbd35e8da83ee755d5e62a539e5ed7f47126abede0b8b10f9ea43dc6eed07f84611828565b610a1660008051602061370c83398151915284611828565b610a407f9f2df0fed2c77648de5860a4cc508cd0818c85b8b8a1ab4ceeef8d981c8956a684611828565b6101f8849055610a5b826a0300490ce3e5e7bf540000611552565b8015610a6d576000805461ff00191690555b50505050565b6001600160a01b038216600090815260976020526040812081908190610a9a908590611832565b9150915081610ab157610aac85610b3d565b610ab3565b805b95945050505050565b6001600160a01b0390811660009081526101c660205260409020541690565b610848610ae6611083565b826118de565b61012d5460ff1690565b6001600160a01b03811660009081526101c760205260408120546105909061195f565b7f5fdbd35e8da83ee755d5e62a539e5ed7f47126abede0b8b10f9ea43dc6eed07f81565b6001600160a01b031660009081526033602052604090205490565b6000610b668361053e611083565b905081811015610b885760405162461bcd60e51b81526004016106bf90613336565b610b9c83610b94611083565b848403611087565b6107208383611591565b6001600160a01b03811660009081526101936020526040812061059090611989565b60008051602061370c833981519152610be381610711611083565b61084861198d565b6000438210610c0c5760405162461bcd60e51b81526004016106bf90612f19565b6105906101c88361140a565b600091825260fb602090815260408084206001600160a01b0393909316845291905290205460ff1690565b6060603780546105a7906136c0565b7f5fdbd35e8da83ee755d5e62a539e5ed7f47126abede0b8b10f9ea43dc6eed07f610c7f81610711611083565b6107826119e9565b6000806000610c97846098611832565b9150915081610cad57610ca8610648565b610caf565b805b949350505050565b6001600160a01b03811660009081526101c760205260408120548015610d3b576001600160a01b03831660009081526101c760205260409020610cfb600183613666565b81548110610d1957634e487b7160e01b600052603260045260246000fd5b60009182526020909120015464010000000090046001600160e01b0316610d3e565b60005b6001600160e01b03169392505050565b600081565b60008060346000610d62611083565b6001600160a01b0390811682526020808301939093526040918201600090812091881681529252902054905082811015610dae5760405162461bcd60e51b81526004016106bf906134f1565b610dc2610db9611083565b85858403611087565b5060019392505050565b600061063e610dd9611083565b848461113b565b83421115610e005760405162461bcd60e51b81526004016106bf90612f7e565b6000610e62610e5a7fe48329057bfd03d55e49b547132e39cffd9c1820ad7b9d4c5307691425d15adf898989604051602001610e3f9493929190612d92565b60405160208183030381529060405280519060200120611a3d565b858585611a50565b9050610e6d81611a78565b8614610e8b5760405162461bcd60e51b81526004016106bf9061302e565b610e9581886118de565b50505050505050565b83421115610ebe5760405162461bcd60e51b81526004016106bf906130a7565b600061019454888888610ed08c611a78565b89604051602001610ee696959493929190612d5e565b6040516020818303038152906040528051906020012090506000610f0982611a3d565b90506000610f1982878787611a50565b9050896001600160a01b0316816001600160a01b031614610f4c5760405162461bcd60e51b81526004016106bf90613220565b610f578a8a8a611087565b50505050505050505050565b7f9f2df0fed2c77648de5860a4cc508cd0818c85b8b8a1ab4ceeef8d981c8956a681565b610f90826106e7565b610f9c81610711611083565b6107208383611385565b6001600160a01b03918216600090815260346020908152604080832093909416825291909152205490565b60008051602061370c83398151915281565b610feb61298c565b6001600160a01b03831660009081526101c760205260409020805463ffffffff841690811061102a57634e487b7160e01b600052603260045260246000fd5b60009182526020918290206040805180820190915291015463ffffffff8116825264010000000090046001600160e01b0316918101919091529392505050565b6001600160e01b031981166301ffc9a760e01b14919050565b3390565b6001600160a01b0383166110ad5760405162461bcd60e51b81526004016106bf9061347d565b6001600160a01b0382166110d35760405162461bcd60e51b81526004016106bf90613065565b6001600160a01b0380841660008181526034602090815260408083209487168084529490915290819020849055517f8c5be1e5ebec7d5bd14f71427d1e84f3dd0314c0f7b2291e5b200ac8c7c3b9259061112e908590612d55565b60405180910390a3505050565b6001600160a01b0383166111615760405162461bcd60e51b81526004016106bf906133bb565b6001600160a01b0382166111875760405162461bcd60e51b81526004016106bf90612ed6565b611192838383611aab565b6001600160a01b038316600090815260336020526040902054818110156111cb5760405162461bcd60e51b81526004016106bf906130de565b6001600160a01b0380851660009081526033602052604080822085850390559185168152908120805484929061120290849061360f565b92505081905550826001600160a01b0316846001600160a01b03167fddf252ad1be2c89b69c2b068fc378daa952ba7f163c4a11628f55a4df523b3ef8460405161124c9190612d55565b60405180910390a3610a6d848484611adb565b6112698282610c18565b61078257611281816001600160a01b03166014611ae6565b61128c836020611ae6565b60405160200161129d929190612cc1565b60408051601f198184030181529082905262461bcd60e51b82526106bf91600401612e00565b6112cd8282610c18565b61078257600082815260fb602090815260408083206001600160a01b03851684529091529020805460ff19166001179055611306611083565b6001600160a01b0316816001600160a01b0316837f2f8788117e7eff1d82e926ec794901d17c78024a50270940304540a733656f0d60405160405180910390a45050565b600061073b7f8b73c3c69bb8fe3d512ecc4cf759cc79239f7b179b0ffacaa9a75d522b39400f611378611c98565b611380611c9f565b611ca6565b61138f8282610c18565b1561078257600082815260fb602090815260408083206001600160a01b03851684529091529020805460ff191690556113c6611083565b6001600160a01b0316816001600160a01b0316837ff6391f5c32d9c69d2a47ea670b442974b53935d1edc7fd64eb21e047a839171b60405160405180910390a45050565b8154600090815b8181101561147c5760006114258284611ce0565b90508486828154811061144857634e487b7160e01b600052603260045260246000fd5b60009182526020909120015463ffffffff16111561146857809250611476565b61147381600161360f565b91505b50611411565b81156114ce578461148e600184613666565b815481106114ac57634e487b7160e01b600052603260045260246000fd5b60009182526020909120015464010000000090046001600160e01b03166114d1565b60005b6001600160e01b031695945050505050565b6114eb610aec565b6115075760405162461bcd60e51b81526004016106bf90612f50565b61012d805460ff191690557f5db9ee0a495bf2e6ff9c91a7834c1ba4fdd244a5e8aa4e537bd38aeae4b073aa61153b611083565b6040516115489190612d36565b60405180910390a1565b6101f8548161155f610648565b611569919061360f565b11156115875760405162461bcd60e51b81526004016106bf90613400565b6107828282611cfb565b6107828282611d4b565b600054610100900460ff16806115b4575060005460ff16155b6115d05760405162461bcd60e51b81526004016106bf90613190565b600054610100900460ff161580156115fb576000805460ff1961ff0019909116610100171660011790555b611603611d64565b61160d8383611dd7565b8015610720576000805461ff0019169055505050565b600054610100900460ff168061163c575060005460ff16155b6116585760405162461bcd60e51b81526004016106bf90613190565b600054610100900460ff16158015611683576000805460ff1961ff0019909116610100171660011790555b61168b611d64565b611693611d64565b8015610848576000805461ff001916905550565b600054610100900460ff16806116c0575060005460ff16155b6116dc5760405162461bcd60e51b81526004016106bf90613190565b600054610100900460ff16158015611707576000805460ff1961ff0019909116610100171660011790555b611683611d64565b600054610100900460ff1680611728575060005460ff16155b6117445760405162461bcd60e51b81526004016106bf90613190565b600054610100900460ff1615801561176f576000805460ff1961ff0019909116610100171660011790555b611777611d64565b611693611e75565b600054610100900460ff1680611798575060005460ff16155b6117b45760405162461bcd60e51b81526004016106bf90613190565b600054610100900460ff161580156117df576000805460ff1961ff0019909116610100171660011790555b6117e7611d64565b61180a82604051806040016040528060018152602001603160f81b815250611ef4565b61181382611f89565b8015610782576000805461ff00191690555050565b61078282826112c3565b600080600084116118555760405162461bcd60e51b81526004016106bf906134c1565b61185d612023565b84111561187c5760405162461bcd60e51b81526004016106bf90612e6a565b6000611888848661202f565b84549091508114156118a15760008092509250506118d7565b60018460010182815481106118c657634e487b7160e01b600052603260045260246000fd5b906000526020600020015492509250505b9250929050565b60006118e983610abc565b905060006118f684610b3d565b6001600160a01b0385811660008181526101c6602052604080822080546001600160a01b031916898616908117909155905194955093928616927f3134e8a2e6d97e929a7e54011ea5485d7d196dd5f0ba4d4ef95803e8e3fc257f9190a4610a6d82848361210e565b600063ffffffff8211156119855760405162461bcd60e51b81526004016106bf90613437565b5090565b5490565b611995610aec565b156119b25760405162461bcd60e51b81526004016106bf90613166565b61012d805460ff191660011790557f62e78cea01bee320cd4e420270b5ea74000d11b0c9f74754ebdbfc544b05a25861153b611083565b60006119f5609a61223b565b60006119ff612023565b90507f8030e83b04d87bef53480e26263266d6ca66863aa8506aca6f2559d18aa1cb6781604051611a309190612d55565b60405180910390a1905090565b6000610590611a4a61134a565b83612244565b6000806000611a6187878787612277565b91509150611a6e81612357565b5095945050505050565b6001600160a01b038116600090815261019360205260408120611a9a81611989565b9150611aa58161223b565b50919050565b611ab3610aec565b15611ad05760405162461bcd60e51b81526004016106bf90613166565b610720838383612484565b6107208383836124dc565b60606000611af5836002613647565b611b0090600261360f565b67ffffffffffffffff811115611b2657634e487b7160e01b600052604160045260246000fd5b6040519080825280601f01601f191660200182016040528015611b50576020820181803683370190505b509050600360fc1b81600081518110611b7957634e487b7160e01b600052603260045260246000fd5b60200101906001600160f81b031916908160001a905350600f60fb1b81600181518110611bb657634e487b7160e01b600052603260045260246000fd5b60200101906001600160f81b031916908160001a9053506000611bda846002613647565b611be590600161360f565b90505b6001811115611c79576f181899199a1a9b1b9c1cb0b131b232b360811b85600f1660108110611c2757634e487b7160e01b600052603260045260246000fd5b1a60f81b828281518110611c4b57634e487b7160e01b600052603260045260246000fd5b60200101906001600160f81b031916908160001a90535060049490941c93611c72816136a9565b9050611be8565b50831561081e5760405162461bcd60e51b81526004016106bf90612ea1565b61015f5490565b6101605490565b60008383834630604051602001611cc1959493929190612db6565b6040516020818303038152906040528051906020012090509392505050565b6000611cef6002848418613627565b61081e9084841661360f565b611d058282612502565b611d0d6125ca565b6001600160e01b0316611d1e610648565b1115611d3c5760405162461bcd60e51b81526004016106bf9061329f565b610a6d6101c86125d5836125e1565b611d558282612792565b610a6d6101c8612883836125e1565b600054610100900460ff1680611d7d575060005460ff16155b611d995760405162461bcd60e51b81526004016106bf90613190565b600054610100900460ff16158015611693576000805460ff1961ff0019909116610100171660011790558015610848576000805461ff001916905550565b600054610100900460ff1680611df0575060005460ff16155b611e0c5760405162461bcd60e51b81526004016106bf90613190565b600054610100900460ff16158015611e37576000805460ff1961ff0019909116610100171660011790555b8251611e4a9060369060208601906129a3565b508151611e5e9060379060208501906129a3565b508015610720576000805461ff0019169055505050565b600054610100900460ff1680611e8e575060005460ff16155b611eaa5760405162461bcd60e51b81526004016106bf90613190565b600054610100900460ff16158015611ed5576000805460ff1961ff0019909116610100171660011790555b61012d805460ff191690558015610848576000805461ff001916905550565b600054610100900460ff1680611f0d575060005460ff16155b611f295760405162461bcd60e51b81526004016106bf90613190565b600054610100900460ff16158015611f54576000805460ff1961ff0019909116610100171660011790555b825160208085019190912083519184019190912061015f91909155610160558015610720576000805461ff0019169055505050565b600054610100900460ff1680611fa2575060005460ff16155b611fbe5760405162461bcd60e51b81526004016106bf90613190565b600054610100900460ff16158015611fe9576000805460ff1961ff0019909116610100171660011790555b7f6e71edae12b1b97f4d1f60370fef10105fa2faae0126114a169c64845d6126c9610194558015610782576000805461ff00191690555050565b600061073b609a611989565b815460009061204057506000610642565b82546000905b808210156120aa57600061205a8383611ce0565b90508486828154811061207d57634e487b7160e01b600052603260045260246000fd5b90600052602060002001541115612096578091506120a4565b6120a181600161360f565b92505b50612046565b6000821180156120ed575083856120c2600185613666565b815481106120e057634e487b7160e01b600052603260045260246000fd5b9060005260206000200154145b15612106576120fd600183613666565b92505050610642565b509050610642565b816001600160a01b0316836001600160a01b0316141580156121305750600081115b15610720576001600160a01b038316156121b6576001600160a01b03831660009081526101c760205260408120819061216c90612883856125e1565b91509150846001600160a01b03167fdec2bacdd2f05b59de34da9b523dff8be42e5e38e818c82fdb0bae774387a72483836040516121ab9291906135e2565b60405180910390a250505b6001600160a01b03821615610720576001600160a01b03821660009081526101c76020526040812081906121ed906125d5856125e1565b91509150836001600160a01b03167fdec2bacdd2f05b59de34da9b523dff8be42e5e38e818c82fdb0bae774387a724838360405161222c9291906135e2565b60405180910390a25050505050565b80546001019055565b60008282604051602001612259929190612ca6565b60405160208183030381529060405280519060200120905092915050565b6000807f7fffffffffffffffffffffffffffffff5d576e7357a4501ddfe92f46681b20a08311156122ae575060009050600361234e565b8460ff16601b141580156122c657508460ff16601c14155b156122d7575060009050600461234e565b6000600187878787604051600081526020016040526040516122fc9493929190612de2565b6020604051602081039080840390855afa15801561231e573d6000803e3d6000fd5b5050604051601f1901519150506001600160a01b0381166123475760006001925092505061234e565b9150600090505b94509492505050565b600081600481111561237957634e487b7160e01b600052602160045260246000fd5b141561238457610848565b60018160048111156123a657634e487b7160e01b600052602160045260246000fd5b14156123c45760405162461bcd60e51b81526004016106bf90612e33565b60028160048111156123e657634e487b7160e01b600052602160045260246000fd5b14156124045760405162461bcd60e51b81526004016106bf90612ff7565b600381600481111561242657634e487b7160e01b600052602160045260246000fd5b14156124445760405162461bcd60e51b81526004016106bf90613124565b600481600481111561246657634e487b7160e01b600052602160045260246000fd5b14156108485760405162461bcd60e51b81526004016106bf906131de565b61248f838383610720565b6001600160a01b0383166124b3576124a68261288f565b6124ae6128b9565b610720565b6001600160a01b0382166124ca576124a68361288f565b6124d38361288f565b6107208261288f565b6124e7838383610720565b6107206124f384610abc565b6124fc84610abc565b8361210e565b6001600160a01b0382166125285760405162461bcd60e51b81526004016106bf90613585565b61253460008383611aab565b8060356000828254612546919061360f565b90915550506001600160a01b0382166000908152603360205260408120805483929061257390849061360f565b90915550506040516001600160a01b038316906000907fddf252ad1be2c89b69c2b068fc378daa952ba7f163c4a11628f55a4df523b3ef906125b6908590612d55565b60405180910390a361078260008383611adb565b6001600160e01b0390565b600061081e828461360f565b82546000908190801561263a57856125fa600183613666565b8154811061261857634e487b7160e01b600052603260045260246000fd5b60009182526020909120015464010000000090046001600160e01b031661263d565b60005b6001600160e01b0316925061265683858763ffffffff16565b91506000811180156126a257504386612670600184613666565b8154811061268e57634e487b7160e01b600052603260045260246000fd5b60009182526020909120015463ffffffff16145b15612710576126b0826128c8565b866126bc600184613666565b815481106126da57634e487b7160e01b600052603260045260246000fd5b9060005260206000200160000160046101000a8154816001600160e01b0302191690836001600160e01b03160217905550612789565b8560405180604001604052806127254361195f565b63ffffffff168152602001612739856128c8565b6001600160e01b039081169091528254600181018455600093845260209384902083519101805493909401519091166401000000000263ffffffff91821663ffffffff1990931692909217161790555b50935093915050565b6001600160a01b0382166127b85760405162461bcd60e51b81526004016106bf9061337a565b6127c482600083611aab565b6001600160a01b038216600090815260336020526040902054818110156127fd5760405162461bcd60e51b81526004016106bf90612fb5565b6001600160a01b038316600090815260336020526040812083830390556035805484929061282c908490613666565b90915550506040516000906001600160a01b038516907fddf252ad1be2c89b69c2b068fc378daa952ba7f163c4a11628f55a4df523b3ef9061286f908690612d55565b60405180910390a361072083600084611adb565b600061081e8284613666565b6001600160a01b0381166000908152609760205260409020610848906128b483610b3d565b6128f1565b6128c660986128b4610648565b565b60006001600160e01b038211156119855760405162461bcd60e51b81526004016106bf906132ef565b60006128fb612023565b9050806129078461293b565b1015610720578254600180820185556000858152602080822090930193909355938401805494850181558252902090910155565b805460009061294c57506000610593565b8154829061295c90600190613666565b8154811061297a57634e487b7160e01b600052603260045260246000fd5b90600052602060002001549050610593565b604080518082019091526000808252602082015290565b8280546129af906136c0565b90600052602060002090601f0160209004810192826129d15760008555612a17565b82601f106129ea57805160ff1916838001178555612a17565b82800160010185558215612a17579182015b82811115612a175782518255916020019190600101906129fc565b506119859291505b808211156119855760008155600101612a1f565b80356001600160a01b038116811461059357600080fd5b803560ff8116811461059357600080fd5b600060208284031215612a6c578081fd5b61081e82612a33565b60008060408385031215612a87578081fd5b612a9083612a33565b9150612a9e60208401612a33565b90509250929050565b600080600060608486031215612abb578081fd5b612ac484612a33565b9250612ad260208501612a33565b9150604084013590509250925092565b600080600080600080600060e0888a031215612afc578283fd5b612b0588612a33565b9650612b1360208901612a33565b95506040880135945060608801359350612b2f60808901612a4a565b925060a0880135915060c0880135905092959891949750929550565b60008060408385031215612b5d578182fd5b612b6683612a33565b946020939093013593505050565b60008060008060008060c08789031215612b8c578182fd5b612b9587612a33565b95506020870135945060408701359350612bb160608801612a4a565b92506080870135915060a087013590509295509295509295565b60008060408385031215612bdd578182fd5b612be683612a33565b9150602083013563ffffffff81168114612bfe578182fd5b809150509250929050565b600060208284031215612c1a578081fd5b5035919050565b60008060408385031215612c33578182fd5b82359150612a9e60208401612a33565b600060208284031215612c54578081fd5b81356001600160e01b03198116811461081e578182fd5b600080600060608486031215612c7f578283fd5b83359250612c8f60208501612a33565b9150612c9d60408501612a33565b90509250925092565b61190160f01b81526002810192909252602282015260420190565b60007f416363657373436f6e74726f6c3a206163636f756e742000000000000000000082528351612cf981601785016020880161367d565b7001034b99036b4b9b9b4b733903937b6329607d1b6017918401918201528351612d2a81602884016020880161367d565b01602801949350505050565b6001600160a01b0391909116815260200190565b901515815260200190565b90815260200190565b9586526001600160a01b0394851660208701529290931660408501526060840152608083019190915260a082015260c00190565b9384526001600160a01b039290921660208401526040830152606082015260800190565b9485526020850193909352604084019190915260608301526001600160a01b0316608082015260a00190565b93845260ff9290921660208401526040830152606082015260800190565b6000602082528251806020840152612e1f81604085016020870161367d565b601f01601f19169190910160400192915050565b60208082526018908201527f45434453413a20696e76616c6964207369676e61747572650000000000000000604082015260600190565b6020808252601d908201527f4552433230536e617073686f743a206e6f6e6578697374656e74206964000000604082015260600190565b6020808252818101527f537472696e67733a20686578206c656e67746820696e73756666696369656e74604082015260600190565b60208082526023908201527f45524332303a207472616e7366657220746f20746865207a65726f206164647260408201526265737360e81b606082015260800190565b6020808252601f908201527f4552433230566f7465733a20626c6f636b206e6f7420796574206d696e656400604082015260600190565b60208082526014908201527314185d5cd8589b194e881b9bdd081c185d5cd95960621b604082015260600190565b6020808252601d908201527f4552433230566f7465733a207369676e61747572652065787069726564000000604082015260600190565b60208082526022908201527f45524332303a206275726e20616d6f756e7420657863656564732062616c616e604082015261636560f01b606082015260800190565b6020808252601f908201527f45434453413a20696e76616c6964207369676e6174757265206c656e67746800604082015260600190565b60208082526019908201527f4552433230566f7465733a20696e76616c6964206e6f6e636500000000000000604082015260600190565b60208082526022908201527f45524332303a20617070726f766520746f20746865207a65726f206164647265604082015261737360f01b606082015260800190565b6020808252601d908201527f45524332305065726d69743a206578706972656420646561646c696e65000000604082015260600190565b60208082526026908201527f45524332303a207472616e7366657220616d6f756e7420657863656564732062604082015265616c616e636560d01b606082015260800190565b60208082526022908201527f45434453413a20696e76616c6964207369676e6174757265202773272076616c604082015261756560f01b606082015260800190565b60208082526010908201526f14185d5cd8589b194e881c185d5cd95960821b604082015260600190565b6020808252602e908201527f496e697469616c697a61626c653a20636f6e747261637420697320616c72656160408201526d191e481a5b9a5d1a585b1a5e995960921b606082015260800190565b60208082526022908201527f45434453413a20696e76616c6964207369676e6174757265202776272076616c604082015261756560f01b606082015260800190565b6020808252601e908201527f45524332305065726d69743a20696e76616c6964207369676e61747572650000604082015260600190565b60208082526028908201527f45524332303a207472616e7366657220616d6f756e74206578636565647320616040820152676c6c6f77616e636560c01b606082015260800190565b60208082526030908201527f4552433230566f7465733a20746f74616c20737570706c79207269736b73206f60408201526f766572666c6f77696e6720766f74657360801b606082015260800190565b60208082526027908201527f53616665436173743a2076616c756520646f65736e27742066697420696e20326040820152663234206269747360c81b606082015260800190565b60208082526024908201527f45524332303a206275726e20616d6f756e74206578636565647320616c6c6f77604082015263616e636560e01b606082015260800190565b60208082526021908201527f45524332303a206275726e2066726f6d20746865207a65726f206164647265736040820152607360f81b606082015260800190565b60208082526025908201527f45524332303a207472616e736665722066726f6d20746865207a65726f206164604082015264647265737360d81b606082015260800190565b60208082526019908201527f45524332304361707065643a2063617020657863656564656400000000000000604082015260600190565b60208082526026908201527f53616665436173743a2076616c756520646f65736e27742066697420696e203360408201526532206269747360d01b606082015260800190565b60208082526024908201527f45524332303a20617070726f76652066726f6d20746865207a65726f206164646040820152637265737360e01b606082015260800190565b60208082526016908201527504552433230536e617073686f743a20696420697320360541b604082015260600190565b60208082526025908201527f45524332303a2064656372656173656420616c6c6f77616e63652062656c6f77604082015264207a65726f60d81b606082015260800190565b6020808252602f908201527f416363657373436f6e74726f6c3a2063616e206f6e6c792072656e6f756e636560408201526e103937b632b9903337b91039b2b63360891b606082015260800190565b6020808252601f908201527f45524332303a206d696e7420746f20746865207a65726f206164647265737300604082015260600190565b815163ffffffff1681526020918201516001600160e01b03169181019190915260400190565b918252602082015260400190565b63ffffffff91909116815260200190565b60ff91909116815260200190565b60008219821115613622576136226136f5565b500190565b60008261364257634e487b7160e01b81526012600452602481fd5b500490565b6000816000190483118215151615613661576136616136f5565b500290565b600082821015613678576136786136f5565b500390565b60005b83811015613698578181015183820152602001613680565b83811115610a6d5750506000910152565b6000816136b8576136b86136f5565b506000190190565b6002810460018216806136d457607f821691505b60208210811415611aa557634e487b7160e01b600052602260045260246000fd5b634e487b7160e01b600052601160045260246000fdfe65d7a28e3265b37a6474929f336521b332c1681b933f6cb9f3376673440d862aa2646970667358221220708a08a5cd39bfefdd21f92db090bc999b58306a0b09f6a4e4a4b97179fe813c64736f6c63430008000033",
  "devdoc": {
    "kind": "dev",
    "methods": {
      "DOMAIN_SEPARATOR()": {
        "details": "See {IERC20Permit-DOMAIN_SEPARATOR}."
      },
      "allowance(address,address)": {
        "details": "See {IERC20-allowance}."
      },
      "approve(address,uint256)": {
        "details": "See {IERC20-approve}. Requirements: - `spender` cannot be the zero address."
      },
      "balanceOf(address)": {
        "details": "See {IERC20-balanceOf}."
      },
      "balanceOfAt(address,uint256)": {
        "details": "Retrieves the balance of `account` at the time `snapshotId` was created."
      },
      "burn(uint256)": {
        "details": "Destroys `amount` tokens from the caller. See {ERC20-_burn}."
      },
      "burnFrom(address,uint256)": {
        "details": "Destroys `amount` tokens from `account`, deducting from the caller's allowance. See {ERC20-_burn} and {ERC20-allowance}. Requirements: - the caller must have allowance for ``accounts``'s tokens of at least `amount`."
      },
      "checkpoints(address,uint32)": {
        "details": "Get the `pos`-th checkpoint for `account`."
      },
      "decimals()": {
        "details": "Returns the number of decimals used to get its user representation. For example, if `decimals` equals `2`, a balance of `505` tokens should be displayed to a user as `5.05` (`505 / 10 ** 2`). Tokens usually opt for a value of 18, imitating the relationship between Ether and Wei. This is the value {ERC20} uses, unless this function is overridden; NOTE: This information is only used for _display_ purposes: it in no way affects any of the arithmetic of the contract, including {IERC20-balanceOf} and {IERC20-transfer}."
      },
      "decreaseAllowance(address,uint256)": {
        "details": "Atomically decreases the allowance granted to `spender` by the caller. This is an alternative to {approve} that can be used as a mitigation for problems described in {IERC20-approve}. Emits an {Approval} event indicating the updated allowance. Requirements: - `spender` cannot be the zero address. - `spender` must have allowance for the caller of at least `subtractedValue`."
      },
      "delegate(address)": {
        "details": "Delegate votes from the sender to `delegatee`."
      },
      "delegateBySig(address,uint256,uint256,uint8,bytes32,bytes32)": {
        "details": "Delegates votes from signer to `delegatee`"
      },
      "delegates(address)": {
        "details": "Get the address `account` is currently delegating to."
      },
      "getPastTotalSupply(uint256)": {
        "details": "Retrieve the `totalSupply` at the end of `blockNumber`. Note, this value is the sum of all balances. It is but NOT the sum of all the delegated votes! Requirements: - `blockNumber` must have been already mined"
      },
      "getPastVotes(address,uint256)": {
        "details": "Retrieve the number of votes for `account` at the end of `blockNumber`. Requirements: - `blockNumber` must have been already mined"
      },
      "getRoleAdmin(bytes32)": {
        "details": "Returns the admin role that controls `role`. See {grantRole} and {revokeRole}. To change a role's admin, use {_setRoleAdmin}."
      },
      "getVotes(address)": {
        "details": "Gets the current votes balance for `account`"
      },
      "grantRole(bytes32,address)": {
        "details": "Grants `role` to `account`. If `account` had not been already granted `role`, emits a {RoleGranted} event. Requirements: - the caller must have ``role``'s admin role."
      },
      "hasRole(bytes32,address)": {
        "details": "Returns `true` if `account` has been granted `role`."
      },
      "increaseAllowance(address,uint256)": {
        "details": "Atomically increases the allowance granted to `spender` by the caller. This is an alternative to {approve} that can be used as a mitigation for problems described in {IERC20-approve}. Emits an {Approval} event indicating the updated allowance. Requirements: - `spender` cannot be the zero address."
      },
      "name()": {
        "details": "Returns the name of the token."
      },
      "nonces(address)": {
        "details": "See {IERC20Permit-nonces}."
      },
      "numCheckpoints(address)": {
        "details": "Get number of checkpoints for `account`."
      },
      "paused()": {
        "details": "Returns true if the contract is paused, and false otherwise."
      },
      "permit(address,address,uint256,uint256,uint8,bytes32,bytes32)": {
        "details": "See {IERC20Permit-permit}."
      },
      "renounceRole(bytes32,address)": {
        "details": "Revokes `role` from the calling account. Roles are often managed via {grantRole} and {revokeRole}: this function's purpose is to provide a mechanism for accounts to lose their privileges if they are compromised (such as when a trusted device is misplaced). If the calling account had been granted `role`, emits a {RoleRevoked} event. Requirements: - the caller must be `account`."
      },
      "revokeRole(bytes32,address)": {
        "details": "Revokes `role` from `account`. If `account` had been granted `role`, emits a {RoleRevoked} event. Requirements: - the caller must have ``role``'s admin role."
      },
      "supportsInterface(bytes4)": {
        "details": "See {IERC165-supportsInterface}."
      },
      "symbol()": {
        "details": "Returns the symbol of the token, usually a shorter version of the name."
      },
      "totalSupply()": {
        "details": "See {IERC20-totalSupply}."
      },
      "totalSupplyAt(uint256)": {
        "details": "Retrieves the total supply at the time `snapshotId` was created."
      },
      "transfer(address,uint256)": {
        "details": "See {IERC20-transfer}. Requirements: - `recipient` cannot be the zero address. - the caller must have a balance of at least `amount`."
      },
      "transferFrom(address,address,uint256)": {
        "details": "See {IERC20-transferFrom}. Emits an {Approval} event indicating the updated allowance. This is not required by the EIP. See the note at the beginning of {ERC20}. Requirements: - `sender` and `recipient` cannot be the zero address. - `sender` must have a balance of at least `amount`. - the caller must have allowance for ``sender``'s tokens of at least `amount`."
      }
    },
    "version": 1
  },
  "userdoc": {
    "kind": "user",
    "methods": {},
    "version": 1
  },
  "storageLayout": {
    "storage": [
      {
        "astId": 413,
        "contract": "contracts/ShogunToken.sol:ShogunToken",
        "label": "_initialized",
        "offset": 0,
        "slot": "0",
        "type": "t_bool"
      },
      {
        "astId": 416,
        "contract": "contracts/ShogunToken.sol:ShogunToken",
        "label": "_initializing",
        "offset": 1,
        "slot": "0",
        "type": "t_bool"
      },
      {
        "astId": 2827,
        "contract": "contracts/ShogunToken.sol:ShogunToken",
        "label": "__gap",
        "offset": 0,
        "slot": "1",
        "type": "t_array(t_uint256)50_storage"
      },
      {
        "astId": 643,
        "contract": "contracts/ShogunToken.sol:ShogunToken",
        "label": "_balances",
        "offset": 0,
        "slot": "51",
        "type": "t_mapping(t_address,t_uint256)"
      },
      {
        "astId": 649,
        "contract": "contracts/ShogunToken.sol:ShogunToken",
        "label": "_allowances",
        "offset": 0,
        "slot": "52",
        "type": "t_mapping(t_address,t_mapping(t_address,t_uint256))"
      },
      {
        "astId": 651,
        "contract": "contracts/ShogunToken.sol:ShogunToken",
        "label": "_totalSupply",
        "offset": 0,
        "slot": "53",
        "type": "t_uint256"
      },
      {
        "astId": 653,
        "contract": "contracts/ShogunToken.sol:ShogunToken",
        "label": "_name",
        "offset": 0,
        "slot": "54",
        "type": "t_string_storage"
      },
      {
        "astId": 655,
        "contract": "contracts/ShogunToken.sol:ShogunToken",
        "label": "_symbol",
        "offset": 0,
        "slot": "55",
        "type": "t_string_storage"
      },
      {
        "astId": 1196,
        "contract": "contracts/ShogunToken.sol:ShogunToken",
        "label": "__gap",
        "offset": 0,
        "slot": "56",
        "type": "t_array(t_uint256)45_storage"
      },
      {
        "astId": 1361,
        "contract": "contracts/ShogunToken.sol:ShogunToken",
        "label": "__gap",
        "offset": 0,
        "slot": "101",
        "type": "t_array(t_uint256)50_storage"
      },
      {
        "astId": 1411,
        "contract": "contracts/ShogunToken.sol:ShogunToken",
        "label": "_accountBalanceSnapshots",
        "offset": 0,
        "slot": "151",
        "type": "t_mapping(t_address,t_struct(Snapshots)1406_storage)"
      },
      {
        "astId": 1414,
        "contract": "contracts/ShogunToken.sol:ShogunToken",
        "label": "_totalSupplySnapshots",
        "offset": 0,
        "slot": "152",
        "type": "t_struct(Snapshots)1406_storage"
      },
      {
        "astId": 1417,
        "contract": "contracts/ShogunToken.sol:ShogunToken",
        "label": "_currentSnapshotId",
        "offset": 0,
        "slot": "154",
        "type": "t_struct(Counter)2834_storage"
      },
      {
        "astId": 1714,
        "contract": "contracts/ShogunToken.sol:ShogunToken",
        "label": "__gap",
        "offset": 0,
        "slot": "155",
        "type": "t_array(t_uint256)46_storage"
      },
      {
        "astId": 3666,
        "contract": "contracts/ShogunToken.sol:ShogunToken",
        "label": "__gap",
        "offset": 0,
        "slot": "201",
        "type": "t_array(t_uint256)50_storage"
      },
      {
        "astId": 48,
        "contract": "contracts/ShogunToken.sol:ShogunToken",
        "label": "_roles",
        "offset": 0,
        "slot": "251",
        "type": "t_mapping(t_bytes32,t_struct(RoleData)43_storage)"
      },
      {
        "astId": 333,
        "contract": "contracts/ShogunToken.sol:ShogunToken",
        "label": "__gap",
        "offset": 0,
        "slot": "252",
        "type": "t_array(t_uint256)49_storage"
      },
      {
        "astId": 474,
        "contract": "contracts/ShogunToken.sol:ShogunToken",
        "label": "_paused",
        "offset": 0,
        "slot": "301",
        "type": "t_bool"
      },
      {
        "astId": 565,
        "contract": "contracts/ShogunToken.sol:ShogunToken",
        "label": "__gap",
        "offset": 0,
        "slot": "302",
        "type": "t_array(t_uint256)49_storage"
      },
      {
        "astId": 3481,
        "contract": "contracts/ShogunToken.sol:ShogunToken",
        "label": "_HASHED_NAME",
        "offset": 0,
        "slot": "351",
        "type": "t_bytes32"
      },
      {
        "astId": 3483,
        "contract": "contracts/ShogunToken.sol:ShogunToken",
        "label": "_HASHED_VERSION",
        "offset": 0,
        "slot": "352",
        "type": "t_bytes32"
      },
      {
        "astId": 3620,
        "contract": "contracts/ShogunToken.sol:ShogunToken",
        "label": "__gap",
        "offset": 0,
        "slot": "353",
        "type": "t_array(t_uint256)50_storage"
      },
      {
        "astId": 2425,
        "contract": "contracts/ShogunToken.sol:ShogunToken",
        "label": "_nonces",
        "offset": 0,
        "slot": "403",
        "type": "t_mapping(t_address,t_struct(Counter)2834_storage)"
      },
      {
        "astId": 2427,
        "contract": "contracts/ShogunToken.sol:ShogunToken",
        "label": "_PERMIT_TYPEHASH",
        "offset": 0,
        "slot": "404",
        "type": "t_bytes32"
      },
      {
        "astId": 2595,
        "contract": "contracts/ShogunToken.sol:ShogunToken",
        "label": "__gap",
        "offset": 0,
        "slot": "405",
        "type": "t_array(t_uint256)49_storage"
      },
      {
        "astId": 1747,
        "contract": "contracts/ShogunToken.sol:ShogunToken",
        "label": "_delegates",
        "offset": 0,
        "slot": "454",
        "type": "t_mapping(t_address,t_address)"
      },
      {
        "astId": 1753,
        "contract": "contracts/ShogunToken.sol:ShogunToken",
        "label": "_checkpoints",
        "offset": 0,
        "slot": "455",
        "type": "t_mapping(t_address,t_array(t_struct(Checkpoint)1738_storage)dyn_storage)"
      },
      {
        "astId": 1757,
        "contract": "contracts/ShogunToken.sol:ShogunToken",
        "label": "_totalSupplyCheckpoints",
        "offset": 0,
        "slot": "456",
        "type": "t_array(t_struct(Checkpoint)1738_storage)dyn_storage"
      },
      {
        "astId": 2373,
        "contract": "contracts/ShogunToken.sol:ShogunToken",
        "label": "__gap",
        "offset": 0,
        "slot": "457",
        "type": "t_array(t_uint256)47_storage"
      },
      {
        "astId": 10794,
        "contract": "contracts/ShogunToken.sol:ShogunToken",
        "label": "MAX_SUPPLY",
        "offset": 0,
        "slot": "504",
        "type": "t_uint256"
      }
    ],
    "types": {
      "t_address": {
        "encoding": "inplace",
        "label": "address",
        "numberOfBytes": "20"
      },
      "t_array(t_struct(Checkpoint)1738_storage)dyn_storage": {
        "base": "t_struct(Checkpoint)1738_storage",
        "encoding": "dynamic_array",
        "label": "struct ERC20VotesUpgradeable.Checkpoint[]",
        "numberOfBytes": "32"
      },
      "t_array(t_uint256)45_storage": {
        "base": "t_uint256",
        "encoding": "inplace",
        "label": "uint256[45]",
        "numberOfBytes": "1440"
      },
      "t_array(t_uint256)46_storage": {
        "base": "t_uint256",
        "encoding": "inplace",
        "label": "uint256[46]",
        "numberOfBytes": "1472"
      },
      "t_array(t_uint256)47_storage": {
        "base": "t_uint256",
        "encoding": "inplace",
        "label": "uint256[47]",
        "numberOfBytes": "1504"
      },
      "t_array(t_uint256)49_storage": {
        "base": "t_uint256",
        "encoding": "inplace",
        "label": "uint256[49]",
        "numberOfBytes": "1568"
      },
      "t_array(t_uint256)50_storage": {
        "base": "t_uint256",
        "encoding": "inplace",
        "label": "uint256[50]",
        "numberOfBytes": "1600"
      },
      "t_array(t_uint256)dyn_storage": {
        "base": "t_uint256",
        "encoding": "dynamic_array",
        "label": "uint256[]",
        "numberOfBytes": "32"
      },
      "t_bool": {
        "encoding": "inplace",
        "label": "bool",
        "numberOfBytes": "1"
      },
      "t_bytes32": {
        "encoding": "inplace",
        "label": "bytes32",
        "numberOfBytes": "32"
      },
      "t_mapping(t_address,t_address)": {
        "encoding": "mapping",
        "key": "t_address",
        "label": "mapping(address => address)",
        "numberOfBytes": "32",
        "value": "t_address"
      },
      "t_mapping(t_address,t_array(t_struct(Checkpoint)1738_storage)dyn_storage)": {
        "encoding": "mapping",
        "key": "t_address",
        "label": "mapping(address => struct ERC20VotesUpgradeable.Checkpoint[])",
        "numberOfBytes": "32",
        "value": "t_array(t_struct(Checkpoint)1738_storage)dyn_storage"
      },
      "t_mapping(t_address,t_bool)": {
        "encoding": "mapping",
        "key": "t_address",
        "label": "mapping(address => bool)",
        "numberOfBytes": "32",
        "value": "t_bool"
      },
      "t_mapping(t_address,t_mapping(t_address,t_uint256))": {
        "encoding": "mapping",
        "key": "t_address",
        "label": "mapping(address => mapping(address => uint256))",
        "numberOfBytes": "32",
        "value": "t_mapping(t_address,t_uint256)"
      },
      "t_mapping(t_address,t_struct(Counter)2834_storage)": {
        "encoding": "mapping",
        "key": "t_address",
        "label": "mapping(address => struct CountersUpgradeable.Counter)",
        "numberOfBytes": "32",
        "value": "t_struct(Counter)2834_storage"
      },
      "t_mapping(t_address,t_struct(Snapshots)1406_storage)": {
        "encoding": "mapping",
        "key": "t_address",
        "label": "mapping(address => struct ERC20SnapshotUpgradeable.Snapshots)",
        "numberOfBytes": "32",
        "value": "t_struct(Snapshots)1406_storage"
      },
      "t_mapping(t_address,t_uint256)": {
        "encoding": "mapping",
        "key": "t_address",
        "label": "mapping(address => uint256)",
        "numberOfBytes": "32",
        "value": "t_uint256"
      },
      "t_mapping(t_bytes32,t_struct(RoleData)43_storage)": {
        "encoding": "mapping",
        "key": "t_bytes32",
        "label": "mapping(bytes32 => struct AccessControlUpgradeable.RoleData)",
        "numberOfBytes": "32",
        "value": "t_struct(RoleData)43_storage"
      },
      "t_string_storage": {
        "encoding": "bytes",
        "label": "string",
        "numberOfBytes": "32"
      },
      "t_struct(Checkpoint)1738_storage": {
        "encoding": "inplace",
        "label": "struct ERC20VotesUpgradeable.Checkpoint",
        "members": [
          {
            "astId": 1735,
            "contract": "contracts/ShogunToken.sol:ShogunToken",
            "label": "fromBlock",
            "offset": 0,
            "slot": "0",
            "type": "t_uint32"
          },
          {
            "astId": 1737,
            "contract": "contracts/ShogunToken.sol:ShogunToken",
            "label": "votes",
            "offset": 4,
            "slot": "0",
            "type": "t_uint224"
          }
        ],
        "numberOfBytes": "32"
      },
      "t_struct(Counter)2834_storage": {
        "encoding": "inplace",
        "label": "struct CountersUpgradeable.Counter",
        "members": [
          {
            "astId": 2833,
            "contract": "contracts/ShogunToken.sol:ShogunToken",
            "label": "_value",
            "offset": 0,
            "slot": "0",
            "type": "t_uint256"
          }
        ],
        "numberOfBytes": "32"
      },
      "t_struct(RoleData)43_storage": {
        "encoding": "inplace",
        "label": "struct AccessControlUpgradeable.RoleData",
        "members": [
          {
            "astId": 40,
            "contract": "contracts/ShogunToken.sol:ShogunToken",
            "label": "members",
            "offset": 0,
            "slot": "0",
            "type": "t_mapping(t_address,t_bool)"
          },
          {
            "astId": 42,
            "contract": "contracts/ShogunToken.sol:ShogunToken",
            "label": "adminRole",
            "offset": 0,
            "slot": "1",
            "type": "t_bytes32"
          }
        ],
        "numberOfBytes": "64"
      },
      "t_struct(Snapshots)1406_storage": {
        "encoding": "inplace",
        "label": "struct ERC20SnapshotUpgradeable.Snapshots",
        "members": [
          {
            "astId": 1402,
            "contract": "contracts/ShogunToken.sol:ShogunToken",
            "label": "ids",
            "offset": 0,
            "slot": "0",
            "type": "t_array(t_uint256)dyn_storage"
          },
          {
            "astId": 1405,
            "contract": "contracts/ShogunToken.sol:ShogunToken",
            "label": "values",
            "offset": 0,
            "slot": "1",
            "type": "t_array(t_uint256)dyn_storage"
          }
        ],
        "numberOfBytes": "64"
      },
      "t_uint224": {
        "encoding": "inplace",
        "label": "uint224",
        "numberOfBytes": "28"
      },
      "t_uint256": {
        "encoding": "inplace",
        "label": "uint256",
        "numberOfBytes": "32"
      },
      "t_uint32": {
        "encoding": "inplace",
        "label": "uint32",
        "numberOfBytes": "4"
      }
    }
  }
}